{
	"FruitToken.sol": {
		"FruitToken": {
			"abi": [
				{
					"inputs": [],
					"stateMutability": "nonpayable",
					"type": "constructor"
				},
				{
					"inputs": [
						{
							"internalType": "address",
							"name": "spender",
							"type": "address"
						},
						{
							"internalType": "uint256",
							"name": "allowance",
							"type": "uint256"
						},
						{
							"internalType": "uint256",
							"name": "needed",
							"type": "uint256"
						}
					],
					"name": "ERC20InsufficientAllowance",
					"type": "error"
				},
				{
					"inputs": [
						{
							"internalType": "address",
							"name": "sender",
							"type": "address"
						},
						{
							"internalType": "uint256",
							"name": "balance",
							"type": "uint256"
						},
						{
							"internalType": "uint256",
							"name": "needed",
							"type": "uint256"
						}
					],
					"name": "ERC20InsufficientBalance",
					"type": "error"
				},
				{
					"inputs": [
						{
							"internalType": "address",
							"name": "approver",
							"type": "address"
						}
					],
					"name": "ERC20InvalidApprover",
					"type": "error"
				},
				{
					"inputs": [
						{
							"internalType": "address",
							"name": "receiver",
							"type": "address"
						}
					],
					"name": "ERC20InvalidReceiver",
					"type": "error"
				},
				{
					"inputs": [
						{
							"internalType": "address",
							"name": "sender",
							"type": "address"
						}
					],
					"name": "ERC20InvalidSender",
					"type": "error"
				},
				{
					"inputs": [
						{
							"internalType": "address",
							"name": "spender",
							"type": "address"
						}
					],
					"name": "ERC20InvalidSpender",
					"type": "error"
				},
				{
					"inputs": [
						{
							"internalType": "address",
							"name": "owner",
							"type": "address"
						}
					],
					"name": "OwnableInvalidOwner",
					"type": "error"
				},
				{
					"inputs": [
						{
							"internalType": "address",
							"name": "account",
							"type": "address"
						}
					],
					"name": "OwnableUnauthorizedAccount",
					"type": "error"
				},
				{
					"anonymous": false,
					"inputs": [
						{
							"indexed": true,
							"internalType": "address",
							"name": "owner",
							"type": "address"
						},
						{
							"indexed": true,
							"internalType": "address",
							"name": "spender",
							"type": "address"
						},
						{
							"indexed": false,
							"internalType": "uint256",
							"name": "value",
							"type": "uint256"
						}
					],
					"name": "Approval",
					"type": "event"
				},
				{
					"anonymous": false,
					"inputs": [
						{
							"indexed": true,
							"internalType": "address",
							"name": "previousOwner",
							"type": "address"
						},
						{
							"indexed": true,
							"internalType": "address",
							"name": "newOwner",
							"type": "address"
						}
					],
					"name": "OwnershipTransferred",
					"type": "event"
				},
				{
					"anonymous": false,
					"inputs": [
						{
							"indexed": true,
							"internalType": "address",
							"name": "from",
							"type": "address"
						},
						{
							"indexed": true,
							"internalType": "address",
							"name": "to",
							"type": "address"
						},
						{
							"indexed": false,
							"internalType": "uint256",
							"name": "value",
							"type": "uint256"
						}
					],
					"name": "Transfer",
					"type": "event"
				},
				{
					"inputs": [
						{
							"internalType": "address",
							"name": "owner",
							"type": "address"
						},
						{
							"internalType": "address",
							"name": "spender",
							"type": "address"
						}
					],
					"name": "allowance",
					"outputs": [
						{
							"internalType": "uint256",
							"name": "",
							"type": "uint256"
						}
					],
					"stateMutability": "view",
					"type": "function"
				},
				{
					"inputs": [
						{
							"internalType": "address",
							"name": "spender",
							"type": "address"
						},
						{
							"internalType": "uint256",
							"name": "value",
							"type": "uint256"
						}
					],
					"name": "approve",
					"outputs": [
						{
							"internalType": "bool",
							"name": "",
							"type": "bool"
						}
					],
					"stateMutability": "nonpayable",
					"type": "function"
				},
				{
					"inputs": [
						{
							"internalType": "address",
							"name": "account",
							"type": "address"
						}
					],
					"name": "balanceOf",
					"outputs": [
						{
							"internalType": "uint256",
							"name": "",
							"type": "uint256"
						}
					],
					"stateMutability": "view",
					"type": "function"
				},
				{
					"inputs": [],
					"name": "decimals",
					"outputs": [
						{
							"internalType": "uint8",
							"name": "",
							"type": "uint8"
						}
					],
					"stateMutability": "view",
					"type": "function"
				},
				{
					"inputs": [
						{
							"internalType": "address",
							"name": "to",
							"type": "address"
						},
						{
							"internalType": "uint256",
							"name": "amount",
							"type": "uint256"
						}
					],
					"name": "mint",
					"outputs": [],
					"stateMutability": "nonpayable",
					"type": "function"
				},
				{
					"inputs": [],
					"name": "minter",
					"outputs": [
						{
							"internalType": "address",
							"name": "",
							"type": "address"
						}
					],
					"stateMutability": "view",
					"type": "function"
				},
				{
					"inputs": [],
					"name": "name",
					"outputs": [
						{
							"internalType": "string",
							"name": "",
							"type": "string"
						}
					],
					"stateMutability": "view",
					"type": "function"
				},
				{
					"inputs": [],
					"name": "owner",
					"outputs": [
						{
							"internalType": "address",
							"name": "",
							"type": "address"
						}
					],
					"stateMutability": "view",
					"type": "function"
				},
				{
					"inputs": [],
					"name": "renounceOwnership",
					"outputs": [],
					"stateMutability": "nonpayable",
					"type": "function"
				},
				{
					"inputs": [
						{
							"internalType": "address",
							"name": "_minter",
							"type": "address"
						}
					],
					"name": "setMiner",
					"outputs": [],
					"stateMutability": "nonpayable",
					"type": "function"
				},
				{
					"inputs": [],
					"name": "symbol",
					"outputs": [
						{
							"internalType": "string",
							"name": "",
							"type": "string"
						}
					],
					"stateMutability": "view",
					"type": "function"
				},
				{
					"inputs": [],
					"name": "totalSupply",
					"outputs": [
						{
							"internalType": "uint256",
							"name": "",
							"type": "uint256"
						}
					],
					"stateMutability": "view",
					"type": "function"
				},
				{
					"inputs": [
						{
							"internalType": "address",
							"name": "to",
							"type": "address"
						},
						{
							"internalType": "uint256",
							"name": "value",
							"type": "uint256"
						}
					],
					"name": "transfer",
					"outputs": [
						{
							"internalType": "bool",
							"name": "",
							"type": "bool"
						}
					],
					"stateMutability": "nonpayable",
					"type": "function"
				},
				{
					"inputs": [
						{
							"internalType": "address",
							"name": "from",
							"type": "address"
						},
						{
							"internalType": "address",
							"name": "to",
							"type": "address"
						},
						{
							"internalType": "uint256",
							"name": "value",
							"type": "uint256"
						}
					],
					"name": "transferFrom",
					"outputs": [
						{
							"internalType": "bool",
							"name": "",
							"type": "bool"
						}
					],
					"stateMutability": "nonpayable",
					"type": "function"
				},
				{
					"inputs": [
						{
							"internalType": "address",
							"name": "newOwner",
							"type": "address"
						}
					],
					"name": "transferOwnership",
					"outputs": [],
					"stateMutability": "nonpayable",
					"type": "function"
				}
			],
			"devdoc": {
				"errors": {
					"ERC20InsufficientAllowance(address,uint256,uint256)": [
						{
							"details": "Indicates a failure with the `spender`’s `allowance`. Used in transfers.",
							"params": {
								"allowance": "Amount of tokens a `spender` is allowed to operate with.",
								"needed": "Minimum amount required to perform a transfer.",
								"spender": "Address that may be allowed to operate on tokens without being their owner."
							}
						}
					],
					"ERC20InsufficientBalance(address,uint256,uint256)": [
						{
							"details": "Indicates an error related to the current `balance` of a `sender`. Used in transfers.",
							"params": {
								"balance": "Current balance for the interacting account.",
								"needed": "Minimum amount required to perform a transfer.",
								"sender": "Address whose tokens are being transferred."
							}
						}
					],
					"ERC20InvalidApprover(address)": [
						{
							"details": "Indicates a failure with the `approver` of a token to be approved. Used in approvals.",
							"params": {
								"approver": "Address initiating an approval operation."
							}
						}
					],
					"ERC20InvalidReceiver(address)": [
						{
							"details": "Indicates a failure with the token `receiver`. Used in transfers.",
							"params": {
								"receiver": "Address to which tokens are being transferred."
							}
						}
					],
					"ERC20InvalidSender(address)": [
						{
							"details": "Indicates a failure with the token `sender`. Used in transfers.",
							"params": {
								"sender": "Address whose tokens are being transferred."
							}
						}
					],
					"ERC20InvalidSpender(address)": [
						{
							"details": "Indicates a failure with the `spender` to be approved. Used in approvals.",
							"params": {
								"spender": "Address that may be allowed to operate on tokens without being their owner."
							}
						}
					],
					"OwnableInvalidOwner(address)": [
						{
							"details": "The owner is not a valid owner account. (eg. `address(0)`)"
						}
					],
					"OwnableUnauthorizedAccount(address)": [
						{
							"details": "The caller account is not authorized to perform an operation."
						}
					]
				},
				"events": {
					"Approval(address,address,uint256)": {
						"details": "Emitted when the allowance of a `spender` for an `owner` is set by a call to {approve}. `value` is the new allowance."
					},
					"Transfer(address,address,uint256)": {
						"details": "Emitted when `value` tokens are moved from one account (`from`) to another (`to`). Note that `value` may be zero."
					}
				},
				"kind": "dev",
				"methods": {
					"allowance(address,address)": {
						"details": "See {IERC20-allowance}."
					},
					"approve(address,uint256)": {
						"details": "See {IERC20-approve}. NOTE: If `value` is the maximum `uint256`, the allowance is not updated on `transferFrom`. This is semantically equivalent to an infinite approval. Requirements: - `spender` cannot be the zero address."
					},
					"balanceOf(address)": {
						"details": "See {IERC20-balanceOf}."
					},
					"decimals()": {
						"details": "Returns the number of decimals used to get its user representation. For example, if `decimals` equals `2`, a balance of `505` tokens should be displayed to a user as `5.05` (`505 / 10 ** 2`). Tokens usually opt for a value of 18, imitating the relationship between Ether and Wei. This is the default value returned by this function, unless it's overridden. NOTE: This information is only used for _display_ purposes: it in no way affects any of the arithmetic of the contract, including {IERC20-balanceOf} and {IERC20-transfer}."
					},
					"name()": {
						"details": "Returns the name of the token."
					},
					"owner()": {
						"details": "Returns the address of the current owner."
					},
					"renounceOwnership()": {
						"details": "Leaves the contract without owner. It will not be possible to call `onlyOwner` functions. Can only be called by the current owner. NOTE: Renouncing ownership will leave the contract without an owner, thereby disabling any functionality that is only available to the owner."
					},
					"symbol()": {
						"details": "Returns the symbol of the token, usually a shorter version of the name."
					},
					"totalSupply()": {
						"details": "See {IERC20-totalSupply}."
					},
					"transfer(address,uint256)": {
						"details": "See {IERC20-transfer}. Requirements: - `to` cannot be the zero address. - the caller must have a balance of at least `value`."
					},
					"transferFrom(address,address,uint256)": {
						"details": "See {IERC20-transferFrom}. Skips emitting an {Approval} event indicating an allowance update. This is not required by the ERC. See {xref-ERC20-_approve-address-address-uint256-bool-}[_approve]. NOTE: Does not update the allowance if the current allowance is the maximum `uint256`. Requirements: - `from` and `to` cannot be the zero address. - `from` must have a balance of at least `value`. - the caller must have allowance for ``from``'s tokens of at least `value`."
					},
					"transferOwnership(address)": {
						"details": "Transfers ownership of the contract to a new account (`newOwner`). Can only be called by the current owner."
					}
				},
				"version": 1
			},
			"evm": {
				"assembly": "    /* \"FruitToken.sol\":168:612  contract FruitToken is ERC20, Ownable {... */\n  mstore(0x40, 0x80)\n    /* \"FruitToken.sol\":240:306  constructor() ERC20(\"Fruit Token\", \"FRUIT\") Ownable(msg.sender) {} */\n  callvalue\n  dup1\n  iszero\n  tag_1\n  jumpi\n  0x00\n  dup1\n  revert\ntag_1:\n  pop\n    /* \"FruitToken.sol\":292:302  msg.sender */\n  caller\n    /* \"@openzeppelin/contracts/token/ERC20/ERC20.sol\":1601:1714  constructor(string memory name_, string memory symbol_) {... */\n  mload(0x40)\n  dup1\n  0x40\n  add\n  0x40\n  mstore\n  dup1\n  0x0b\n  dup2\n  mstore\n  0x20\n  add\n  0x467275697420546f6b656e000000000000000000000000000000000000000000\n  dup2\n  mstore\n  pop\n  mload(0x40)\n  dup1\n  0x40\n  add\n  0x40\n  mstore\n  dup1\n  0x05\n  dup2\n  mstore\n  0x20\n  add\n  0x4652554954000000000000000000000000000000000000000000000000000000\n  dup2\n  mstore\n  pop\n    /* \"@openzeppelin/contracts/token/ERC20/ERC20.sol\":1675:1680  name_ */\n  dup2\n    /* \"@openzeppelin/contracts/token/ERC20/ERC20.sol\":1667:1672  _name */\n  0x03\n    /* \"@openzeppelin/contracts/token/ERC20/ERC20.sol\":1667:1680  _name = name_ */\n  swap1\n  dup2\n  tag_6\n  swap2\n  swap1\n  tag_7\n  jump\t// in\ntag_6:\n  pop\n    /* \"@openzeppelin/contracts/token/ERC20/ERC20.sol\":1700:1707  symbol_ */\n  dup1\n    /* \"@openzeppelin/contracts/token/ERC20/ERC20.sol\":1690:1697  _symbol */\n  0x04\n    /* \"@openzeppelin/contracts/token/ERC20/ERC20.sol\":1690:1707  _symbol = symbol_ */\n  swap1\n  dup2\n  tag_8\n  swap2\n  swap1\n  tag_7\n  jump\t// in\ntag_8:\n  pop\n    /* \"@openzeppelin/contracts/token/ERC20/ERC20.sol\":1601:1714  constructor(string memory name_, string memory symbol_) {... */\n  pop\n  pop\n    /* \"@openzeppelin/contracts/access/Ownable.sol\":1297:1298  0 */\n  0x00\n    /* \"@openzeppelin/contracts/access/Ownable.sol\":1273:1299  initialOwner == address(0) */\n  0xffffffffffffffffffffffffffffffffffffffff\n  and\n    /* \"@openzeppelin/contracts/access/Ownable.sol\":1273:1285  initialOwner */\n  dup2\n    /* \"@openzeppelin/contracts/access/Ownable.sol\":1273:1299  initialOwner == address(0) */\n  0xffffffffffffffffffffffffffffffffffffffff\n  and\n  sub\n    /* \"@openzeppelin/contracts/access/Ownable.sol\":1269:1364  if (initialOwner == address(0)) {... */\n  tag_10\n  jumpi\n    /* \"@openzeppelin/contracts/access/Ownable.sol\":1350:1351  0 */\n  0x00\n    /* \"@openzeppelin/contracts/access/Ownable.sol\":1322:1353  OwnableInvalidOwner(address(0)) */\n  mload(0x40)\n  0x1e4fbdf700000000000000000000000000000000000000000000000000000000\n  dup2\n  mstore\n  0x04\n  add\n  tag_11\n  swap2\n  swap1\n  tag_12\n  jump\t// in\ntag_11:\n  mload(0x40)\n  dup1\n  swap2\n  sub\n  swap1\n  revert\n    /* \"@openzeppelin/contracts/access/Ownable.sol\":1269:1364  if (initialOwner == address(0)) {... */\ntag_10:\n    /* \"@openzeppelin/contracts/access/Ownable.sol\":1373:1405  _transferOwnership(initialOwner) */\n  tag_13\n    /* \"@openzeppelin/contracts/access/Ownable.sol\":1392:1404  initialOwner */\n  dup2\n    /* \"@openzeppelin/contracts/access/Ownable.sol\":1373:1391  _transferOwnership */\n  shl(0x20, tag_14)\n    /* \"@openzeppelin/contracts/access/Ownable.sol\":1373:1405  _transferOwnership(initialOwner) */\n  0x20\n  shr\n  jump\t// in\ntag_13:\n    /* \"@openzeppelin/contracts/access/Ownable.sol\":1225:1412  constructor(address initialOwner) {... */\n  pop\n    /* \"FruitToken.sol\":168:612  contract FruitToken is ERC20, Ownable {... */\n  jump(tag_16)\n    /* \"@openzeppelin/contracts/access/Ownable.sol\":2912:3099  function _transferOwnership(address newOwner) internal virtual {... */\ntag_14:\n    /* \"@openzeppelin/contracts/access/Ownable.sol\":2985:3001  address oldOwner */\n  0x00\n    /* \"@openzeppelin/contracts/access/Ownable.sol\":3004:3010  _owner */\n  0x05\n  0x00\n  swap1\n  sload\n  swap1\n  0x0100\n  exp\n  swap1\n  div\n  0xffffffffffffffffffffffffffffffffffffffff\n  and\n    /* \"@openzeppelin/contracts/access/Ownable.sol\":2985:3010  address oldOwner = _owner */\n  swap1\n  pop\n    /* \"@openzeppelin/contracts/access/Ownable.sol\":3029:3037  newOwner */\n  dup2\n    /* \"@openzeppelin/contracts/access/Ownable.sol\":3020:3026  _owner */\n  0x05\n  0x00\n    /* \"@openzeppelin/contracts/access/Ownable.sol\":3020:3037  _owner = newOwner */\n  0x0100\n  exp\n  dup2\n  sload\n  dup2\n  0xffffffffffffffffffffffffffffffffffffffff\n  mul\n  not\n  and\n  swap1\n  dup4\n  0xffffffffffffffffffffffffffffffffffffffff\n  and\n  mul\n  or\n  swap1\n  sstore\n  pop\n    /* \"@openzeppelin/contracts/access/Ownable.sol\":3083:3091  newOwner */\n  dup2\n    /* \"@openzeppelin/contracts/access/Ownable.sol\":3052:3092  OwnershipTransferred(oldOwner, newOwner) */\n  0xffffffffffffffffffffffffffffffffffffffff\n  and\n    /* \"@openzeppelin/contracts/access/Ownable.sol\":3073:3081  oldOwner */\n  dup2\n    /* \"@openzeppelin/contracts/access/Ownable.sol\":3052:3092  OwnershipTransferred(oldOwner, newOwner) */\n  0xffffffffffffffffffffffffffffffffffffffff\n  and\n  0x8be0079c531659141344cd1fd0a4f28419497f9722a3daafe3b4186f6b6457e0\n  mload(0x40)\n  mload(0x40)\n  dup1\n  swap2\n  sub\n  swap1\n  log3\n    /* \"@openzeppelin/contracts/access/Ownable.sol\":2975:3099  {... */\n  pop\n    /* \"@openzeppelin/contracts/access/Ownable.sol\":2912:3099  function _transferOwnership(address newOwner) internal virtual {... */\n  pop\n  jump\t// out\n    /* \"#utility.yul\":7:106   */\ntag_18:\n    /* \"#utility.yul\":59:65   */\n  0x00\n    /* \"#utility.yul\":93:98   */\n  dup2\n    /* \"#utility.yul\":87:99   */\n  mload\n    /* \"#utility.yul\":77:99   */\n  swap1\n  pop\n    /* \"#utility.yul\":7:106   */\n  swap2\n  swap1\n  pop\n  jump\t// out\n    /* \"#utility.yul\":112:292   */\ntag_19:\n    /* \"#utility.yul\":160:237   */\n  0x4e487b7100000000000000000000000000000000000000000000000000000000\n    /* \"#utility.yul\":157:158   */\n  0x00\n    /* \"#utility.yul\":150:238   */\n  mstore\n    /* \"#utility.yul\":257:261   */\n  0x41\n    /* \"#utility.yul\":254:255   */\n  0x04\n    /* \"#utility.yul\":247:262   */\n  mstore\n    /* \"#utility.yul\":281:285   */\n  0x24\n    /* \"#utility.yul\":278:279   */\n  0x00\n    /* \"#utility.yul\":271:286   */\n  revert\n    /* \"#utility.yul\":298:478   */\ntag_20:\n    /* \"#utility.yul\":346:423   */\n  0x4e487b7100000000000000000000000000000000000000000000000000000000\n    /* \"#utility.yul\":343:344   */\n  0x00\n    /* \"#utility.yul\":336:424   */\n  mstore\n    /* \"#utility.yul\":443:447   */\n  0x22\n    /* \"#utility.yul\":440:441   */\n  0x04\n    /* \"#utility.yul\":433:448   */\n  mstore\n    /* \"#utility.yul\":467:471   */\n  0x24\n    /* \"#utility.yul\":464:465   */\n  0x00\n    /* \"#utility.yul\":457:472   */\n  revert\n    /* \"#utility.yul\":484:804   */\ntag_21:\n    /* \"#utility.yul\":528:534   */\n  0x00\n    /* \"#utility.yul\":565:566   */\n  0x02\n    /* \"#utility.yul\":559:563   */\n  dup3\n    /* \"#utility.yul\":555:567   */\n  div\n    /* \"#utility.yul\":545:567   */\n  swap1\n  pop\n    /* \"#utility.yul\":612:613   */\n  0x01\n    /* \"#utility.yul\":606:610   */\n  dup3\n    /* \"#utility.yul\":602:614   */\n  and\n    /* \"#utility.yul\":633:651   */\n  dup1\n    /* \"#utility.yul\":623:704   */\n  tag_46\n  jumpi\n    /* \"#utility.yul\":689:693   */\n  0x7f\n    /* \"#utility.yul\":681:687   */\n  dup3\n    /* \"#utility.yul\":677:694   */\n  and\n    /* \"#utility.yul\":667:694   */\n  swap2\n  pop\n    /* \"#utility.yul\":623:704   */\ntag_46:\n    /* \"#utility.yul\":751:753   */\n  0x20\n    /* \"#utility.yul\":743:749   */\n  dup3\n    /* \"#utility.yul\":740:754   */\n  lt\n    /* \"#utility.yul\":720:738   */\n  dup2\n    /* \"#utility.yul\":717:755   */\n  sub\n    /* \"#utility.yul\":714:798   */\n  tag_47\n  jumpi\n    /* \"#utility.yul\":770:788   */\n  tag_48\n  tag_20\n  jump\t// in\ntag_48:\n    /* \"#utility.yul\":714:798   */\ntag_47:\n    /* \"#utility.yul\":535:804   */\n  pop\n    /* \"#utility.yul\":484:804   */\n  swap2\n  swap1\n  pop\n  jump\t// out\n    /* \"#utility.yul\":810:951   */\ntag_22:\n    /* \"#utility.yul\":859:863   */\n  0x00\n    /* \"#utility.yul\":882:885   */\n  dup2\n    /* \"#utility.yul\":874:885   */\n  swap1\n  pop\n    /* \"#utility.yul\":905:908   */\n  dup2\n    /* \"#utility.yul\":902:903   */\n  0x00\n    /* \"#utility.yul\":895:909   */\n  mstore\n    /* \"#utility.yul\":939:943   */\n  0x20\n    /* \"#utility.yul\":936:937   */\n  0x00\n    /* \"#utility.yul\":926:944   */\n  keccak256\n    /* \"#utility.yul\":918:944   */\n  swap1\n  pop\n    /* \"#utility.yul\":810:951   */\n  swap2\n  swap1\n  pop\n  jump\t// out\n    /* \"#utility.yul\":957:1050   */\ntag_23:\n    /* \"#utility.yul\":994:1000   */\n  0x00\n    /* \"#utility.yul\":1041:1043   */\n  0x20\n    /* \"#utility.yul\":1036:1038   */\n  0x1f\n    /* \"#utility.yul\":1029:1034   */\n  dup4\n    /* \"#utility.yul\":1025:1039   */\n  add\n    /* \"#utility.yul\":1021:1044   */\n  div\n    /* \"#utility.yul\":1011:1044   */\n  swap1\n  pop\n    /* \"#utility.yul\":957:1050   */\n  swap2\n  swap1\n  pop\n  jump\t// out\n    /* \"#utility.yul\":1056:1163   */\ntag_24:\n    /* \"#utility.yul\":1100:1108   */\n  0x00\n    /* \"#utility.yul\":1150:1155   */\n  dup3\n    /* \"#utility.yul\":1144:1148   */\n  dup3\n    /* \"#utility.yul\":1140:1156   */\n  shl\n    /* \"#utility.yul\":1119:1156   */\n  swap1\n  pop\n    /* \"#utility.yul\":1056:1163   */\n  swap3\n  swap2\n  pop\n  pop\n  jump\t// out\n    /* \"#utility.yul\":1169:1562   */\ntag_25:\n    /* \"#utility.yul\":1238:1244   */\n  0x00\n    /* \"#utility.yul\":1288:1289   */\n  0x08\n    /* \"#utility.yul\":1276:1286   */\n  dup4\n    /* \"#utility.yul\":1272:1290   */\n  mul\n    /* \"#utility.yul\":1311:1408   */\n  tag_53\n    /* \"#utility.yul\":1341:1407   */\n  0xffffffffffffffffffffffffffffffffffffffffffffffffffffffffffffffff\n    /* \"#utility.yul\":1330:1339   */\n  dup3\n    /* \"#utility.yul\":1311:1408   */\n  tag_24\n  jump\t// in\ntag_53:\n    /* \"#utility.yul\":1429:1468   */\n  tag_54\n    /* \"#utility.yul\":1459:1467   */\n  dup7\n    /* \"#utility.yul\":1448:1457   */\n  dup4\n    /* \"#utility.yul\":1429:1468   */\n  tag_24\n  jump\t// in\ntag_54:\n    /* \"#utility.yul\":1417:1468   */\n  swap6\n  pop\n    /* \"#utility.yul\":1501:1505   */\n  dup1\n    /* \"#utility.yul\":1497:1506   */\n  not\n    /* \"#utility.yul\":1490:1495   */\n  dup5\n    /* \"#utility.yul\":1486:1507   */\n  and\n    /* \"#utility.yul\":1477:1507   */\n  swap4\n  pop\n    /* \"#utility.yul\":1550:1554   */\n  dup1\n    /* \"#utility.yul\":1540:1548   */\n  dup7\n    /* \"#utility.yul\":1536:1555   */\n  and\n    /* \"#utility.yul\":1529:1534   */\n  dup5\n    /* \"#utility.yul\":1526:1556   */\n  or\n    /* \"#utility.yul\":1516:1556   */\n  swap3\n  pop\n    /* \"#utility.yul\":1245:1562   */\n  pop\n  pop\n    /* \"#utility.yul\":1169:1562   */\n  swap4\n  swap3\n  pop\n  pop\n  pop\n  jump\t// out\n    /* \"#utility.yul\":1568:1645   */\ntag_26:\n    /* \"#utility.yul\":1605:1612   */\n  0x00\n    /* \"#utility.yul\":1634:1639   */\n  dup2\n    /* \"#utility.yul\":1623:1639   */\n  swap1\n  pop\n    /* \"#utility.yul\":1568:1645   */\n  swap2\n  swap1\n  pop\n  jump\t// out\n    /* \"#utility.yul\":1651:1711   */\ntag_27:\n    /* \"#utility.yul\":1679:1682   */\n  0x00\n    /* \"#utility.yul\":1700:1705   */\n  dup2\n    /* \"#utility.yul\":1693:1705   */\n  swap1\n  pop\n    /* \"#utility.yul\":1651:1711   */\n  swap2\n  swap1\n  pop\n  jump\t// out\n    /* \"#utility.yul\":1717:1859   */\ntag_28:\n    /* \"#utility.yul\":1767:1776   */\n  0x00\n    /* \"#utility.yul\":1800:1853   */\n  tag_58\n    /* \"#utility.yul\":1818:1852   */\n  tag_59\n    /* \"#utility.yul\":1827:1851   */\n  tag_60\n    /* \"#utility.yul\":1845:1850   */\n  dup5\n    /* \"#utility.yul\":1827:1851   */\n  tag_26\n  jump\t// in\ntag_60:\n    /* \"#utility.yul\":1818:1852   */\n  tag_27\n  jump\t// in\ntag_59:\n    /* \"#utility.yul\":1800:1853   */\n  tag_26\n  jump\t// in\ntag_58:\n    /* \"#utility.yul\":1787:1853   */\n  swap1\n  pop\n    /* \"#utility.yul\":1717:1859   */\n  swap2\n  swap1\n  pop\n  jump\t// out\n    /* \"#utility.yul\":1865:1940   */\ntag_29:\n    /* \"#utility.yul\":1908:1911   */\n  0x00\n    /* \"#utility.yul\":1929:1934   */\n  dup2\n    /* \"#utility.yul\":1922:1934   */\n  swap1\n  pop\n    /* \"#utility.yul\":1865:1940   */\n  swap2\n  swap1\n  pop\n  jump\t// out\n    /* \"#utility.yul\":1946:2215   */\ntag_30:\n    /* \"#utility.yul\":2056:2095   */\n  tag_63\n    /* \"#utility.yul\":2087:2094   */\n  dup4\n    /* \"#utility.yul\":2056:2095   */\n  tag_28\n  jump\t// in\ntag_63:\n    /* \"#utility.yul\":2117:2208   */\n  tag_64\n    /* \"#utility.yul\":2166:2207   */\n  tag_65\n    /* \"#utility.yul\":2190:2206   */\n  dup3\n    /* \"#utility.yul\":2166:2207   */\n  tag_29\n  jump\t// in\ntag_65:\n    /* \"#utility.yul\":2158:2164   */\n  dup5\n    /* \"#utility.yul\":2151:2155   */\n  dup5\n    /* \"#utility.yul\":2145:2156   */\n  sload\n    /* \"#utility.yul\":2117:2208   */\n  tag_25\n  jump\t// in\ntag_64:\n    /* \"#utility.yul\":2111:2115   */\n  dup3\n    /* \"#utility.yul\":2104:2209   */\n  sstore\n    /* \"#utility.yul\":2022:2215   */\n  pop\n    /* \"#utility.yul\":1946:2215   */\n  pop\n  pop\n  pop\n  jump\t// out\n    /* \"#utility.yul\":2221:2294   */\ntag_31:\n    /* \"#utility.yul\":2266:2269   */\n  0x00\n    /* \"#utility.yul\":2221:2294   */\n  swap1\n  jump\t// out\n    /* \"#utility.yul\":2300:2489   */\ntag_32:\n    /* \"#utility.yul\":2377:2409   */\n  tag_68\n  tag_31\n  jump\t// in\ntag_68:\n    /* \"#utility.yul\":2418:2483   */\n  tag_69\n    /* \"#utility.yul\":2476:2482   */\n  dup2\n    /* \"#utility.yul\":2468:2474   */\n  dup5\n    /* \"#utility.yul\":2462:2466   */\n  dup5\n    /* \"#utility.yul\":2418:2483   */\n  tag_30\n  jump\t// in\ntag_69:\n    /* \"#utility.yul\":2353:2489   */\n  pop\n    /* \"#utility.yul\":2300:2489   */\n  pop\n  pop\n  jump\t// out\n    /* \"#utility.yul\":2495:2681   */\ntag_33:\n    /* \"#utility.yul\":2555:2675   */\ntag_71:\n    /* \"#utility.yul\":2572:2575   */\n  dup2\n    /* \"#utility.yul\":2565:2570   */\n  dup2\n    /* \"#utility.yul\":2562:2576   */\n  lt\n    /* \"#utility.yul\":2555:2675   */\n  iszero\n  tag_73\n  jumpi\n    /* \"#utility.yul\":2626:2665   */\n  tag_74\n    /* \"#utility.yul\":2663:2664   */\n  0x00\n    /* \"#utility.yul\":2656:2661   */\n  dup3\n    /* \"#utility.yul\":2626:2665   */\n  tag_32\n  jump\t// in\ntag_74:\n    /* \"#utility.yul\":2599:2600   */\n  0x01\n    /* \"#utility.yul\":2592:2597   */\n  dup2\n    /* \"#utility.yul\":2588:2601   */\n  add\n    /* \"#utility.yul\":2579:2601   */\n  swap1\n  pop\n    /* \"#utility.yul\":2555:2675   */\n  jump(tag_71)\ntag_73:\n    /* \"#utility.yul\":2495:2681   */\n  pop\n  pop\n  jump\t// out\n    /* \"#utility.yul\":2687:3230   */\ntag_34:\n    /* \"#utility.yul\":2788:2790   */\n  0x1f\n    /* \"#utility.yul\":2783:2786   */\n  dup3\n    /* \"#utility.yul\":2780:2791   */\n  gt\n    /* \"#utility.yul\":2777:3223   */\n  iszero\n  tag_76\n  jumpi\n    /* \"#utility.yul\":2822:2860   */\n  tag_77\n    /* \"#utility.yul\":2854:2859   */\n  dup2\n    /* \"#utility.yul\":2822:2860   */\n  tag_22\n  jump\t// in\ntag_77:\n    /* \"#utility.yul\":2906:2935   */\n  tag_78\n    /* \"#utility.yul\":2924:2934   */\n  dup5\n    /* \"#utility.yul\":2906:2935   */\n  tag_23\n  jump\t// in\ntag_78:\n    /* \"#utility.yul\":2896:2904   */\n  dup2\n    /* \"#utility.yul\":2892:2936   */\n  add\n    /* \"#utility.yul\":3089:3091   */\n  0x20\n    /* \"#utility.yul\":3077:3087   */\n  dup6\n    /* \"#utility.yul\":3074:3092   */\n  lt\n    /* \"#utility.yul\":3071:3120   */\n  iszero\n  tag_79\n  jumpi\n    /* \"#utility.yul\":3110:3118   */\n  dup2\n    /* \"#utility.yul\":3095:3118   */\n  swap1\n  pop\n    /* \"#utility.yul\":3071:3120   */\ntag_79:\n    /* \"#utility.yul\":3133:3213   */\n  tag_80\n    /* \"#utility.yul\":3189:3211   */\n  tag_81\n    /* \"#utility.yul\":3207:3210   */\n  dup6\n    /* \"#utility.yul\":3189:3211   */\n  tag_23\n  jump\t// in\ntag_81:\n    /* \"#utility.yul\":3179:3187   */\n  dup4\n    /* \"#utility.yul\":3175:3212   */\n  add\n    /* \"#utility.yul\":3162:3173   */\n  dup3\n    /* \"#utility.yul\":3133:3213   */\n  tag_33\n  jump\t// in\ntag_80:\n    /* \"#utility.yul\":2792:3223   */\n  pop\n  pop\n    /* \"#utility.yul\":2777:3223   */\ntag_76:\n    /* \"#utility.yul\":2687:3230   */\n  pop\n  pop\n  pop\n  jump\t// out\n    /* \"#utility.yul\":3236:3353   */\ntag_35:\n    /* \"#utility.yul\":3290:3298   */\n  0x00\n    /* \"#utility.yul\":3340:3345   */\n  dup3\n    /* \"#utility.yul\":3334:3338   */\n  dup3\n    /* \"#utility.yul\":3330:3346   */\n  shr\n    /* \"#utility.yul\":3309:3346   */\n  swap1\n  pop\n    /* \"#utility.yul\":3236:3353   */\n  swap3\n  swap2\n  pop\n  pop\n  jump\t// out\n    /* \"#utility.yul\":3359:3528   */\ntag_36:\n    /* \"#utility.yul\":3403:3409   */\n  0x00\n    /* \"#utility.yul\":3436:3487   */\n  tag_84\n    /* \"#utility.yul\":3484:3485   */\n  0x00\n    /* \"#utility.yul\":3480:3486   */\n  not\n    /* \"#utility.yul\":3472:3477   */\n  dup5\n    /* \"#utility.yul\":3469:3470   */\n  0x08\n    /* \"#utility.yul\":3465:3478   */\n  mul\n    /* \"#utility.yul\":3436:3487   */\n  tag_35\n  jump\t// in\ntag_84:\n    /* \"#utility.yul\":3432:3488   */\n  not\n    /* \"#utility.yul\":3517:3521   */\n  dup1\n    /* \"#utility.yul\":3511:3515   */\n  dup4\n    /* \"#utility.yul\":3507:3522   */\n  and\n    /* \"#utility.yul\":3497:3522   */\n  swap2\n  pop\n    /* \"#utility.yul\":3410:3528   */\n  pop\n    /* \"#utility.yul\":3359:3528   */\n  swap3\n  swap2\n  pop\n  pop\n  jump\t// out\n    /* \"#utility.yul\":3533:3828   */\ntag_37:\n    /* \"#utility.yul\":3609:3613   */\n  0x00\n    /* \"#utility.yul\":3755:3784   */\n  tag_86\n    /* \"#utility.yul\":3780:3783   */\n  dup4\n    /* \"#utility.yul\":3774:3778   */\n  dup4\n    /* \"#utility.yul\":3755:3784   */\n  tag_36\n  jump\t// in\ntag_86:\n    /* \"#utility.yul\":3747:3784   */\n  swap2\n  pop\n    /* \"#utility.yul\":3817:3820   */\n  dup3\n    /* \"#utility.yul\":3814:3815   */\n  0x02\n    /* \"#utility.yul\":3810:3821   */\n  mul\n    /* \"#utility.yul\":3804:3808   */\n  dup3\n    /* \"#utility.yul\":3801:3822   */\n  or\n    /* \"#utility.yul\":3793:3822   */\n  swap1\n  pop\n    /* \"#utility.yul\":3533:3828   */\n  swap3\n  swap2\n  pop\n  pop\n  jump\t// out\n    /* \"#utility.yul\":3833:5228   */\ntag_7:\n    /* \"#utility.yul\":3950:3987   */\n  tag_88\n    /* \"#utility.yul\":3983:3986   */\n  dup3\n    /* \"#utility.yul\":3950:3987   */\n  tag_18\n  jump\t// in\ntag_88:\n    /* \"#utility.yul\":4052:4070   */\n  0xffffffffffffffff\n    /* \"#utility.yul\":4044:4050   */\n  dup2\n    /* \"#utility.yul\":4041:4071   */\n  gt\n    /* \"#utility.yul\":4038:4094   */\n  iszero\n  tag_89\n  jumpi\n    /* \"#utility.yul\":4074:4092   */\n  tag_90\n  tag_19\n  jump\t// in\ntag_90:\n    /* \"#utility.yul\":4038:4094   */\ntag_89:\n    /* \"#utility.yul\":4118:4156   */\n  tag_91\n    /* \"#utility.yul\":4150:4154   */\n  dup3\n    /* \"#utility.yul\":4144:4155   */\n  sload\n    /* \"#utility.yul\":4118:4156   */\n  tag_21\n  jump\t// in\ntag_91:\n    /* \"#utility.yul\":4203:4270   */\n  tag_92\n    /* \"#utility.yul\":4263:4269   */\n  dup3\n    /* \"#utility.yul\":4255:4261   */\n  dup3\n    /* \"#utility.yul\":4249:4253   */\n  dup6\n    /* \"#utility.yul\":4203:4270   */\n  tag_34\n  jump\t// in\ntag_92:\n    /* \"#utility.yul\":4297:4298   */\n  0x00\n    /* \"#utility.yul\":4321:4325   */\n  0x20\n    /* \"#utility.yul\":4308:4325   */\n  swap1\n  pop\n    /* \"#utility.yul\":4353:4355   */\n  0x1f\n    /* \"#utility.yul\":4345:4351   */\n  dup4\n    /* \"#utility.yul\":4342:4356   */\n  gt\n    /* \"#utility.yul\":4370:4371   */\n  0x01\n    /* \"#utility.yul\":4365:4983   */\n  dup2\n  eq\n  tag_94\n  jumpi\n    /* \"#utility.yul\":5027:5028   */\n  0x00\n    /* \"#utility.yul\":5044:5050   */\n  dup5\n    /* \"#utility.yul\":5041:5118   */\n  iszero\n  tag_95\n  jumpi\n    /* \"#utility.yul\":5093:5102   */\n  dup3\n    /* \"#utility.yul\":5088:5091   */\n  dup8\n    /* \"#utility.yul\":5084:5103   */\n  add\n    /* \"#utility.yul\":5078:5104   */\n  mload\n    /* \"#utility.yul\":5069:5104   */\n  swap1\n  pop\n    /* \"#utility.yul\":5041:5118   */\ntag_95:\n    /* \"#utility.yul\":5144:5211   */\n  tag_96\n    /* \"#utility.yul\":5204:5210   */\n  dup6\n    /* \"#utility.yul\":5197:5202   */\n  dup3\n    /* \"#utility.yul\":5144:5211   */\n  tag_37\n  jump\t// in\ntag_96:\n    /* \"#utility.yul\":5138:5142   */\n  dup7\n    /* \"#utility.yul\":5131:5212   */\n  sstore\n    /* \"#utility.yul\":5000:5222   */\n  pop\n    /* \"#utility.yul\":4335:5222   */\n  jump(tag_93)\n    /* \"#utility.yul\":4365:4983   */\ntag_94:\n    /* \"#utility.yul\":4417:4421   */\n  0x1f\n    /* \"#utility.yul\":4413:4422   */\n  not\n    /* \"#utility.yul\":4405:4411   */\n  dup5\n    /* \"#utility.yul\":4401:4423   */\n  and\n    /* \"#utility.yul\":4451:4488   */\n  tag_97\n    /* \"#utility.yul\":4483:4487   */\n  dup7\n    /* \"#utility.yul\":4451:4488   */\n  tag_22\n  jump\t// in\ntag_97:\n    /* \"#utility.yul\":4510:4511   */\n  0x00\n    /* \"#utility.yul\":4524:4732   */\ntag_98:\n    /* \"#utility.yul\":4538:4545   */\n  dup3\n    /* \"#utility.yul\":4535:4536   */\n  dup2\n    /* \"#utility.yul\":4532:4546   */\n  lt\n    /* \"#utility.yul\":4524:4732   */\n  iszero\n  tag_100\n  jumpi\n    /* \"#utility.yul\":4617:4626   */\n  dup5\n    /* \"#utility.yul\":4612:4615   */\n  dup10\n    /* \"#utility.yul\":4608:4627   */\n  add\n    /* \"#utility.yul\":4602:4628   */\n  mload\n    /* \"#utility.yul\":4594:4600   */\n  dup3\n    /* \"#utility.yul\":4587:4629   */\n  sstore\n    /* \"#utility.yul\":4668:4669   */\n  0x01\n    /* \"#utility.yul\":4660:4666   */\n  dup3\n    /* \"#utility.yul\":4656:4670   */\n  add\n    /* \"#utility.yul\":4646:4670   */\n  swap2\n  pop\n    /* \"#utility.yul\":4715:4717   */\n  0x20\n    /* \"#utility.yul\":4704:4713   */\n  dup6\n    /* \"#utility.yul\":4700:4718   */\n  add\n    /* \"#utility.yul\":4687:4718   */\n  swap5\n  pop\n    /* \"#utility.yul\":4561:4565   */\n  0x20\n    /* \"#utility.yul\":4558:4559   */\n  dup2\n    /* \"#utility.yul\":4554:4566   */\n  add\n    /* \"#utility.yul\":4549:4566   */\n  swap1\n  pop\n    /* \"#utility.yul\":4524:4732   */\n  jump(tag_98)\ntag_100:\n    /* \"#utility.yul\":4760:4766   */\n  dup7\n    /* \"#utility.yul\":4751:4758   */\n  dup4\n    /* \"#utility.yul\":4748:4767   */\n  lt\n    /* \"#utility.yul\":4745:4924   */\n  iszero\n  tag_101\n  jumpi\n    /* \"#utility.yul\":4818:4827   */\n  dup5\n    /* \"#utility.yul\":4813:4816   */\n  dup10\n    /* \"#utility.yul\":4809:4828   */\n  add\n    /* \"#utility.yul\":4803:4829   */\n  mload\n    /* \"#utility.yul\":4861:4909   */\n  tag_102\n    /* \"#utility.yul\":4903:4907   */\n  0x1f\n    /* \"#utility.yul\":4895:4901   */\n  dup10\n    /* \"#utility.yul\":4891:4908   */\n  and\n    /* \"#utility.yul\":4880:4889   */\n  dup3\n    /* \"#utility.yul\":4861:4909   */\n  tag_36\n  jump\t// in\ntag_102:\n    /* \"#utility.yul\":4853:4859   */\n  dup4\n    /* \"#utility.yul\":4846:4910   */\n  sstore\n    /* \"#utility.yul\":4768:4924   */\n  pop\n    /* \"#utility.yul\":4745:4924   */\ntag_101:\n    /* \"#utility.yul\":4970:4971   */\n  0x01\n    /* \"#utility.yul\":4966:4967   */\n  0x02\n    /* \"#utility.yul\":4958:4964   */\n  dup9\n    /* \"#utility.yul\":4954:4968   */\n  mul\n    /* \"#utility.yul\":4950:4972   */\n  add\n    /* \"#utility.yul\":4944:4948   */\n  dup9\n    /* \"#utility.yul\":4937:4973   */\n  sstore\n    /* \"#utility.yul\":4372:4983   */\n  pop\n  pop\n  pop\n    /* \"#utility.yul\":4335:5222   */\ntag_93:\n  pop\n    /* \"#utility.yul\":3925:5228   */\n  pop\n  pop\n  pop\n    /* \"#utility.yul\":3833:5228   */\n  pop\n  pop\n  jump\t// out\n    /* \"#utility.yul\":5234:5360   */\ntag_38:\n    /* \"#utility.yul\":5271:5278   */\n  0x00\n    /* \"#utility.yul\":5311:5353   */\n  0xffffffffffffffffffffffffffffffffffffffff\n    /* \"#utility.yul\":5304:5309   */\n  dup3\n    /* \"#utility.yul\":5300:5354   */\n  and\n    /* \"#utility.yul\":5289:5354   */\n  swap1\n  pop\n    /* \"#utility.yul\":5234:5360   */\n  swap2\n  swap1\n  pop\n  jump\t// out\n    /* \"#utility.yul\":5366:5462   */\ntag_39:\n    /* \"#utility.yul\":5403:5410   */\n  0x00\n    /* \"#utility.yul\":5432:5456   */\n  tag_105\n    /* \"#utility.yul\":5450:5455   */\n  dup3\n    /* \"#utility.yul\":5432:5456   */\n  tag_38\n  jump\t// in\ntag_105:\n    /* \"#utility.yul\":5421:5456   */\n  swap1\n  pop\n    /* \"#utility.yul\":5366:5462   */\n  swap2\n  swap1\n  pop\n  jump\t// out\n    /* \"#utility.yul\":5468:5586   */\ntag_40:\n    /* \"#utility.yul\":5555:5579   */\n  tag_107\n    /* \"#utility.yul\":5573:5578   */\n  dup2\n    /* \"#utility.yul\":5555:5579   */\n  tag_39\n  jump\t// in\ntag_107:\n    /* \"#utility.yul\":5550:5553   */\n  dup3\n    /* \"#utility.yul\":5543:5580   */\n  mstore\n    /* \"#utility.yul\":5468:5586   */\n  pop\n  pop\n  jump\t// out\n    /* \"#utility.yul\":5592:5814   */\ntag_12:\n    /* \"#utility.yul\":5685:5689   */\n  0x00\n    /* \"#utility.yul\":5723:5725   */\n  0x20\n    /* \"#utility.yul\":5712:5721   */\n  dup3\n    /* \"#utility.yul\":5708:5726   */\n  add\n    /* \"#utility.yul\":5700:5726   */\n  swap1\n  pop\n    /* \"#utility.yul\":5736:5807   */\n  tag_109\n    /* \"#utility.yul\":5804:5805   */\n  0x00\n    /* \"#utility.yul\":5793:5802   */\n  dup4\n    /* \"#utility.yul\":5789:5806   */\n  add\n    /* \"#utility.yul\":5780:5786   */\n  dup5\n    /* \"#utility.yul\":5736:5807   */\n  tag_40\n  jump\t// in\ntag_109:\n    /* \"#utility.yul\":5592:5814   */\n  swap3\n  swap2\n  pop\n  pop\n  jump\t// out\n    /* \"FruitToken.sol\":168:612  contract FruitToken is ERC20, Ownable {... */\ntag_16:\n  dataSize(sub_0)\n  dup1\n  dataOffset(sub_0)\n  0x00\n  codecopy\n  0x00\n  return\nstop\n\nsub_0: assembly {\n        /* \"FruitToken.sol\":168:612  contract FruitToken is ERC20, Ownable {... */\n      mstore(0x40, 0x80)\n      callvalue\n      dup1\n      iszero\n      tag_1\n      jumpi\n      0x00\n      dup1\n      revert\n    tag_1:\n      pop\n      jumpi(tag_2, lt(calldatasize, 0x04))\n      shr(0xe0, calldataload(0x00))\n      dup1\n      0x70a08231\n      gt\n      tag_18\n      jumpi\n      dup1\n      0x9742ca46\n      gt\n      tag_19\n      jumpi\n      dup1\n      0x9742ca46\n      eq\n      tag_14\n      jumpi\n      dup1\n      0xa9059cbb\n      eq\n      tag_15\n      jumpi\n      dup1\n      0xdd62ed3e\n      eq\n      tag_16\n      jumpi\n      dup1\n      0xf2fde38b\n      eq\n      tag_17\n      jumpi\n      jump(tag_2)\n    tag_19:\n      dup1\n      0x70a08231\n      eq\n      tag_10\n      jumpi\n      dup1\n      0x715018a6\n      eq\n      tag_11\n      jumpi\n      dup1\n      0x8da5cb5b\n      eq\n      tag_12\n      jumpi\n      dup1\n      0x95d89b41\n      eq\n      tag_13\n      jumpi\n      jump(tag_2)\n    tag_18:\n      dup1\n      0x18160ddd\n      gt\n      tag_20\n      jumpi\n      dup1\n      0x18160ddd\n      eq\n      tag_6\n      jumpi\n      dup1\n      0x23b872dd\n      eq\n      tag_7\n      jumpi\n      dup1\n      0x313ce567\n      eq\n      tag_8\n      jumpi\n      dup1\n      0x40c10f19\n      eq\n      tag_9\n      jumpi\n      jump(tag_2)\n    tag_20:\n      dup1\n      0x06fdde03\n      eq\n      tag_3\n      jumpi\n      dup1\n      0x07546172\n      eq\n      tag_4\n      jumpi\n      dup1\n      0x095ea7b3\n      eq\n      tag_5\n      jumpi\n    tag_2:\n      0x00\n      dup1\n      revert\n        /* \"@openzeppelin/contracts/token/ERC20/ERC20.sol\":1779:1868  function name() public view virtual returns (string memory) {... */\n    tag_3:\n      tag_21\n      tag_22\n      jump\t// in\n    tag_21:\n      mload(0x40)\n      tag_23\n      swap2\n      swap1\n      tag_24\n      jump\t// in\n    tag_23:\n      mload(0x40)\n      dup1\n      swap2\n      sub\n      swap1\n      return\n        /* \"FruitToken.sol\":212:233  address public minter */\n    tag_4:\n      tag_25\n      tag_26\n      jump\t// in\n    tag_25:\n      mload(0x40)\n      tag_27\n      swap2\n      swap1\n      tag_28\n      jump\t// in\n    tag_27:\n      mload(0x40)\n      dup1\n      swap2\n      sub\n      swap1\n      return\n        /* \"@openzeppelin/contracts/token/ERC20/ERC20.sol\":3998:4184  function approve(address spender, uint256 value) public virtual returns (bool) {... */\n    tag_5:\n      tag_29\n      0x04\n      dup1\n      calldatasize\n      sub\n      dup2\n      add\n      swap1\n      tag_30\n      swap2\n      swap1\n      tag_31\n      jump\t// in\n    tag_30:\n      tag_32\n      jump\t// in\n    tag_29:\n      mload(0x40)\n      tag_33\n      swap2\n      swap1\n      tag_34\n      jump\t// in\n    tag_33:\n      mload(0x40)\n      dup1\n      swap2\n      sub\n      swap1\n      return\n        /* \"@openzeppelin/contracts/token/ERC20/ERC20.sol\":2849:2946  function totalSupply() public view virtual returns (uint256) {... */\n    tag_6:\n      tag_35\n      tag_36\n      jump\t// in\n    tag_35:\n      mload(0x40)\n      tag_37\n      swap2\n      swap1\n      tag_38\n      jump\t// in\n    tag_37:\n      mload(0x40)\n      dup1\n      swap2\n      sub\n      swap1\n      return\n        /* \"@openzeppelin/contracts/token/ERC20/ERC20.sol\":4776:5020  function transferFrom(address from, address to, uint256 value) public virtual returns (bool) {... */\n    tag_7:\n      tag_39\n      0x04\n      dup1\n      calldatasize\n      sub\n      dup2\n      add\n      swap1\n      tag_40\n      swap2\n      swap1\n      tag_41\n      jump\t// in\n    tag_40:\n      tag_42\n      jump\t// in\n    tag_39:\n      mload(0x40)\n      tag_43\n      swap2\n      swap1\n      tag_34\n      jump\t// in\n    tag_43:\n      mload(0x40)\n      dup1\n      swap2\n      sub\n      swap1\n      return\n        /* \"@openzeppelin/contracts/token/ERC20/ERC20.sol\":2707:2789  function decimals() public view virtual returns (uint8) {... */\n    tag_8:\n      tag_44\n      tag_45\n      jump\t// in\n    tag_44:\n      mload(0x40)\n      tag_46\n      swap2\n      swap1\n      tag_47\n      jump\t// in\n    tag_46:\n      mload(0x40)\n      dup1\n      swap2\n      sub\n      swap1\n      return\n        /* \"FruitToken.sol\":517:610  function mint(address to, uint amount) external onlyMinter {... */\n    tag_9:\n      tag_48\n      0x04\n      dup1\n      calldatasize\n      sub\n      dup2\n      add\n      swap1\n      tag_49\n      swap2\n      swap1\n      tag_31\n      jump\t// in\n    tag_49:\n      tag_50\n      jump\t// in\n    tag_48:\n      stop\n        /* \"@openzeppelin/contracts/token/ERC20/ERC20.sol\":3004:3120  function balanceOf(address account) public view virtual returns (uint256) {... */\n    tag_10:\n      tag_51\n      0x04\n      dup1\n      calldatasize\n      sub\n      dup2\n      add\n      swap1\n      tag_52\n      swap2\n      swap1\n      tag_53\n      jump\t// in\n    tag_52:\n      tag_54\n      jump\t// in\n    tag_51:\n      mload(0x40)\n      tag_55\n      swap2\n      swap1\n      tag_38\n      jump\t// in\n    tag_55:\n      mload(0x40)\n      dup1\n      swap2\n      sub\n      swap1\n      return\n        /* \"@openzeppelin/contracts/access/Ownable.sol\":2293:2394  function renounceOwnership() public virtual onlyOwner {... */\n    tag_11:\n      tag_56\n      tag_57\n      jump\t// in\n    tag_56:\n      stop\n        /* \"@openzeppelin/contracts/access/Ownable.sol\":1638:1723  function owner() public view virtual returns (address) {... */\n    tag_12:\n      tag_58\n      tag_59\n      jump\t// in\n    tag_58:\n      mload(0x40)\n      tag_60\n      swap2\n      swap1\n      tag_28\n      jump\t// in\n    tag_60:\n      mload(0x40)\n      dup1\n      swap2\n      sub\n      swap1\n      return\n        /* \"@openzeppelin/contracts/token/ERC20/ERC20.sol\":1981:2074  function symbol() public view virtual returns (string memory) {... */\n    tag_13:\n      tag_61\n      tag_62\n      jump\t// in\n    tag_61:\n      mload(0x40)\n      tag_63\n      swap2\n      swap1\n      tag_24\n      jump\t// in\n    tag_63:\n      mload(0x40)\n      dup1\n      swap2\n      sub\n      swap1\n      return\n        /* \"FruitToken.sol\":312:399  function setMiner(address _minter) external onlyOwner {... */\n    tag_14:\n      tag_64\n      0x04\n      dup1\n      calldatasize\n      sub\n      dup2\n      add\n      swap1\n      tag_65\n      swap2\n      swap1\n      tag_53\n      jump\t// in\n    tag_65:\n      tag_66\n      jump\t// in\n    tag_64:\n      stop\n        /* \"@openzeppelin/contracts/token/ERC20/ERC20.sol\":3315:3493  function transfer(address to, uint256 value) public virtual returns (bool) {... */\n    tag_15:\n      tag_67\n      0x04\n      dup1\n      calldatasize\n      sub\n      dup2\n      add\n      swap1\n      tag_68\n      swap2\n      swap1\n      tag_31\n      jump\t// in\n    tag_68:\n      tag_69\n      jump\t// in\n    tag_67:\n      mload(0x40)\n      tag_70\n      swap2\n      swap1\n      tag_34\n      jump\t// in\n    tag_70:\n      mload(0x40)\n      dup1\n      swap2\n      sub\n      swap1\n      return\n        /* \"@openzeppelin/contracts/token/ERC20/ERC20.sol\":3551:3691  function allowance(address owner, address spender) public view virtual returns (uint256) {... */\n    tag_16:\n      tag_71\n      0x04\n      dup1\n      calldatasize\n      sub\n      dup2\n      add\n      swap1\n      tag_72\n      swap2\n      swap1\n      tag_73\n      jump\t// in\n    tag_72:\n      tag_74\n      jump\t// in\n    tag_71:\n      mload(0x40)\n      tag_75\n      swap2\n      swap1\n      tag_38\n      jump\t// in\n    tag_75:\n      mload(0x40)\n      dup1\n      swap2\n      sub\n      swap1\n      return\n        /* \"@openzeppelin/contracts/access/Ownable.sol\":2543:2758  function transferOwnership(address newOwner) public virtual onlyOwner {... */\n    tag_17:\n      tag_76\n      0x04\n      dup1\n      calldatasize\n      sub\n      dup2\n      add\n      swap1\n      tag_77\n      swap2\n      swap1\n      tag_53\n      jump\t// in\n    tag_77:\n      tag_78\n      jump\t// in\n    tag_76:\n      stop\n        /* \"@openzeppelin/contracts/token/ERC20/ERC20.sol\":1779:1868  function name() public view virtual returns (string memory) {... */\n    tag_22:\n        /* \"@openzeppelin/contracts/token/ERC20/ERC20.sol\":1824:1837  string memory */\n      0x60\n        /* \"@openzeppelin/contracts/token/ERC20/ERC20.sol\":1856:1861  _name */\n      0x03\n        /* \"@openzeppelin/contracts/token/ERC20/ERC20.sol\":1849:1861  return _name */\n      dup1\n      sload\n      tag_80\n      swap1\n      tag_81\n      jump\t// in\n    tag_80:\n      dup1\n      0x1f\n      add\n      0x20\n      dup1\n      swap2\n      div\n      mul\n      0x20\n      add\n      mload(0x40)\n      swap1\n      dup2\n      add\n      0x40\n      mstore\n      dup1\n      swap3\n      swap2\n      swap1\n      dup2\n      dup2\n      mstore\n      0x20\n      add\n      dup3\n      dup1\n      sload\n      tag_82\n      swap1\n      tag_81\n      jump\t// in\n    tag_82:\n      dup1\n      iszero\n      tag_83\n      jumpi\n      dup1\n      0x1f\n      lt\n      tag_84\n      jumpi\n      0x0100\n      dup1\n      dup4\n      sload\n      div\n      mul\n      dup4\n      mstore\n      swap2\n      0x20\n      add\n      swap2\n      jump(tag_83)\n    tag_84:\n      dup3\n      add\n      swap2\n      swap1\n      0x00\n      mstore\n      keccak256(0x00, 0x20)\n      swap1\n    tag_85:\n      dup2\n      sload\n      dup2\n      mstore\n      swap1\n      0x01\n      add\n      swap1\n      0x20\n      add\n      dup1\n      dup4\n      gt\n      tag_85\n      jumpi\n      dup3\n      swap1\n      sub\n      0x1f\n      and\n      dup3\n      add\n      swap2\n    tag_83:\n      pop\n      pop\n      pop\n      pop\n      pop\n      swap1\n      pop\n        /* \"@openzeppelin/contracts/token/ERC20/ERC20.sol\":1779:1868  function name() public view virtual returns (string memory) {... */\n      swap1\n      jump\t// out\n        /* \"FruitToken.sol\":212:233  address public minter */\n    tag_26:\n      0x06\n      0x00\n      swap1\n      sload\n      swap1\n      0x0100\n      exp\n      swap1\n      div\n      0xffffffffffffffffffffffffffffffffffffffff\n      and\n      dup2\n      jump\t// out\n        /* \"@openzeppelin/contracts/token/ERC20/ERC20.sol\":3998:4184  function approve(address spender, uint256 value) public virtual returns (bool) {... */\n    tag_32:\n        /* \"@openzeppelin/contracts/token/ERC20/ERC20.sol\":4071:4075  bool */\n      0x00\n        /* \"@openzeppelin/contracts/token/ERC20/ERC20.sol\":4087:4100  address owner */\n      dup1\n        /* \"@openzeppelin/contracts/token/ERC20/ERC20.sol\":4103:4115  _msgSender() */\n      tag_87\n        /* \"@openzeppelin/contracts/token/ERC20/ERC20.sol\":4103:4113  _msgSender */\n      tag_88\n        /* \"@openzeppelin/contracts/token/ERC20/ERC20.sol\":4103:4115  _msgSender() */\n      jump\t// in\n    tag_87:\n        /* \"@openzeppelin/contracts/token/ERC20/ERC20.sol\":4087:4115  address owner = _msgSender() */\n      swap1\n      pop\n        /* \"@openzeppelin/contracts/token/ERC20/ERC20.sol\":4125:4156  _approve(owner, spender, value) */\n      tag_89\n        /* \"@openzeppelin/contracts/token/ERC20/ERC20.sol\":4134:4139  owner */\n      dup2\n        /* \"@openzeppelin/contracts/token/ERC20/ERC20.sol\":4141:4148  spender */\n      dup6\n        /* \"@openzeppelin/contracts/token/ERC20/ERC20.sol\":4150:4155  value */\n      dup6\n        /* \"@openzeppelin/contracts/token/ERC20/ERC20.sol\":4125:4133  _approve */\n      tag_90\n        /* \"@openzeppelin/contracts/token/ERC20/ERC20.sol\":4125:4156  _approve(owner, spender, value) */\n      jump\t// in\n    tag_89:\n        /* \"@openzeppelin/contracts/token/ERC20/ERC20.sol\":4173:4177  true */\n      0x01\n        /* \"@openzeppelin/contracts/token/ERC20/ERC20.sol\":4166:4177  return true */\n      swap2\n      pop\n      pop\n        /* \"@openzeppelin/contracts/token/ERC20/ERC20.sol\":3998:4184  function approve(address spender, uint256 value) public virtual returns (bool) {... */\n      swap3\n      swap2\n      pop\n      pop\n      jump\t// out\n        /* \"@openzeppelin/contracts/token/ERC20/ERC20.sol\":2849:2946  function totalSupply() public view virtual returns (uint256) {... */\n    tag_36:\n        /* \"@openzeppelin/contracts/token/ERC20/ERC20.sol\":2901:2908  uint256 */\n      0x00\n        /* \"@openzeppelin/contracts/token/ERC20/ERC20.sol\":2927:2939  _totalSupply */\n      sload(0x02)\n        /* \"@openzeppelin/contracts/token/ERC20/ERC20.sol\":2920:2939  return _totalSupply */\n      swap1\n      pop\n        /* \"@openzeppelin/contracts/token/ERC20/ERC20.sol\":2849:2946  function totalSupply() public view virtual returns (uint256) {... */\n      swap1\n      jump\t// out\n        /* \"@openzeppelin/contracts/token/ERC20/ERC20.sol\":4776:5020  function transferFrom(address from, address to, uint256 value) public virtual returns (bool) {... */\n    tag_42:\n        /* \"@openzeppelin/contracts/token/ERC20/ERC20.sol\":4863:4867  bool */\n      0x00\n        /* \"@openzeppelin/contracts/token/ERC20/ERC20.sol\":4879:4894  address spender */\n      dup1\n        /* \"@openzeppelin/contracts/token/ERC20/ERC20.sol\":4897:4909  _msgSender() */\n      tag_93\n        /* \"@openzeppelin/contracts/token/ERC20/ERC20.sol\":4897:4907  _msgSender */\n      tag_88\n        /* \"@openzeppelin/contracts/token/ERC20/ERC20.sol\":4897:4909  _msgSender() */\n      jump\t// in\n    tag_93:\n        /* \"@openzeppelin/contracts/token/ERC20/ERC20.sol\":4879:4909  address spender = _msgSender() */\n      swap1\n      pop\n        /* \"@openzeppelin/contracts/token/ERC20/ERC20.sol\":4919:4956  _spendAllowance(from, spender, value) */\n      tag_94\n        /* \"@openzeppelin/contracts/token/ERC20/ERC20.sol\":4935:4939  from */\n      dup6\n        /* \"@openzeppelin/contracts/token/ERC20/ERC20.sol\":4941:4948  spender */\n      dup3\n        /* \"@openzeppelin/contracts/token/ERC20/ERC20.sol\":4950:4955  value */\n      dup6\n        /* \"@openzeppelin/contracts/token/ERC20/ERC20.sol\":4919:4934  _spendAllowance */\n      tag_95\n        /* \"@openzeppelin/contracts/token/ERC20/ERC20.sol\":4919:4956  _spendAllowance(from, spender, value) */\n      jump\t// in\n    tag_94:\n        /* \"@openzeppelin/contracts/token/ERC20/ERC20.sol\":4966:4992  _transfer(from, to, value) */\n      tag_96\n        /* \"@openzeppelin/contracts/token/ERC20/ERC20.sol\":4976:4980  from */\n      dup6\n        /* \"@openzeppelin/contracts/token/ERC20/ERC20.sol\":4982:4984  to */\n      dup6\n        /* \"@openzeppelin/contracts/token/ERC20/ERC20.sol\":4986:4991  value */\n      dup6\n        /* \"@openzeppelin/contracts/token/ERC20/ERC20.sol\":4966:4975  _transfer */\n      tag_97\n        /* \"@openzeppelin/contracts/token/ERC20/ERC20.sol\":4966:4992  _transfer(from, to, value) */\n      jump\t// in\n    tag_96:\n        /* \"@openzeppelin/contracts/token/ERC20/ERC20.sol\":5009:5013  true */\n      0x01\n        /* \"@openzeppelin/contracts/token/ERC20/ERC20.sol\":5002:5013  return true */\n      swap2\n      pop\n      pop\n        /* \"@openzeppelin/contracts/token/ERC20/ERC20.sol\":4776:5020  function transferFrom(address from, address to, uint256 value) public virtual returns (bool) {... */\n      swap4\n      swap3\n      pop\n      pop\n      pop\n      jump\t// out\n        /* \"@openzeppelin/contracts/token/ERC20/ERC20.sol\":2707:2789  function decimals() public view virtual returns (uint8) {... */\n    tag_45:\n        /* \"@openzeppelin/contracts/token/ERC20/ERC20.sol\":2756:2761  uint8 */\n      0x00\n        /* \"@openzeppelin/contracts/token/ERC20/ERC20.sol\":2780:2782  18 */\n      0x12\n        /* \"@openzeppelin/contracts/token/ERC20/ERC20.sol\":2773:2782  return 18 */\n      swap1\n      pop\n        /* \"@openzeppelin/contracts/token/ERC20/ERC20.sol\":2707:2789  function decimals() public view virtual returns (uint8) {... */\n      swap1\n      jump\t// out\n        /* \"FruitToken.sol\":517:610  function mint(address to, uint amount) external onlyMinter {... */\n    tag_50:\n        /* \"FruitToken.sol\":459:465  minter */\n      0x06\n      0x00\n      swap1\n      sload\n      swap1\n      0x0100\n      exp\n      swap1\n      div\n      0xffffffffffffffffffffffffffffffffffffffff\n      and\n        /* \"FruitToken.sol\":445:465  msg.sender == minter */\n      0xffffffffffffffffffffffffffffffffffffffff\n      and\n        /* \"FruitToken.sol\":445:455  msg.sender */\n      caller\n        /* \"FruitToken.sol\":445:465  msg.sender == minter */\n      0xffffffffffffffffffffffffffffffffffffffff\n      and\n      eq\n        /* \"FruitToken.sol\":437:493  require(msg.sender == minter, \"Only minter can do this\") */\n      tag_100\n      jumpi\n      mload(0x40)\n      0x08c379a000000000000000000000000000000000000000000000000000000000\n      dup2\n      mstore\n      0x04\n      add\n      tag_101\n      swap1\n      tag_102\n      jump\t// in\n    tag_101:\n      mload(0x40)\n      dup1\n      swap2\n      sub\n      swap1\n      revert\n    tag_100:\n        /* \"FruitToken.sol\":586:603  _mint(to, amount) */\n      tag_104\n        /* \"FruitToken.sol\":592:594  to */\n      dup3\n        /* \"FruitToken.sol\":596:602  amount */\n      dup3\n        /* \"FruitToken.sol\":586:591  _mint */\n      tag_105\n        /* \"FruitToken.sol\":586:603  _mint(to, amount) */\n      jump\t// in\n    tag_104:\n        /* \"FruitToken.sol\":517:610  function mint(address to, uint amount) external onlyMinter {... */\n      pop\n      pop\n      jump\t// out\n        /* \"@openzeppelin/contracts/token/ERC20/ERC20.sol\":3004:3120  function balanceOf(address account) public view virtual returns (uint256) {... */\n    tag_54:\n        /* \"@openzeppelin/contracts/token/ERC20/ERC20.sol\":3069:3076  uint256 */\n      0x00\n        /* \"@openzeppelin/contracts/token/ERC20/ERC20.sol\":3095:3104  _balances */\n      dup1\n        /* \"@openzeppelin/contracts/token/ERC20/ERC20.sol\":3095:3113  _balances[account] */\n      0x00\n        /* \"@openzeppelin/contracts/token/ERC20/ERC20.sol\":3105:3112  account */\n      dup4\n        /* \"@openzeppelin/contracts/token/ERC20/ERC20.sol\":3095:3113  _balances[account] */\n      0xffffffffffffffffffffffffffffffffffffffff\n      and\n      0xffffffffffffffffffffffffffffffffffffffff\n      and\n      dup2\n      mstore\n      0x20\n      add\n      swap1\n      dup2\n      mstore\n      0x20\n      add\n      0x00\n      keccak256\n      sload\n        /* \"@openzeppelin/contracts/token/ERC20/ERC20.sol\":3088:3113  return _balances[account] */\n      swap1\n      pop\n        /* \"@openzeppelin/contracts/token/ERC20/ERC20.sol\":3004:3120  function balanceOf(address account) public view virtual returns (uint256) {... */\n      swap2\n      swap1\n      pop\n      jump\t// out\n        /* \"@openzeppelin/contracts/access/Ownable.sol\":2293:2394  function renounceOwnership() public virtual onlyOwner {... */\n    tag_57:\n        /* \"@openzeppelin/contracts/access/Ownable.sol\":1531:1544  _checkOwner() */\n      tag_108\n        /* \"@openzeppelin/contracts/access/Ownable.sol\":1531:1542  _checkOwner */\n      tag_109\n        /* \"@openzeppelin/contracts/access/Ownable.sol\":1531:1544  _checkOwner() */\n      jump\t// in\n    tag_108:\n        /* \"@openzeppelin/contracts/access/Ownable.sol\":2357:2387  _transferOwnership(address(0)) */\n      tag_111\n        /* \"@openzeppelin/contracts/access/Ownable.sol\":2384:2385  0 */\n      0x00\n        /* \"@openzeppelin/contracts/access/Ownable.sol\":2357:2375  _transferOwnership */\n      tag_112\n        /* \"@openzeppelin/contracts/access/Ownable.sol\":2357:2387  _transferOwnership(address(0)) */\n      jump\t// in\n    tag_111:\n        /* \"@openzeppelin/contracts/access/Ownable.sol\":2293:2394  function renounceOwnership() public virtual onlyOwner {... */\n      jump\t// out\n        /* \"@openzeppelin/contracts/access/Ownable.sol\":1638:1723  function owner() public view virtual returns (address) {... */\n    tag_59:\n        /* \"@openzeppelin/contracts/access/Ownable.sol\":1684:1691  address */\n      0x00\n        /* \"@openzeppelin/contracts/access/Ownable.sol\":1710:1716  _owner */\n      0x05\n      0x00\n      swap1\n      sload\n      swap1\n      0x0100\n      exp\n      swap1\n      div\n      0xffffffffffffffffffffffffffffffffffffffff\n      and\n        /* \"@openzeppelin/contracts/access/Ownable.sol\":1703:1716  return _owner */\n      swap1\n      pop\n        /* \"@openzeppelin/contracts/access/Ownable.sol\":1638:1723  function owner() public view virtual returns (address) {... */\n      swap1\n      jump\t// out\n        /* \"@openzeppelin/contracts/token/ERC20/ERC20.sol\":1981:2074  function symbol() public view virtual returns (string memory) {... */\n    tag_62:\n        /* \"@openzeppelin/contracts/token/ERC20/ERC20.sol\":2028:2041  string memory */\n      0x60\n        /* \"@openzeppelin/contracts/token/ERC20/ERC20.sol\":2060:2067  _symbol */\n      0x04\n        /* \"@openzeppelin/contracts/token/ERC20/ERC20.sol\":2053:2067  return _symbol */\n      dup1\n      sload\n      tag_115\n      swap1\n      tag_81\n      jump\t// in\n    tag_115:\n      dup1\n      0x1f\n      add\n      0x20\n      dup1\n      swap2\n      div\n      mul\n      0x20\n      add\n      mload(0x40)\n      swap1\n      dup2\n      add\n      0x40\n      mstore\n      dup1\n      swap3\n      swap2\n      swap1\n      dup2\n      dup2\n      mstore\n      0x20\n      add\n      dup3\n      dup1\n      sload\n      tag_116\n      swap1\n      tag_81\n      jump\t// in\n    tag_116:\n      dup1\n      iszero\n      tag_117\n      jumpi\n      dup1\n      0x1f\n      lt\n      tag_118\n      jumpi\n      0x0100\n      dup1\n      dup4\n      sload\n      div\n      mul\n      dup4\n      mstore\n      swap2\n      0x20\n      add\n      swap2\n      jump(tag_117)\n    tag_118:\n      dup3\n      add\n      swap2\n      swap1\n      0x00\n      mstore\n      keccak256(0x00, 0x20)\n      swap1\n    tag_119:\n      dup2\n      sload\n      dup2\n      mstore\n      swap1\n      0x01\n      add\n      swap1\n      0x20\n      add\n      dup1\n      dup4\n      gt\n      tag_119\n      jumpi\n      dup3\n      swap1\n      sub\n      0x1f\n      and\n      dup3\n      add\n      swap2\n    tag_117:\n      pop\n      pop\n      pop\n      pop\n      pop\n      swap1\n      pop\n        /* \"@openzeppelin/contracts/token/ERC20/ERC20.sol\":1981:2074  function symbol() public view virtual returns (string memory) {... */\n      swap1\n      jump\t// out\n        /* \"FruitToken.sol\":312:399  function setMiner(address _minter) external onlyOwner {... */\n    tag_66:\n        /* \"@openzeppelin/contracts/access/Ownable.sol\":1531:1544  _checkOwner() */\n      tag_121\n        /* \"@openzeppelin/contracts/access/Ownable.sol\":1531:1542  _checkOwner */\n      tag_109\n        /* \"@openzeppelin/contracts/access/Ownable.sol\":1531:1544  _checkOwner() */\n      jump\t// in\n    tag_121:\n        /* \"FruitToken.sol\":385:392  _minter */\n      dup1\n        /* \"FruitToken.sol\":376:382  minter */\n      0x06\n      0x00\n        /* \"FruitToken.sol\":376:392  minter = _minter */\n      0x0100\n      exp\n      dup2\n      sload\n      dup2\n      0xffffffffffffffffffffffffffffffffffffffff\n      mul\n      not\n      and\n      swap1\n      dup4\n      0xffffffffffffffffffffffffffffffffffffffff\n      and\n      mul\n      or\n      swap1\n      sstore\n      pop\n        /* \"FruitToken.sol\":312:399  function setMiner(address _minter) external onlyOwner {... */\n      pop\n      jump\t// out\n        /* \"@openzeppelin/contracts/token/ERC20/ERC20.sol\":3315:3493  function transfer(address to, uint256 value) public virtual returns (bool) {... */\n    tag_69:\n        /* \"@openzeppelin/contracts/token/ERC20/ERC20.sol\":3384:3388  bool */\n      0x00\n        /* \"@openzeppelin/contracts/token/ERC20/ERC20.sol\":3400:3413  address owner */\n      dup1\n        /* \"@openzeppelin/contracts/token/ERC20/ERC20.sol\":3416:3428  _msgSender() */\n      tag_124\n        /* \"@openzeppelin/contracts/token/ERC20/ERC20.sol\":3416:3426  _msgSender */\n      tag_88\n        /* \"@openzeppelin/contracts/token/ERC20/ERC20.sol\":3416:3428  _msgSender() */\n      jump\t// in\n    tag_124:\n        /* \"@openzeppelin/contracts/token/ERC20/ERC20.sol\":3400:3428  address owner = _msgSender() */\n      swap1\n      pop\n        /* \"@openzeppelin/contracts/token/ERC20/ERC20.sol\":3438:3465  _transfer(owner, to, value) */\n      tag_125\n        /* \"@openzeppelin/contracts/token/ERC20/ERC20.sol\":3448:3453  owner */\n      dup2\n        /* \"@openzeppelin/contracts/token/ERC20/ERC20.sol\":3455:3457  to */\n      dup6\n        /* \"@openzeppelin/contracts/token/ERC20/ERC20.sol\":3459:3464  value */\n      dup6\n        /* \"@openzeppelin/contracts/token/ERC20/ERC20.sol\":3438:3447  _transfer */\n      tag_97\n        /* \"@openzeppelin/contracts/token/ERC20/ERC20.sol\":3438:3465  _transfer(owner, to, value) */\n      jump\t// in\n    tag_125:\n        /* \"@openzeppelin/contracts/token/ERC20/ERC20.sol\":3482:3486  true */\n      0x01\n        /* \"@openzeppelin/contracts/token/ERC20/ERC20.sol\":3475:3486  return true */\n      swap2\n      pop\n      pop\n        /* \"@openzeppelin/contracts/token/ERC20/ERC20.sol\":3315:3493  function transfer(address to, uint256 value) public virtual returns (bool) {... */\n      swap3\n      swap2\n      pop\n      pop\n      jump\t// out\n        /* \"@openzeppelin/contracts/token/ERC20/ERC20.sol\":3551:3691  function allowance(address owner, address spender) public view virtual returns (uint256) {... */\n    tag_74:\n        /* \"@openzeppelin/contracts/token/ERC20/ERC20.sol\":3631:3638  uint256 */\n      0x00\n        /* \"@openzeppelin/contracts/token/ERC20/ERC20.sol\":3657:3668  _allowances */\n      0x01\n        /* \"@openzeppelin/contracts/token/ERC20/ERC20.sol\":3657:3675  _allowances[owner] */\n      0x00\n        /* \"@openzeppelin/contracts/token/ERC20/ERC20.sol\":3669:3674  owner */\n      dup5\n        /* \"@openzeppelin/contracts/token/ERC20/ERC20.sol\":3657:3675  _allowances[owner] */\n      0xffffffffffffffffffffffffffffffffffffffff\n      and\n      0xffffffffffffffffffffffffffffffffffffffff\n      and\n      dup2\n      mstore\n      0x20\n      add\n      swap1\n      dup2\n      mstore\n      0x20\n      add\n      0x00\n      keccak256\n        /* \"@openzeppelin/contracts/token/ERC20/ERC20.sol\":3657:3684  _allowances[owner][spender] */\n      0x00\n        /* \"@openzeppelin/contracts/token/ERC20/ERC20.sol\":3676:3683  spender */\n      dup4\n        /* \"@openzeppelin/contracts/token/ERC20/ERC20.sol\":3657:3684  _allowances[owner][spender] */\n      0xffffffffffffffffffffffffffffffffffffffff\n      and\n      0xffffffffffffffffffffffffffffffffffffffff\n      and\n      dup2\n      mstore\n      0x20\n      add\n      swap1\n      dup2\n      mstore\n      0x20\n      add\n      0x00\n      keccak256\n      sload\n        /* \"@openzeppelin/contracts/token/ERC20/ERC20.sol\":3650:3684  return _allowances[owner][spender] */\n      swap1\n      pop\n        /* \"@openzeppelin/contracts/token/ERC20/ERC20.sol\":3551:3691  function allowance(address owner, address spender) public view virtual returns (uint256) {... */\n      swap3\n      swap2\n      pop\n      pop\n      jump\t// out\n        /* \"@openzeppelin/contracts/access/Ownable.sol\":2543:2758  function transferOwnership(address newOwner) public virtual onlyOwner {... */\n    tag_78:\n        /* \"@openzeppelin/contracts/access/Ownable.sol\":1531:1544  _checkOwner() */\n      tag_128\n        /* \"@openzeppelin/contracts/access/Ownable.sol\":1531:1542  _checkOwner */\n      tag_109\n        /* \"@openzeppelin/contracts/access/Ownable.sol\":1531:1544  _checkOwner() */\n      jump\t// in\n    tag_128:\n        /* \"@openzeppelin/contracts/access/Ownable.sol\":2647:2648  0 */\n      0x00\n        /* \"@openzeppelin/contracts/access/Ownable.sol\":2627:2649  newOwner == address(0) */\n      0xffffffffffffffffffffffffffffffffffffffff\n      and\n        /* \"@openzeppelin/contracts/access/Ownable.sol\":2627:2635  newOwner */\n      dup2\n        /* \"@openzeppelin/contracts/access/Ownable.sol\":2627:2649  newOwner == address(0) */\n      0xffffffffffffffffffffffffffffffffffffffff\n      and\n      sub\n        /* \"@openzeppelin/contracts/access/Ownable.sol\":2623:2714  if (newOwner == address(0)) {... */\n      tag_130\n      jumpi\n        /* \"@openzeppelin/contracts/access/Ownable.sol\":2700:2701  0 */\n      0x00\n        /* \"@openzeppelin/contracts/access/Ownable.sol\":2672:2703  OwnableInvalidOwner(address(0)) */\n      mload(0x40)\n      0x1e4fbdf700000000000000000000000000000000000000000000000000000000\n      dup2\n      mstore\n      0x04\n      add\n      tag_131\n      swap2\n      swap1\n      tag_28\n      jump\t// in\n    tag_131:\n      mload(0x40)\n      dup1\n      swap2\n      sub\n      swap1\n      revert\n        /* \"@openzeppelin/contracts/access/Ownable.sol\":2623:2714  if (newOwner == address(0)) {... */\n    tag_130:\n        /* \"@openzeppelin/contracts/access/Ownable.sol\":2723:2751  _transferOwnership(newOwner) */\n      tag_132\n        /* \"@openzeppelin/contracts/access/Ownable.sol\":2742:2750  newOwner */\n      dup2\n        /* \"@openzeppelin/contracts/access/Ownable.sol\":2723:2741  _transferOwnership */\n      tag_112\n        /* \"@openzeppelin/contracts/access/Ownable.sol\":2723:2751  _transferOwnership(newOwner) */\n      jump\t// in\n    tag_132:\n        /* \"@openzeppelin/contracts/access/Ownable.sol\":2543:2758  function transferOwnership(address newOwner) public virtual onlyOwner {... */\n      pop\n      jump\t// out\n        /* \"@openzeppelin/contracts/utils/Context.sol\":656:752  function _msgSender() internal view virtual returns (address) {... */\n    tag_88:\n        /* \"@openzeppelin/contracts/utils/Context.sol\":709:716  address */\n      0x00\n        /* \"@openzeppelin/contracts/utils/Context.sol\":735:745  msg.sender */\n      caller\n        /* \"@openzeppelin/contracts/utils/Context.sol\":728:745  return msg.sender */\n      swap1\n      pop\n        /* \"@openzeppelin/contracts/utils/Context.sol\":656:752  function _msgSender() internal view virtual returns (address) {... */\n      swap1\n      jump\t// out\n        /* \"@openzeppelin/contracts/token/ERC20/ERC20.sol\":8726:8854  function _approve(address owner, address spender, uint256 value) internal {... */\n    tag_90:\n        /* \"@openzeppelin/contracts/token/ERC20/ERC20.sol\":8810:8847  _approve(owner, spender, value, true) */\n      tag_135\n        /* \"@openzeppelin/contracts/token/ERC20/ERC20.sol\":8819:8824  owner */\n      dup4\n        /* \"@openzeppelin/contracts/token/ERC20/ERC20.sol\":8826:8833  spender */\n      dup4\n        /* \"@openzeppelin/contracts/token/ERC20/ERC20.sol\":8835:8840  value */\n      dup4\n        /* \"@openzeppelin/contracts/token/ERC20/ERC20.sol\":8842:8846  true */\n      0x01\n        /* \"@openzeppelin/contracts/token/ERC20/ERC20.sol\":8810:8818  _approve */\n      tag_136\n        /* \"@openzeppelin/contracts/token/ERC20/ERC20.sol\":8810:8847  _approve(owner, spender, value, true) */\n      jump\t// in\n    tag_135:\n        /* \"@openzeppelin/contracts/token/ERC20/ERC20.sol\":8726:8854  function _approve(address owner, address spender, uint256 value) internal {... */\n      pop\n      pop\n      pop\n      jump\t// out\n        /* \"@openzeppelin/contracts/token/ERC20/ERC20.sol\":10415:10891  function _spendAllowance(address owner, address spender, uint256 value) internal virtual {... */\n    tag_95:\n        /* \"@openzeppelin/contracts/token/ERC20/ERC20.sol\":10514:10538  uint256 currentAllowance */\n      0x00\n        /* \"@openzeppelin/contracts/token/ERC20/ERC20.sol\":10541:10566  allowance(owner, spender) */\n      tag_138\n        /* \"@openzeppelin/contracts/token/ERC20/ERC20.sol\":10551:10556  owner */\n      dup5\n        /* \"@openzeppelin/contracts/token/ERC20/ERC20.sol\":10558:10565  spender */\n      dup5\n        /* \"@openzeppelin/contracts/token/ERC20/ERC20.sol\":10541:10550  allowance */\n      tag_74\n        /* \"@openzeppelin/contracts/token/ERC20/ERC20.sol\":10541:10566  allowance(owner, spender) */\n      jump\t// in\n    tag_138:\n        /* \"@openzeppelin/contracts/token/ERC20/ERC20.sol\":10514:10566  uint256 currentAllowance = allowance(owner, spender) */\n      swap1\n      pop\n        /* \"@openzeppelin/contracts/token/ERC20/ERC20.sol\":10599:10616  type(uint256).max */\n      0xffffffffffffffffffffffffffffffffffffffffffffffffffffffffffffffff\n        /* \"@openzeppelin/contracts/token/ERC20/ERC20.sol\":10580:10596  currentAllowance */\n      dup2\n        /* \"@openzeppelin/contracts/token/ERC20/ERC20.sol\":10580:10616  currentAllowance < type(uint256).max */\n      lt\n        /* \"@openzeppelin/contracts/token/ERC20/ERC20.sol\":10576:10885  if (currentAllowance < type(uint256).max) {... */\n      iszero\n      tag_139\n      jumpi\n        /* \"@openzeppelin/contracts/token/ERC20/ERC20.sol\":10655:10660  value */\n      dup2\n        /* \"@openzeppelin/contracts/token/ERC20/ERC20.sol\":10636:10652  currentAllowance */\n      dup2\n        /* \"@openzeppelin/contracts/token/ERC20/ERC20.sol\":10636:10660  currentAllowance < value */\n      lt\n        /* \"@openzeppelin/contracts/token/ERC20/ERC20.sol\":10632:10762  if (currentAllowance < value) {... */\n      iszero\n      tag_140\n      jumpi\n        /* \"@openzeppelin/contracts/token/ERC20/ERC20.sol\":10714:10721  spender */\n      dup3\n        /* \"@openzeppelin/contracts/token/ERC20/ERC20.sol\":10723:10739  currentAllowance */\n      dup2\n        /* \"@openzeppelin/contracts/token/ERC20/ERC20.sol\":10741:10746  value */\n      dup4\n        /* \"@openzeppelin/contracts/token/ERC20/ERC20.sol\":10687:10747  ERC20InsufficientAllowance(spender, currentAllowance, value) */\n      mload(0x40)\n      0xfb8f41b200000000000000000000000000000000000000000000000000000000\n      dup2\n      mstore\n      0x04\n      add\n      tag_141\n      swap4\n      swap3\n      swap2\n      swap1\n      tag_142\n      jump\t// in\n    tag_141:\n      mload(0x40)\n      dup1\n      swap2\n      sub\n      swap1\n      revert\n        /* \"@openzeppelin/contracts/token/ERC20/ERC20.sol\":10632:10762  if (currentAllowance < value) {... */\n    tag_140:\n        /* \"@openzeppelin/contracts/token/ERC20/ERC20.sol\":10803:10860  _approve(owner, spender, currentAllowance - value, false) */\n      tag_143\n        /* \"@openzeppelin/contracts/token/ERC20/ERC20.sol\":10812:10817  owner */\n      dup5\n        /* \"@openzeppelin/contracts/token/ERC20/ERC20.sol\":10819:10826  spender */\n      dup5\n        /* \"@openzeppelin/contracts/token/ERC20/ERC20.sol\":10847:10852  value */\n      dup5\n        /* \"@openzeppelin/contracts/token/ERC20/ERC20.sol\":10828:10844  currentAllowance */\n      dup5\n        /* \"@openzeppelin/contracts/token/ERC20/ERC20.sol\":10828:10852  currentAllowance - value */\n      sub\n        /* \"@openzeppelin/contracts/token/ERC20/ERC20.sol\":10854:10859  false */\n      0x00\n        /* \"@openzeppelin/contracts/token/ERC20/ERC20.sol\":10803:10811  _approve */\n      tag_136\n        /* \"@openzeppelin/contracts/token/ERC20/ERC20.sol\":10803:10860  _approve(owner, spender, currentAllowance - value, false) */\n      jump\t// in\n    tag_143:\n        /* \"@openzeppelin/contracts/token/ERC20/ERC20.sol\":10576:10885  if (currentAllowance < type(uint256).max) {... */\n    tag_139:\n        /* \"@openzeppelin/contracts/token/ERC20/ERC20.sol\":10504:10891  {... */\n      pop\n        /* \"@openzeppelin/contracts/token/ERC20/ERC20.sol\":10415:10891  function _spendAllowance(address owner, address spender, uint256 value) internal virtual {... */\n      pop\n      pop\n      pop\n      jump\t// out\n        /* \"@openzeppelin/contracts/token/ERC20/ERC20.sol\":5393:5693  function _transfer(address from, address to, uint256 value) internal {... */\n    tag_97:\n        /* \"@openzeppelin/contracts/token/ERC20/ERC20.sol\":5492:5493  0 */\n      0x00\n        /* \"@openzeppelin/contracts/token/ERC20/ERC20.sol\":5476:5494  from == address(0) */\n      0xffffffffffffffffffffffffffffffffffffffff\n      and\n        /* \"@openzeppelin/contracts/token/ERC20/ERC20.sol\":5476:5480  from */\n      dup4\n        /* \"@openzeppelin/contracts/token/ERC20/ERC20.sol\":5476:5494  from == address(0) */\n      0xffffffffffffffffffffffffffffffffffffffff\n      and\n      sub\n        /* \"@openzeppelin/contracts/token/ERC20/ERC20.sol\":5472:5558  if (from == address(0)) {... */\n      tag_145\n      jumpi\n        /* \"@openzeppelin/contracts/token/ERC20/ERC20.sol\":5544:5545  0 */\n      0x00\n        /* \"@openzeppelin/contracts/token/ERC20/ERC20.sol\":5517:5547  ERC20InvalidSender(address(0)) */\n      mload(0x40)\n      0x96c6fd1e00000000000000000000000000000000000000000000000000000000\n      dup2\n      mstore\n      0x04\n      add\n      tag_146\n      swap2\n      swap1\n      tag_28\n      jump\t// in\n    tag_146:\n      mload(0x40)\n      dup1\n      swap2\n      sub\n      swap1\n      revert\n        /* \"@openzeppelin/contracts/token/ERC20/ERC20.sol\":5472:5558  if (from == address(0)) {... */\n    tag_145:\n        /* \"@openzeppelin/contracts/token/ERC20/ERC20.sol\":5585:5586  0 */\n      0x00\n        /* \"@openzeppelin/contracts/token/ERC20/ERC20.sol\":5571:5587  to == address(0) */\n      0xffffffffffffffffffffffffffffffffffffffff\n      and\n        /* \"@openzeppelin/contracts/token/ERC20/ERC20.sol\":5571:5573  to */\n      dup3\n        /* \"@openzeppelin/contracts/token/ERC20/ERC20.sol\":5571:5587  to == address(0) */\n      0xffffffffffffffffffffffffffffffffffffffff\n      and\n      sub\n        /* \"@openzeppelin/contracts/token/ERC20/ERC20.sol\":5567:5653  if (to == address(0)) {... */\n      tag_147\n      jumpi\n        /* \"@openzeppelin/contracts/token/ERC20/ERC20.sol\":5639:5640  0 */\n      0x00\n        /* \"@openzeppelin/contracts/token/ERC20/ERC20.sol\":5610:5642  ERC20InvalidReceiver(address(0)) */\n      mload(0x40)\n      0xec442f0500000000000000000000000000000000000000000000000000000000\n      dup2\n      mstore\n      0x04\n      add\n      tag_148\n      swap2\n      swap1\n      tag_28\n      jump\t// in\n    tag_148:\n      mload(0x40)\n      dup1\n      swap2\n      sub\n      swap1\n      revert\n        /* \"@openzeppelin/contracts/token/ERC20/ERC20.sol\":5567:5653  if (to == address(0)) {... */\n    tag_147:\n        /* \"@openzeppelin/contracts/token/ERC20/ERC20.sol\":5662:5686  _update(from, to, value) */\n      tag_149\n        /* \"@openzeppelin/contracts/token/ERC20/ERC20.sol\":5670:5674  from */\n      dup4\n        /* \"@openzeppelin/contracts/token/ERC20/ERC20.sol\":5676:5678  to */\n      dup4\n        /* \"@openzeppelin/contracts/token/ERC20/ERC20.sol\":5680:5685  value */\n      dup4\n        /* \"@openzeppelin/contracts/token/ERC20/ERC20.sol\":5662:5669  _update */\n      tag_150\n        /* \"@openzeppelin/contracts/token/ERC20/ERC20.sol\":5662:5686  _update(from, to, value) */\n      jump\t// in\n    tag_149:\n        /* \"@openzeppelin/contracts/token/ERC20/ERC20.sol\":5393:5693  function _transfer(address from, address to, uint256 value) internal {... */\n      pop\n      pop\n      pop\n      jump\t// out\n        /* \"@openzeppelin/contracts/token/ERC20/ERC20.sol\":7458:7666  function _mint(address account, uint256 value) internal {... */\n    tag_105:\n        /* \"@openzeppelin/contracts/token/ERC20/ERC20.sol\":7547:7548  0 */\n      0x00\n        /* \"@openzeppelin/contracts/token/ERC20/ERC20.sol\":7528:7549  account == address(0) */\n      0xffffffffffffffffffffffffffffffffffffffff\n      and\n        /* \"@openzeppelin/contracts/token/ERC20/ERC20.sol\":7528:7535  account */\n      dup3\n        /* \"@openzeppelin/contracts/token/ERC20/ERC20.sol\":7528:7549  account == address(0) */\n      0xffffffffffffffffffffffffffffffffffffffff\n      and\n      sub\n        /* \"@openzeppelin/contracts/token/ERC20/ERC20.sol\":7524:7615  if (account == address(0)) {... */\n      tag_152\n      jumpi\n        /* \"@openzeppelin/contracts/token/ERC20/ERC20.sol\":7601:7602  0 */\n      0x00\n        /* \"@openzeppelin/contracts/token/ERC20/ERC20.sol\":7572:7604  ERC20InvalidReceiver(address(0)) */\n      mload(0x40)\n      0xec442f0500000000000000000000000000000000000000000000000000000000\n      dup2\n      mstore\n      0x04\n      add\n      tag_153\n      swap2\n      swap1\n      tag_28\n      jump\t// in\n    tag_153:\n      mload(0x40)\n      dup1\n      swap2\n      sub\n      swap1\n      revert\n        /* \"@openzeppelin/contracts/token/ERC20/ERC20.sol\":7524:7615  if (account == address(0)) {... */\n    tag_152:\n        /* \"@openzeppelin/contracts/token/ERC20/ERC20.sol\":7624:7659  _update(address(0), account, value) */\n      tag_154\n        /* \"@openzeppelin/contracts/token/ERC20/ERC20.sol\":7640:7641  0 */\n      0x00\n        /* \"@openzeppelin/contracts/token/ERC20/ERC20.sol\":7644:7651  account */\n      dup4\n        /* \"@openzeppelin/contracts/token/ERC20/ERC20.sol\":7653:7658  value */\n      dup4\n        /* \"@openzeppelin/contracts/token/ERC20/ERC20.sol\":7624:7631  _update */\n      tag_150\n        /* \"@openzeppelin/contracts/token/ERC20/ERC20.sol\":7624:7659  _update(address(0), account, value) */\n      jump\t// in\n    tag_154:\n        /* \"@openzeppelin/contracts/token/ERC20/ERC20.sol\":7458:7666  function _mint(address account, uint256 value) internal {... */\n      pop\n      pop\n      jump\t// out\n        /* \"@openzeppelin/contracts/access/Ownable.sol\":1796:1958  function _checkOwner() internal view virtual {... */\n    tag_109:\n        /* \"@openzeppelin/contracts/access/Ownable.sol\":1866:1878  _msgSender() */\n      tag_156\n        /* \"@openzeppelin/contracts/access/Ownable.sol\":1866:1876  _msgSender */\n      tag_88\n        /* \"@openzeppelin/contracts/access/Ownable.sol\":1866:1878  _msgSender() */\n      jump\t// in\n    tag_156:\n        /* \"@openzeppelin/contracts/access/Ownable.sol\":1855:1878  owner() != _msgSender() */\n      0xffffffffffffffffffffffffffffffffffffffff\n      and\n        /* \"@openzeppelin/contracts/access/Ownable.sol\":1855:1862  owner() */\n      tag_157\n        /* \"@openzeppelin/contracts/access/Ownable.sol\":1855:1860  owner */\n      tag_59\n        /* \"@openzeppelin/contracts/access/Ownable.sol\":1855:1862  owner() */\n      jump\t// in\n    tag_157:\n        /* \"@openzeppelin/contracts/access/Ownable.sol\":1855:1878  owner() != _msgSender() */\n      0xffffffffffffffffffffffffffffffffffffffff\n      and\n      eq\n        /* \"@openzeppelin/contracts/access/Ownable.sol\":1851:1952  if (owner() != _msgSender()) {... */\n      tag_158\n      jumpi\n        /* \"@openzeppelin/contracts/access/Ownable.sol\":1928:1940  _msgSender() */\n      tag_159\n        /* \"@openzeppelin/contracts/access/Ownable.sol\":1928:1938  _msgSender */\n      tag_88\n        /* \"@openzeppelin/contracts/access/Ownable.sol\":1928:1940  _msgSender() */\n      jump\t// in\n    tag_159:\n        /* \"@openzeppelin/contracts/access/Ownable.sol\":1901:1941  OwnableUnauthorizedAccount(_msgSender()) */\n      mload(0x40)\n      0x118cdaa700000000000000000000000000000000000000000000000000000000\n      dup2\n      mstore\n      0x04\n      add\n      tag_160\n      swap2\n      swap1\n      tag_28\n      jump\t// in\n    tag_160:\n      mload(0x40)\n      dup1\n      swap2\n      sub\n      swap1\n      revert\n        /* \"@openzeppelin/contracts/access/Ownable.sol\":1851:1952  if (owner() != _msgSender()) {... */\n    tag_158:\n        /* \"@openzeppelin/contracts/access/Ownable.sol\":1796:1958  function _checkOwner() internal view virtual {... */\n      jump\t// out\n        /* \"@openzeppelin/contracts/access/Ownable.sol\":2912:3099  function _transferOwnership(address newOwner) internal virtual {... */\n    tag_112:\n        /* \"@openzeppelin/contracts/access/Ownable.sol\":2985:3001  address oldOwner */\n      0x00\n        /* \"@openzeppelin/contracts/access/Ownable.sol\":3004:3010  _owner */\n      0x05\n      0x00\n      swap1\n      sload\n      swap1\n      0x0100\n      exp\n      swap1\n      div\n      0xffffffffffffffffffffffffffffffffffffffff\n      and\n        /* \"@openzeppelin/contracts/access/Ownable.sol\":2985:3010  address oldOwner = _owner */\n      swap1\n      pop\n        /* \"@openzeppelin/contracts/access/Ownable.sol\":3029:3037  newOwner */\n      dup2\n        /* \"@openzeppelin/contracts/access/Ownable.sol\":3020:3026  _owner */\n      0x05\n      0x00\n        /* \"@openzeppelin/contracts/access/Ownable.sol\":3020:3037  _owner = newOwner */\n      0x0100\n      exp\n      dup2\n      sload\n      dup2\n      0xffffffffffffffffffffffffffffffffffffffff\n      mul\n      not\n      and\n      swap1\n      dup4\n      0xffffffffffffffffffffffffffffffffffffffff\n      and\n      mul\n      or\n      swap1\n      sstore\n      pop\n        /* \"@openzeppelin/contracts/access/Ownable.sol\":3083:3091  newOwner */\n      dup2\n        /* \"@openzeppelin/contracts/access/Ownable.sol\":3052:3092  OwnershipTransferred(oldOwner, newOwner) */\n      0xffffffffffffffffffffffffffffffffffffffff\n      and\n        /* \"@openzeppelin/contracts/access/Ownable.sol\":3073:3081  oldOwner */\n      dup2\n        /* \"@openzeppelin/contracts/access/Ownable.sol\":3052:3092  OwnershipTransferred(oldOwner, newOwner) */\n      0xffffffffffffffffffffffffffffffffffffffff\n      and\n      0x8be0079c531659141344cd1fd0a4f28419497f9722a3daafe3b4186f6b6457e0\n      mload(0x40)\n      mload(0x40)\n      dup1\n      swap2\n      sub\n      swap1\n      log3\n        /* \"@openzeppelin/contracts/access/Ownable.sol\":2975:3099  {... */\n      pop\n        /* \"@openzeppelin/contracts/access/Ownable.sol\":2912:3099  function _transferOwnership(address newOwner) internal virtual {... */\n      pop\n      jump\t// out\n        /* \"@openzeppelin/contracts/token/ERC20/ERC20.sol\":9701:10133  function _approve(address owner, address spender, uint256 value, bool emitEvent) internal virtual {... */\n    tag_136:\n        /* \"@openzeppelin/contracts/token/ERC20/ERC20.sol\":9830:9831  0 */\n      0x00\n        /* \"@openzeppelin/contracts/token/ERC20/ERC20.sol\":9813:9832  owner == address(0) */\n      0xffffffffffffffffffffffffffffffffffffffff\n      and\n        /* \"@openzeppelin/contracts/token/ERC20/ERC20.sol\":9813:9818  owner */\n      dup5\n        /* \"@openzeppelin/contracts/token/ERC20/ERC20.sol\":9813:9832  owner == address(0) */\n      0xffffffffffffffffffffffffffffffffffffffff\n      and\n      sub\n        /* \"@openzeppelin/contracts/token/ERC20/ERC20.sol\":9809:9898  if (owner == address(0)) {... */\n      tag_163\n      jumpi\n        /* \"@openzeppelin/contracts/token/ERC20/ERC20.sol\":9884:9885  0 */\n      0x00\n        /* \"@openzeppelin/contracts/token/ERC20/ERC20.sol\":9855:9887  ERC20InvalidApprover(address(0)) */\n      mload(0x40)\n      0xe602df0500000000000000000000000000000000000000000000000000000000\n      dup2\n      mstore\n      0x04\n      add\n      tag_164\n      swap2\n      swap1\n      tag_28\n      jump\t// in\n    tag_164:\n      mload(0x40)\n      dup1\n      swap2\n      sub\n      swap1\n      revert\n        /* \"@openzeppelin/contracts/token/ERC20/ERC20.sol\":9809:9898  if (owner == address(0)) {... */\n    tag_163:\n        /* \"@openzeppelin/contracts/token/ERC20/ERC20.sol\":9930:9931  0 */\n      0x00\n        /* \"@openzeppelin/contracts/token/ERC20/ERC20.sol\":9911:9932  spender == address(0) */\n      0xffffffffffffffffffffffffffffffffffffffff\n      and\n        /* \"@openzeppelin/contracts/token/ERC20/ERC20.sol\":9911:9918  spender */\n      dup4\n        /* \"@openzeppelin/contracts/token/ERC20/ERC20.sol\":9911:9932  spender == address(0) */\n      0xffffffffffffffffffffffffffffffffffffffff\n      and\n      sub\n        /* \"@openzeppelin/contracts/token/ERC20/ERC20.sol\":9907:9997  if (spender == address(0)) {... */\n      tag_165\n      jumpi\n        /* \"@openzeppelin/contracts/token/ERC20/ERC20.sol\":9983:9984  0 */\n      0x00\n        /* \"@openzeppelin/contracts/token/ERC20/ERC20.sol\":9955:9986  ERC20InvalidSpender(address(0)) */\n      mload(0x40)\n      0x94280d6200000000000000000000000000000000000000000000000000000000\n      dup2\n      mstore\n      0x04\n      add\n      tag_166\n      swap2\n      swap1\n      tag_28\n      jump\t// in\n    tag_166:\n      mload(0x40)\n      dup1\n      swap2\n      sub\n      swap1\n      revert\n        /* \"@openzeppelin/contracts/token/ERC20/ERC20.sol\":9907:9997  if (spender == address(0)) {... */\n    tag_165:\n        /* \"@openzeppelin/contracts/token/ERC20/ERC20.sol\":10036:10041  value */\n      dup2\n        /* \"@openzeppelin/contracts/token/ERC20/ERC20.sol\":10006:10017  _allowances */\n      0x01\n        /* \"@openzeppelin/contracts/token/ERC20/ERC20.sol\":10006:10024  _allowances[owner] */\n      0x00\n        /* \"@openzeppelin/contracts/token/ERC20/ERC20.sol\":10018:10023  owner */\n      dup7\n        /* \"@openzeppelin/contracts/token/ERC20/ERC20.sol\":10006:10024  _allowances[owner] */\n      0xffffffffffffffffffffffffffffffffffffffff\n      and\n      0xffffffffffffffffffffffffffffffffffffffff\n      and\n      dup2\n      mstore\n      0x20\n      add\n      swap1\n      dup2\n      mstore\n      0x20\n      add\n      0x00\n      keccak256\n        /* \"@openzeppelin/contracts/token/ERC20/ERC20.sol\":10006:10033  _allowances[owner][spender] */\n      0x00\n        /* \"@openzeppelin/contracts/token/ERC20/ERC20.sol\":10025:10032  spender */\n      dup6\n        /* \"@openzeppelin/contracts/token/ERC20/ERC20.sol\":10006:10033  _allowances[owner][spender] */\n      0xffffffffffffffffffffffffffffffffffffffff\n      and\n      0xffffffffffffffffffffffffffffffffffffffff\n      and\n      dup2\n      mstore\n      0x20\n      add\n      swap1\n      dup2\n      mstore\n      0x20\n      add\n      0x00\n      keccak256\n        /* \"@openzeppelin/contracts/token/ERC20/ERC20.sol\":10006:10041  _allowances[owner][spender] = value */\n      dup2\n      swap1\n      sstore\n      pop\n        /* \"@openzeppelin/contracts/token/ERC20/ERC20.sol\":10055:10064  emitEvent */\n      dup1\n        /* \"@openzeppelin/contracts/token/ERC20/ERC20.sol\":10051:10127  if (emitEvent) {... */\n      iszero\n      tag_167\n      jumpi\n        /* \"@openzeppelin/contracts/token/ERC20/ERC20.sol\":10101:10108  spender */\n      dup3\n        /* \"@openzeppelin/contracts/token/ERC20/ERC20.sol\":10085:10116  Approval(owner, spender, value) */\n      0xffffffffffffffffffffffffffffffffffffffff\n      and\n        /* \"@openzeppelin/contracts/token/ERC20/ERC20.sol\":10094:10099  owner */\n      dup5\n        /* \"@openzeppelin/contracts/token/ERC20/ERC20.sol\":10085:10116  Approval(owner, spender, value) */\n      0xffffffffffffffffffffffffffffffffffffffff\n      and\n      0x8c5be1e5ebec7d5bd14f71427d1e84f3dd0314c0f7b2291e5b200ac8c7c3b925\n        /* \"@openzeppelin/contracts/token/ERC20/ERC20.sol\":10110:10115  value */\n      dup5\n        /* \"@openzeppelin/contracts/token/ERC20/ERC20.sol\":10085:10116  Approval(owner, spender, value) */\n      mload(0x40)\n      tag_168\n      swap2\n      swap1\n      tag_38\n      jump\t// in\n    tag_168:\n      mload(0x40)\n      dup1\n      swap2\n      sub\n      swap1\n      log3\n        /* \"@openzeppelin/contracts/token/ERC20/ERC20.sol\":10051:10127  if (emitEvent) {... */\n    tag_167:\n        /* \"@openzeppelin/contracts/token/ERC20/ERC20.sol\":9701:10133  function _approve(address owner, address spender, uint256 value, bool emitEvent) internal virtual {... */\n      pop\n      pop\n      pop\n      pop\n      jump\t// out\n        /* \"@openzeppelin/contracts/token/ERC20/ERC20.sol\":6008:7115  function _update(address from, address to, uint256 value) internal virtual {... */\n    tag_150:\n        /* \"@openzeppelin/contracts/token/ERC20/ERC20.sol\":6113:6114  0 */\n      0x00\n        /* \"@openzeppelin/contracts/token/ERC20/ERC20.sol\":6097:6115  from == address(0) */\n      0xffffffffffffffffffffffffffffffffffffffff\n      and\n        /* \"@openzeppelin/contracts/token/ERC20/ERC20.sol\":6097:6101  from */\n      dup4\n        /* \"@openzeppelin/contracts/token/ERC20/ERC20.sol\":6097:6115  from == address(0) */\n      0xffffffffffffffffffffffffffffffffffffffff\n      and\n      sub\n        /* \"@openzeppelin/contracts/token/ERC20/ERC20.sol\":6093:6633  if (from == address(0)) {... */\n      tag_170\n      jumpi\n        /* \"@openzeppelin/contracts/token/ERC20/ERC20.sol\":6249:6254  value */\n      dup1\n        /* \"@openzeppelin/contracts/token/ERC20/ERC20.sol\":6233:6245  _totalSupply */\n      0x02\n      0x00\n        /* \"@openzeppelin/contracts/token/ERC20/ERC20.sol\":6233:6254  _totalSupply += value */\n      dup3\n      dup3\n      sload\n      tag_171\n      swap2\n      swap1\n      tag_172\n      jump\t// in\n    tag_171:\n      swap3\n      pop\n      pop\n      dup2\n      swap1\n      sstore\n      pop\n        /* \"@openzeppelin/contracts/token/ERC20/ERC20.sol\":6093:6633  if (from == address(0)) {... */\n      jump(tag_173)\n    tag_170:\n        /* \"@openzeppelin/contracts/token/ERC20/ERC20.sol\":6285:6304  uint256 fromBalance */\n      0x00\n        /* \"@openzeppelin/contracts/token/ERC20/ERC20.sol\":6307:6316  _balances */\n      dup1\n        /* \"@openzeppelin/contracts/token/ERC20/ERC20.sol\":6307:6322  _balances[from] */\n      0x00\n        /* \"@openzeppelin/contracts/token/ERC20/ERC20.sol\":6317:6321  from */\n      dup6\n        /* \"@openzeppelin/contracts/token/ERC20/ERC20.sol\":6307:6322  _balances[from] */\n      0xffffffffffffffffffffffffffffffffffffffff\n      and\n      0xffffffffffffffffffffffffffffffffffffffff\n      and\n      dup2\n      mstore\n      0x20\n      add\n      swap1\n      dup2\n      mstore\n      0x20\n      add\n      0x00\n      keccak256\n      sload\n        /* \"@openzeppelin/contracts/token/ERC20/ERC20.sol\":6285:6322  uint256 fromBalance = _balances[from] */\n      swap1\n      pop\n        /* \"@openzeppelin/contracts/token/ERC20/ERC20.sol\":6354:6359  value */\n      dup2\n        /* \"@openzeppelin/contracts/token/ERC20/ERC20.sol\":6340:6351  fromBalance */\n      dup2\n        /* \"@openzeppelin/contracts/token/ERC20/ERC20.sol\":6340:6359  fromBalance < value */\n      lt\n        /* \"@openzeppelin/contracts/token/ERC20/ERC20.sol\":6336:6451  if (fromBalance < value) {... */\n      iszero\n      tag_174\n      jumpi\n        /* \"@openzeppelin/contracts/token/ERC20/ERC20.sol\":6411:6415  from */\n      dup4\n        /* \"@openzeppelin/contracts/token/ERC20/ERC20.sol\":6417:6428  fromBalance */\n      dup2\n        /* \"@openzeppelin/contracts/token/ERC20/ERC20.sol\":6430:6435  value */\n      dup4\n        /* \"@openzeppelin/contracts/token/ERC20/ERC20.sol\":6386:6436  ERC20InsufficientBalance(from, fromBalance, value) */\n      mload(0x40)\n      0xe450d38c00000000000000000000000000000000000000000000000000000000\n      dup2\n      mstore\n      0x04\n      add\n      tag_175\n      swap4\n      swap3\n      swap2\n      swap1\n      tag_142\n      jump\t// in\n    tag_175:\n      mload(0x40)\n      dup1\n      swap2\n      sub\n      swap1\n      revert\n        /* \"@openzeppelin/contracts/token/ERC20/ERC20.sol\":6336:6451  if (fromBalance < value) {... */\n    tag_174:\n        /* \"@openzeppelin/contracts/token/ERC20/ERC20.sol\":6603:6608  value */\n      dup2\n        /* \"@openzeppelin/contracts/token/ERC20/ERC20.sol\":6589:6600  fromBalance */\n      dup2\n        /* \"@openzeppelin/contracts/token/ERC20/ERC20.sol\":6589:6608  fromBalance - value */\n      sub\n        /* \"@openzeppelin/contracts/token/ERC20/ERC20.sol\":6571:6580  _balances */\n      0x00\n        /* \"@openzeppelin/contracts/token/ERC20/ERC20.sol\":6571:6586  _balances[from] */\n      dup1\n        /* \"@openzeppelin/contracts/token/ERC20/ERC20.sol\":6581:6585  from */\n      dup7\n        /* \"@openzeppelin/contracts/token/ERC20/ERC20.sol\":6571:6586  _balances[from] */\n      0xffffffffffffffffffffffffffffffffffffffff\n      and\n      0xffffffffffffffffffffffffffffffffffffffff\n      and\n      dup2\n      mstore\n      0x20\n      add\n      swap1\n      dup2\n      mstore\n      0x20\n      add\n      0x00\n      keccak256\n        /* \"@openzeppelin/contracts/token/ERC20/ERC20.sol\":6571:6608  _balances[from] = fromBalance - value */\n      dup2\n      swap1\n      sstore\n      pop\n        /* \"@openzeppelin/contracts/token/ERC20/ERC20.sol\":6271:6633  {... */\n      pop\n        /* \"@openzeppelin/contracts/token/ERC20/ERC20.sol\":6093:6633  if (from == address(0)) {... */\n    tag_173:\n        /* \"@openzeppelin/contracts/token/ERC20/ERC20.sol\":6661:6662  0 */\n      0x00\n        /* \"@openzeppelin/contracts/token/ERC20/ERC20.sol\":6647:6663  to == address(0) */\n      0xffffffffffffffffffffffffffffffffffffffff\n      and\n        /* \"@openzeppelin/contracts/token/ERC20/ERC20.sol\":6647:6649  to */\n      dup3\n        /* \"@openzeppelin/contracts/token/ERC20/ERC20.sol\":6647:6663  to == address(0) */\n      0xffffffffffffffffffffffffffffffffffffffff\n      and\n      sub\n        /* \"@openzeppelin/contracts/token/ERC20/ERC20.sol\":6643:7068  if (to == address(0)) {... */\n      tag_176\n      jumpi\n        /* \"@openzeppelin/contracts/token/ERC20/ERC20.sol\":6826:6831  value */\n      dup1\n        /* \"@openzeppelin/contracts/token/ERC20/ERC20.sol\":6810:6822  _totalSupply */\n      0x02\n      0x00\n        /* \"@openzeppelin/contracts/token/ERC20/ERC20.sol\":6810:6831  _totalSupply -= value */\n      dup3\n      dup3\n      sload\n      sub\n      swap3\n      pop\n      pop\n      dup2\n      swap1\n      sstore\n      pop\n        /* \"@openzeppelin/contracts/token/ERC20/ERC20.sol\":6643:7068  if (to == address(0)) {... */\n      jump(tag_177)\n    tag_176:\n        /* \"@openzeppelin/contracts/token/ERC20/ERC20.sol\":7038:7043  value */\n      dup1\n        /* \"@openzeppelin/contracts/token/ERC20/ERC20.sol\":7021:7030  _balances */\n      0x00\n        /* \"@openzeppelin/contracts/token/ERC20/ERC20.sol\":7021:7034  _balances[to] */\n      dup1\n        /* \"@openzeppelin/contracts/token/ERC20/ERC20.sol\":7031:7033  to */\n      dup5\n        /* \"@openzeppelin/contracts/token/ERC20/ERC20.sol\":7021:7034  _balances[to] */\n      0xffffffffffffffffffffffffffffffffffffffff\n      and\n      0xffffffffffffffffffffffffffffffffffffffff\n      and\n      dup2\n      mstore\n      0x20\n      add\n      swap1\n      dup2\n      mstore\n      0x20\n      add\n      0x00\n      keccak256\n      0x00\n        /* \"@openzeppelin/contracts/token/ERC20/ERC20.sol\":7021:7043  _balances[to] += value */\n      dup3\n      dup3\n      sload\n      add\n      swap3\n      pop\n      pop\n      dup2\n      swap1\n      sstore\n      pop\n        /* \"@openzeppelin/contracts/token/ERC20/ERC20.sol\":6643:7068  if (to == address(0)) {... */\n    tag_177:\n        /* \"@openzeppelin/contracts/token/ERC20/ERC20.sol\":7098:7100  to */\n      dup2\n        /* \"@openzeppelin/contracts/token/ERC20/ERC20.sol\":7083:7108  Transfer(from, to, value) */\n      0xffffffffffffffffffffffffffffffffffffffff\n      and\n        /* \"@openzeppelin/contracts/token/ERC20/ERC20.sol\":7092:7096  from */\n      dup4\n        /* \"@openzeppelin/contracts/token/ERC20/ERC20.sol\":7083:7108  Transfer(from, to, value) */\n      0xffffffffffffffffffffffffffffffffffffffff\n      and\n      0xddf252ad1be2c89b69c2b068fc378daa952ba7f163c4a11628f55a4df523b3ef\n        /* \"@openzeppelin/contracts/token/ERC20/ERC20.sol\":7102:7107  value */\n      dup4\n        /* \"@openzeppelin/contracts/token/ERC20/ERC20.sol\":7083:7108  Transfer(from, to, value) */\n      mload(0x40)\n      tag_178\n      swap2\n      swap1\n      tag_38\n      jump\t// in\n    tag_178:\n      mload(0x40)\n      dup1\n      swap2\n      sub\n      swap1\n      log3\n        /* \"@openzeppelin/contracts/token/ERC20/ERC20.sol\":6008:7115  function _update(address from, address to, uint256 value) internal virtual {... */\n      pop\n      pop\n      pop\n      jump\t// out\n        /* \"#utility.yul\":7:106   */\n    tag_179:\n        /* \"#utility.yul\":59:65   */\n      0x00\n        /* \"#utility.yul\":93:98   */\n      dup2\n        /* \"#utility.yul\":87:99   */\n      mload\n        /* \"#utility.yul\":77:99   */\n      swap1\n      pop\n        /* \"#utility.yul\":7:106   */\n      swap2\n      swap1\n      pop\n      jump\t// out\n        /* \"#utility.yul\":112:281   */\n    tag_180:\n        /* \"#utility.yul\":196:207   */\n      0x00\n        /* \"#utility.yul\":230:236   */\n      dup3\n        /* \"#utility.yul\":225:228   */\n      dup3\n        /* \"#utility.yul\":218:237   */\n      mstore\n        /* \"#utility.yul\":270:274   */\n      0x20\n        /* \"#utility.yul\":265:268   */\n      dup3\n        /* \"#utility.yul\":261:275   */\n      add\n        /* \"#utility.yul\":246:275   */\n      swap1\n      pop\n        /* \"#utility.yul\":112:281   */\n      swap3\n      swap2\n      pop\n      pop\n      jump\t// out\n        /* \"#utility.yul\":287:426   */\n    tag_181:\n        /* \"#utility.yul\":376:382   */\n      dup3\n        /* \"#utility.yul\":371:374   */\n      dup2\n        /* \"#utility.yul\":366:369   */\n      dup4\n        /* \"#utility.yul\":360:383   */\n      mcopy\n        /* \"#utility.yul\":417:418   */\n      0x00\n        /* \"#utility.yul\":408:414   */\n      dup4\n        /* \"#utility.yul\":403:406   */\n      dup4\n        /* \"#utility.yul\":399:415   */\n      add\n        /* \"#utility.yul\":392:419   */\n      mstore\n        /* \"#utility.yul\":287:426   */\n      pop\n      pop\n      pop\n      jump\t// out\n        /* \"#utility.yul\":432:534   */\n    tag_182:\n        /* \"#utility.yul\":473:479   */\n      0x00\n        /* \"#utility.yul\":524:526   */\n      0x1f\n        /* \"#utility.yul\":520:527   */\n      not\n        /* \"#utility.yul\":515:517   */\n      0x1f\n        /* \"#utility.yul\":508:513   */\n      dup4\n        /* \"#utility.yul\":504:518   */\n      add\n        /* \"#utility.yul\":500:528   */\n      and\n        /* \"#utility.yul\":490:528   */\n      swap1\n      pop\n        /* \"#utility.yul\":432:534   */\n      swap2\n      swap1\n      pop\n      jump\t// out\n        /* \"#utility.yul\":540:917   */\n    tag_183:\n        /* \"#utility.yul\":628:631   */\n      0x00\n        /* \"#utility.yul\":656:695   */\n      tag_210\n        /* \"#utility.yul\":689:694   */\n      dup3\n        /* \"#utility.yul\":656:695   */\n      tag_179\n      jump\t// in\n    tag_210:\n        /* \"#utility.yul\":711:782   */\n      tag_211\n        /* \"#utility.yul\":775:781   */\n      dup2\n        /* \"#utility.yul\":770:773   */\n      dup6\n        /* \"#utility.yul\":711:782   */\n      tag_180\n      jump\t// in\n    tag_211:\n        /* \"#utility.yul\":704:782   */\n      swap4\n      pop\n        /* \"#utility.yul\":791:856   */\n      tag_212\n        /* \"#utility.yul\":849:855   */\n      dup2\n        /* \"#utility.yul\":844:847   */\n      dup6\n        /* \"#utility.yul\":837:841   */\n      0x20\n        /* \"#utility.yul\":830:835   */\n      dup7\n        /* \"#utility.yul\":826:842   */\n      add\n        /* \"#utility.yul\":791:856   */\n      tag_181\n      jump\t// in\n    tag_212:\n        /* \"#utility.yul\":881:910   */\n      tag_213\n        /* \"#utility.yul\":903:909   */\n      dup2\n        /* \"#utility.yul\":881:910   */\n      tag_182\n      jump\t// in\n    tag_213:\n        /* \"#utility.yul\":876:879   */\n      dup5\n        /* \"#utility.yul\":872:911   */\n      add\n        /* \"#utility.yul\":865:911   */\n      swap2\n      pop\n        /* \"#utility.yul\":632:917   */\n      pop\n        /* \"#utility.yul\":540:917   */\n      swap3\n      swap2\n      pop\n      pop\n      jump\t// out\n        /* \"#utility.yul\":923:1236   */\n    tag_24:\n        /* \"#utility.yul\":1036:1040   */\n      0x00\n        /* \"#utility.yul\":1074:1076   */\n      0x20\n        /* \"#utility.yul\":1063:1072   */\n      dup3\n        /* \"#utility.yul\":1059:1077   */\n      add\n        /* \"#utility.yul\":1051:1077   */\n      swap1\n      pop\n        /* \"#utility.yul\":1123:1132   */\n      dup2\n        /* \"#utility.yul\":1117:1121   */\n      dup2\n        /* \"#utility.yul\":1113:1133   */\n      sub\n        /* \"#utility.yul\":1109:1110   */\n      0x00\n        /* \"#utility.yul\":1098:1107   */\n      dup4\n        /* \"#utility.yul\":1094:1111   */\n      add\n        /* \"#utility.yul\":1087:1134   */\n      mstore\n        /* \"#utility.yul\":1151:1229   */\n      tag_215\n        /* \"#utility.yul\":1224:1228   */\n      dup2\n        /* \"#utility.yul\":1215:1221   */\n      dup5\n        /* \"#utility.yul\":1151:1229   */\n      tag_183\n      jump\t// in\n    tag_215:\n        /* \"#utility.yul\":1143:1229   */\n      swap1\n      pop\n        /* \"#utility.yul\":923:1236   */\n      swap3\n      swap2\n      pop\n      pop\n      jump\t// out\n        /* \"#utility.yul\":1242:1368   */\n    tag_184:\n        /* \"#utility.yul\":1279:1286   */\n      0x00\n        /* \"#utility.yul\":1319:1361   */\n      0xffffffffffffffffffffffffffffffffffffffff\n        /* \"#utility.yul\":1312:1317   */\n      dup3\n        /* \"#utility.yul\":1308:1362   */\n      and\n        /* \"#utility.yul\":1297:1362   */\n      swap1\n      pop\n        /* \"#utility.yul\":1242:1368   */\n      swap2\n      swap1\n      pop\n      jump\t// out\n        /* \"#utility.yul\":1374:1470   */\n    tag_185:\n        /* \"#utility.yul\":1411:1418   */\n      0x00\n        /* \"#utility.yul\":1440:1464   */\n      tag_218\n        /* \"#utility.yul\":1458:1463   */\n      dup3\n        /* \"#utility.yul\":1440:1464   */\n      tag_184\n      jump\t// in\n    tag_218:\n        /* \"#utility.yul\":1429:1464   */\n      swap1\n      pop\n        /* \"#utility.yul\":1374:1470   */\n      swap2\n      swap1\n      pop\n      jump\t// out\n        /* \"#utility.yul\":1476:1594   */\n    tag_186:\n        /* \"#utility.yul\":1563:1587   */\n      tag_220\n        /* \"#utility.yul\":1581:1586   */\n      dup2\n        /* \"#utility.yul\":1563:1587   */\n      tag_185\n      jump\t// in\n    tag_220:\n        /* \"#utility.yul\":1558:1561   */\n      dup3\n        /* \"#utility.yul\":1551:1588   */\n      mstore\n        /* \"#utility.yul\":1476:1594   */\n      pop\n      pop\n      jump\t// out\n        /* \"#utility.yul\":1600:1822   */\n    tag_28:\n        /* \"#utility.yul\":1693:1697   */\n      0x00\n        /* \"#utility.yul\":1731:1733   */\n      0x20\n        /* \"#utility.yul\":1720:1729   */\n      dup3\n        /* \"#utility.yul\":1716:1734   */\n      add\n        /* \"#utility.yul\":1708:1734   */\n      swap1\n      pop\n        /* \"#utility.yul\":1744:1815   */\n      tag_222\n        /* \"#utility.yul\":1812:1813   */\n      0x00\n        /* \"#utility.yul\":1801:1810   */\n      dup4\n        /* \"#utility.yul\":1797:1814   */\n      add\n        /* \"#utility.yul\":1788:1794   */\n      dup5\n        /* \"#utility.yul\":1744:1815   */\n      tag_186\n      jump\t// in\n    tag_222:\n        /* \"#utility.yul\":1600:1822   */\n      swap3\n      swap2\n      pop\n      pop\n      jump\t// out\n        /* \"#utility.yul\":1909:2026   */\n    tag_188:\n        /* \"#utility.yul\":2018:2019   */\n      0x00\n        /* \"#utility.yul\":2015:2016   */\n      dup1\n        /* \"#utility.yul\":2008:2020   */\n      revert\n        /* \"#utility.yul\":2155:2277   */\n    tag_190:\n        /* \"#utility.yul\":2228:2252   */\n      tag_227\n        /* \"#utility.yul\":2246:2251   */\n      dup2\n        /* \"#utility.yul\":2228:2252   */\n      tag_185\n      jump\t// in\n    tag_227:\n        /* \"#utility.yul\":2221:2226   */\n      dup2\n        /* \"#utility.yul\":2218:2253   */\n      eq\n        /* \"#utility.yul\":2208:2271   */\n      tag_228\n      jumpi\n        /* \"#utility.yul\":2267:2268   */\n      0x00\n        /* \"#utility.yul\":2264:2265   */\n      dup1\n        /* \"#utility.yul\":2257:2269   */\n      revert\n        /* \"#utility.yul\":2208:2271   */\n    tag_228:\n        /* \"#utility.yul\":2155:2277   */\n      pop\n      jump\t// out\n        /* \"#utility.yul\":2283:2422   */\n    tag_191:\n        /* \"#utility.yul\":2329:2334   */\n      0x00\n        /* \"#utility.yul\":2367:2373   */\n      dup2\n        /* \"#utility.yul\":2354:2374   */\n      calldataload\n        /* \"#utility.yul\":2345:2374   */\n      swap1\n      pop\n        /* \"#utility.yul\":2383:2416   */\n      tag_230\n        /* \"#utility.yul\":2410:2415   */\n      dup2\n        /* \"#utility.yul\":2383:2416   */\n      tag_190\n      jump\t// in\n    tag_230:\n        /* \"#utility.yul\":2283:2422   */\n      swap3\n      swap2\n      pop\n      pop\n      jump\t// out\n        /* \"#utility.yul\":2428:2505   */\n    tag_192:\n        /* \"#utility.yul\":2465:2472   */\n      0x00\n        /* \"#utility.yul\":2494:2499   */\n      dup2\n        /* \"#utility.yul\":2483:2499   */\n      swap1\n      pop\n        /* \"#utility.yul\":2428:2505   */\n      swap2\n      swap1\n      pop\n      jump\t// out\n        /* \"#utility.yul\":2511:2633   */\n    tag_193:\n        /* \"#utility.yul\":2584:2608   */\n      tag_233\n        /* \"#utility.yul\":2602:2607   */\n      dup2\n        /* \"#utility.yul\":2584:2608   */\n      tag_192\n      jump\t// in\n    tag_233:\n        /* \"#utility.yul\":2577:2582   */\n      dup2\n        /* \"#utility.yul\":2574:2609   */\n      eq\n        /* \"#utility.yul\":2564:2627   */\n      tag_234\n      jumpi\n        /* \"#utility.yul\":2623:2624   */\n      0x00\n        /* \"#utility.yul\":2620:2621   */\n      dup1\n        /* \"#utility.yul\":2613:2625   */\n      revert\n        /* \"#utility.yul\":2564:2627   */\n    tag_234:\n        /* \"#utility.yul\":2511:2633   */\n      pop\n      jump\t// out\n        /* \"#utility.yul\":2639:2778   */\n    tag_194:\n        /* \"#utility.yul\":2685:2690   */\n      0x00\n        /* \"#utility.yul\":2723:2729   */\n      dup2\n        /* \"#utility.yul\":2710:2730   */\n      calldataload\n        /* \"#utility.yul\":2701:2730   */\n      swap1\n      pop\n        /* \"#utility.yul\":2739:2772   */\n      tag_236\n        /* \"#utility.yul\":2766:2771   */\n      dup2\n        /* \"#utility.yul\":2739:2772   */\n      tag_193\n      jump\t// in\n    tag_236:\n        /* \"#utility.yul\":2639:2778   */\n      swap3\n      swap2\n      pop\n      pop\n      jump\t// out\n        /* \"#utility.yul\":2784:3258   */\n    tag_31:\n        /* \"#utility.yul\":2852:2858   */\n      0x00\n        /* \"#utility.yul\":2860:2866   */\n      dup1\n        /* \"#utility.yul\":2909:2911   */\n      0x40\n        /* \"#utility.yul\":2897:2906   */\n      dup4\n        /* \"#utility.yul\":2888:2895   */\n      dup6\n        /* \"#utility.yul\":2884:2907   */\n      sub\n        /* \"#utility.yul\":2880:2912   */\n      slt\n        /* \"#utility.yul\":2877:2996   */\n      iszero\n      tag_238\n      jumpi\n        /* \"#utility.yul\":2915:2994   */\n      tag_239\n      tag_188\n      jump\t// in\n    tag_239:\n        /* \"#utility.yul\":2877:2996   */\n    tag_238:\n        /* \"#utility.yul\":3035:3036   */\n      0x00\n        /* \"#utility.yul\":3060:3113   */\n      tag_240\n        /* \"#utility.yul\":3105:3112   */\n      dup6\n        /* \"#utility.yul\":3096:3102   */\n      dup3\n        /* \"#utility.yul\":3085:3094   */\n      dup7\n        /* \"#utility.yul\":3081:3103   */\n      add\n        /* \"#utility.yul\":3060:3113   */\n      tag_191\n      jump\t// in\n    tag_240:\n        /* \"#utility.yul\":3050:3113   */\n      swap3\n      pop\n        /* \"#utility.yul\":3006:3123   */\n      pop\n        /* \"#utility.yul\":3162:3164   */\n      0x20\n        /* \"#utility.yul\":3188:3241   */\n      tag_241\n        /* \"#utility.yul\":3233:3240   */\n      dup6\n        /* \"#utility.yul\":3224:3230   */\n      dup3\n        /* \"#utility.yul\":3213:3222   */\n      dup7\n        /* \"#utility.yul\":3209:3231   */\n      add\n        /* \"#utility.yul\":3188:3241   */\n      tag_194\n      jump\t// in\n    tag_241:\n        /* \"#utility.yul\":3178:3241   */\n      swap2\n      pop\n        /* \"#utility.yul\":3133:3251   */\n      pop\n        /* \"#utility.yul\":2784:3258   */\n      swap3\n      pop\n      swap3\n      swap1\n      pop\n      jump\t// out\n        /* \"#utility.yul\":3264:3354   */\n    tag_195:\n        /* \"#utility.yul\":3298:3305   */\n      0x00\n        /* \"#utility.yul\":3341:3346   */\n      dup2\n        /* \"#utility.yul\":3334:3347   */\n      iszero\n        /* \"#utility.yul\":3327:3348   */\n      iszero\n        /* \"#utility.yul\":3316:3348   */\n      swap1\n      pop\n        /* \"#utility.yul\":3264:3354   */\n      swap2\n      swap1\n      pop\n      jump\t// out\n        /* \"#utility.yul\":3360:3469   */\n    tag_196:\n        /* \"#utility.yul\":3441:3462   */\n      tag_244\n        /* \"#utility.yul\":3456:3461   */\n      dup2\n        /* \"#utility.yul\":3441:3462   */\n      tag_195\n      jump\t// in\n    tag_244:\n        /* \"#utility.yul\":3436:3439   */\n      dup3\n        /* \"#utility.yul\":3429:3463   */\n      mstore\n        /* \"#utility.yul\":3360:3469   */\n      pop\n      pop\n      jump\t// out\n        /* \"#utility.yul\":3475:3685   */\n    tag_34:\n        /* \"#utility.yul\":3562:3566   */\n      0x00\n        /* \"#utility.yul\":3600:3602   */\n      0x20\n        /* \"#utility.yul\":3589:3598   */\n      dup3\n        /* \"#utility.yul\":3585:3603   */\n      add\n        /* \"#utility.yul\":3577:3603   */\n      swap1\n      pop\n        /* \"#utility.yul\":3613:3678   */\n      tag_246\n        /* \"#utility.yul\":3675:3676   */\n      0x00\n        /* \"#utility.yul\":3664:3673   */\n      dup4\n        /* \"#utility.yul\":3660:3677   */\n      add\n        /* \"#utility.yul\":3651:3657   */\n      dup5\n        /* \"#utility.yul\":3613:3678   */\n      tag_196\n      jump\t// in\n    tag_246:\n        /* \"#utility.yul\":3475:3685   */\n      swap3\n      swap2\n      pop\n      pop\n      jump\t// out\n        /* \"#utility.yul\":3691:3809   */\n    tag_197:\n        /* \"#utility.yul\":3778:3802   */\n      tag_248\n        /* \"#utility.yul\":3796:3801   */\n      dup2\n        /* \"#utility.yul\":3778:3802   */\n      tag_192\n      jump\t// in\n    tag_248:\n        /* \"#utility.yul\":3773:3776   */\n      dup3\n        /* \"#utility.yul\":3766:3803   */\n      mstore\n        /* \"#utility.yul\":3691:3809   */\n      pop\n      pop\n      jump\t// out\n        /* \"#utility.yul\":3815:4037   */\n    tag_38:\n        /* \"#utility.yul\":3908:3912   */\n      0x00\n        /* \"#utility.yul\":3946:3948   */\n      0x20\n        /* \"#utility.yul\":3935:3944   */\n      dup3\n        /* \"#utility.yul\":3931:3949   */\n      add\n        /* \"#utility.yul\":3923:3949   */\n      swap1\n      pop\n        /* \"#utility.yul\":3959:4030   */\n      tag_250\n        /* \"#utility.yul\":4027:4028   */\n      0x00\n        /* \"#utility.yul\":4016:4025   */\n      dup4\n        /* \"#utility.yul\":4012:4029   */\n      add\n        /* \"#utility.yul\":4003:4009   */\n      dup5\n        /* \"#utility.yul\":3959:4030   */\n      tag_197\n      jump\t// in\n    tag_250:\n        /* \"#utility.yul\":3815:4037   */\n      swap3\n      swap2\n      pop\n      pop\n      jump\t// out\n        /* \"#utility.yul\":4043:4662   */\n    tag_41:\n        /* \"#utility.yul\":4120:4126   */\n      0x00\n        /* \"#utility.yul\":4128:4134   */\n      dup1\n        /* \"#utility.yul\":4136:4142   */\n      0x00\n        /* \"#utility.yul\":4185:4187   */\n      0x60\n        /* \"#utility.yul\":4173:4182   */\n      dup5\n        /* \"#utility.yul\":4164:4171   */\n      dup7\n        /* \"#utility.yul\":4160:4183   */\n      sub\n        /* \"#utility.yul\":4156:4188   */\n      slt\n        /* \"#utility.yul\":4153:4272   */\n      iszero\n      tag_252\n      jumpi\n        /* \"#utility.yul\":4191:4270   */\n      tag_253\n      tag_188\n      jump\t// in\n    tag_253:\n        /* \"#utility.yul\":4153:4272   */\n    tag_252:\n        /* \"#utility.yul\":4311:4312   */\n      0x00\n        /* \"#utility.yul\":4336:4389   */\n      tag_254\n        /* \"#utility.yul\":4381:4388   */\n      dup7\n        /* \"#utility.yul\":4372:4378   */\n      dup3\n        /* \"#utility.yul\":4361:4370   */\n      dup8\n        /* \"#utility.yul\":4357:4379   */\n      add\n        /* \"#utility.yul\":4336:4389   */\n      tag_191\n      jump\t// in\n    tag_254:\n        /* \"#utility.yul\":4326:4389   */\n      swap4\n      pop\n        /* \"#utility.yul\":4282:4399   */\n      pop\n        /* \"#utility.yul\":4438:4440   */\n      0x20\n        /* \"#utility.yul\":4464:4517   */\n      tag_255\n        /* \"#utility.yul\":4509:4516   */\n      dup7\n        /* \"#utility.yul\":4500:4506   */\n      dup3\n        /* \"#utility.yul\":4489:4498   */\n      dup8\n        /* \"#utility.yul\":4485:4507   */\n      add\n        /* \"#utility.yul\":4464:4517   */\n      tag_191\n      jump\t// in\n    tag_255:\n        /* \"#utility.yul\":4454:4517   */\n      swap3\n      pop\n        /* \"#utility.yul\":4409:4527   */\n      pop\n        /* \"#utility.yul\":4566:4568   */\n      0x40\n        /* \"#utility.yul\":4592:4645   */\n      tag_256\n        /* \"#utility.yul\":4637:4644   */\n      dup7\n        /* \"#utility.yul\":4628:4634   */\n      dup3\n        /* \"#utility.yul\":4617:4626   */\n      dup8\n        /* \"#utility.yul\":4613:4635   */\n      add\n        /* \"#utility.yul\":4592:4645   */\n      tag_194\n      jump\t// in\n    tag_256:\n        /* \"#utility.yul\":4582:4645   */\n      swap2\n      pop\n        /* \"#utility.yul\":4537:4655   */\n      pop\n        /* \"#utility.yul\":4043:4662   */\n      swap3\n      pop\n      swap3\n      pop\n      swap3\n      jump\t// out\n        /* \"#utility.yul\":4668:4754   */\n    tag_198:\n        /* \"#utility.yul\":4703:4710   */\n      0x00\n        /* \"#utility.yul\":4743:4747   */\n      0xff\n        /* \"#utility.yul\":4736:4741   */\n      dup3\n        /* \"#utility.yul\":4732:4748   */\n      and\n        /* \"#utility.yul\":4721:4748   */\n      swap1\n      pop\n        /* \"#utility.yul\":4668:4754   */\n      swap2\n      swap1\n      pop\n      jump\t// out\n        /* \"#utility.yul\":4760:4872   */\n    tag_199:\n        /* \"#utility.yul\":4843:4865   */\n      tag_259\n        /* \"#utility.yul\":4859:4864   */\n      dup2\n        /* \"#utility.yul\":4843:4865   */\n      tag_198\n      jump\t// in\n    tag_259:\n        /* \"#utility.yul\":4838:4841   */\n      dup3\n        /* \"#utility.yul\":4831:4866   */\n      mstore\n        /* \"#utility.yul\":4760:4872   */\n      pop\n      pop\n      jump\t// out\n        /* \"#utility.yul\":4878:5092   */\n    tag_47:\n        /* \"#utility.yul\":4967:4971   */\n      0x00\n        /* \"#utility.yul\":5005:5007   */\n      0x20\n        /* \"#utility.yul\":4994:5003   */\n      dup3\n        /* \"#utility.yul\":4990:5008   */\n      add\n        /* \"#utility.yul\":4982:5008   */\n      swap1\n      pop\n        /* \"#utility.yul\":5018:5085   */\n      tag_261\n        /* \"#utility.yul\":5082:5083   */\n      0x00\n        /* \"#utility.yul\":5071:5080   */\n      dup4\n        /* \"#utility.yul\":5067:5084   */\n      add\n        /* \"#utility.yul\":5058:5064   */\n      dup5\n        /* \"#utility.yul\":5018:5085   */\n      tag_199\n      jump\t// in\n    tag_261:\n        /* \"#utility.yul\":4878:5092   */\n      swap3\n      swap2\n      pop\n      pop\n      jump\t// out\n        /* \"#utility.yul\":5098:5427   */\n    tag_53:\n        /* \"#utility.yul\":5157:5163   */\n      0x00\n        /* \"#utility.yul\":5206:5208   */\n      0x20\n        /* \"#utility.yul\":5194:5203   */\n      dup3\n        /* \"#utility.yul\":5185:5192   */\n      dup5\n        /* \"#utility.yul\":5181:5204   */\n      sub\n        /* \"#utility.yul\":5177:5209   */\n      slt\n        /* \"#utility.yul\":5174:5293   */\n      iszero\n      tag_263\n      jumpi\n        /* \"#utility.yul\":5212:5291   */\n      tag_264\n      tag_188\n      jump\t// in\n    tag_264:\n        /* \"#utility.yul\":5174:5293   */\n    tag_263:\n        /* \"#utility.yul\":5332:5333   */\n      0x00\n        /* \"#utility.yul\":5357:5410   */\n      tag_265\n        /* \"#utility.yul\":5402:5409   */\n      dup5\n        /* \"#utility.yul\":5393:5399   */\n      dup3\n        /* \"#utility.yul\":5382:5391   */\n      dup6\n        /* \"#utility.yul\":5378:5400   */\n      add\n        /* \"#utility.yul\":5357:5410   */\n      tag_191\n      jump\t// in\n    tag_265:\n        /* \"#utility.yul\":5347:5410   */\n      swap2\n      pop\n        /* \"#utility.yul\":5303:5420   */\n      pop\n        /* \"#utility.yul\":5098:5427   */\n      swap3\n      swap2\n      pop\n      pop\n      jump\t// out\n        /* \"#utility.yul\":5433:5907   */\n    tag_73:\n        /* \"#utility.yul\":5501:5507   */\n      0x00\n        /* \"#utility.yul\":5509:5515   */\n      dup1\n        /* \"#utility.yul\":5558:5560   */\n      0x40\n        /* \"#utility.yul\":5546:5555   */\n      dup4\n        /* \"#utility.yul\":5537:5544   */\n      dup6\n        /* \"#utility.yul\":5533:5556   */\n      sub\n        /* \"#utility.yul\":5529:5561   */\n      slt\n        /* \"#utility.yul\":5526:5645   */\n      iszero\n      tag_267\n      jumpi\n        /* \"#utility.yul\":5564:5643   */\n      tag_268\n      tag_188\n      jump\t// in\n    tag_268:\n        /* \"#utility.yul\":5526:5645   */\n    tag_267:\n        /* \"#utility.yul\":5684:5685   */\n      0x00\n        /* \"#utility.yul\":5709:5762   */\n      tag_269\n        /* \"#utility.yul\":5754:5761   */\n      dup6\n        /* \"#utility.yul\":5745:5751   */\n      dup3\n        /* \"#utility.yul\":5734:5743   */\n      dup7\n        /* \"#utility.yul\":5730:5752   */\n      add\n        /* \"#utility.yul\":5709:5762   */\n      tag_191\n      jump\t// in\n    tag_269:\n        /* \"#utility.yul\":5699:5762   */\n      swap3\n      pop\n        /* \"#utility.yul\":5655:5772   */\n      pop\n        /* \"#utility.yul\":5811:5813   */\n      0x20\n        /* \"#utility.yul\":5837:5890   */\n      tag_270\n        /* \"#utility.yul\":5882:5889   */\n      dup6\n        /* \"#utility.yul\":5873:5879   */\n      dup3\n        /* \"#utility.yul\":5862:5871   */\n      dup7\n        /* \"#utility.yul\":5858:5880   */\n      add\n        /* \"#utility.yul\":5837:5890   */\n      tag_191\n      jump\t// in\n    tag_270:\n        /* \"#utility.yul\":5827:5890   */\n      swap2\n      pop\n        /* \"#utility.yul\":5782:5900   */\n      pop\n        /* \"#utility.yul\":5433:5907   */\n      swap3\n      pop\n      swap3\n      swap1\n      pop\n      jump\t// out\n        /* \"#utility.yul\":5913:6093   */\n    tag_200:\n        /* \"#utility.yul\":5961:6038   */\n      0x4e487b7100000000000000000000000000000000000000000000000000000000\n        /* \"#utility.yul\":5958:5959   */\n      0x00\n        /* \"#utility.yul\":5951:6039   */\n      mstore\n        /* \"#utility.yul\":6058:6062   */\n      0x22\n        /* \"#utility.yul\":6055:6056   */\n      0x04\n        /* \"#utility.yul\":6048:6063   */\n      mstore\n        /* \"#utility.yul\":6082:6086   */\n      0x24\n        /* \"#utility.yul\":6079:6080   */\n      0x00\n        /* \"#utility.yul\":6072:6087   */\n      revert\n        /* \"#utility.yul\":6099:6419   */\n    tag_81:\n        /* \"#utility.yul\":6143:6149   */\n      0x00\n        /* \"#utility.yul\":6180:6181   */\n      0x02\n        /* \"#utility.yul\":6174:6178   */\n      dup3\n        /* \"#utility.yul\":6170:6182   */\n      div\n        /* \"#utility.yul\":6160:6182   */\n      swap1\n      pop\n        /* \"#utility.yul\":6227:6228   */\n      0x01\n        /* \"#utility.yul\":6221:6225   */\n      dup3\n        /* \"#utility.yul\":6217:6229   */\n      and\n        /* \"#utility.yul\":6248:6266   */\n      dup1\n        /* \"#utility.yul\":6238:6319   */\n      tag_273\n      jumpi\n        /* \"#utility.yul\":6304:6308   */\n      0x7f\n        /* \"#utility.yul\":6296:6302   */\n      dup3\n        /* \"#utility.yul\":6292:6309   */\n      and\n        /* \"#utility.yul\":6282:6309   */\n      swap2\n      pop\n        /* \"#utility.yul\":6238:6319   */\n    tag_273:\n        /* \"#utility.yul\":6366:6368   */\n      0x20\n        /* \"#utility.yul\":6358:6364   */\n      dup3\n        /* \"#utility.yul\":6355:6369   */\n      lt\n        /* \"#utility.yul\":6335:6353   */\n      dup2\n        /* \"#utility.yul\":6332:6370   */\n      sub\n        /* \"#utility.yul\":6329:6413   */\n      tag_274\n      jumpi\n        /* \"#utility.yul\":6385:6403   */\n      tag_275\n      tag_200\n      jump\t// in\n    tag_275:\n        /* \"#utility.yul\":6329:6413   */\n    tag_274:\n        /* \"#utility.yul\":6150:6419   */\n      pop\n        /* \"#utility.yul\":6099:6419   */\n      swap2\n      swap1\n      pop\n      jump\t// out\n        /* \"#utility.yul\":6425:6598   */\n    tag_201:\n        /* \"#utility.yul\":6565:6590   */\n      0x4f6e6c79206d696e7465722063616e20646f2074686973000000000000000000\n        /* \"#utility.yul\":6561:6562   */\n      0x00\n        /* \"#utility.yul\":6553:6559   */\n      dup3\n        /* \"#utility.yul\":6549:6563   */\n      add\n        /* \"#utility.yul\":6542:6591   */\n      mstore\n        /* \"#utility.yul\":6425:6598   */\n      pop\n      jump\t// out\n        /* \"#utility.yul\":6604:6970   */\n    tag_202:\n        /* \"#utility.yul\":6746:6749   */\n      0x00\n        /* \"#utility.yul\":6767:6834   */\n      tag_278\n        /* \"#utility.yul\":6831:6833   */\n      0x17\n        /* \"#utility.yul\":6826:6829   */\n      dup4\n        /* \"#utility.yul\":6767:6834   */\n      tag_180\n      jump\t// in\n    tag_278:\n        /* \"#utility.yul\":6760:6834   */\n      swap2\n      pop\n        /* \"#utility.yul\":6843:6936   */\n      tag_279\n        /* \"#utility.yul\":6932:6935   */\n      dup3\n        /* \"#utility.yul\":6843:6936   */\n      tag_201\n      jump\t// in\n    tag_279:\n        /* \"#utility.yul\":6961:6963   */\n      0x20\n        /* \"#utility.yul\":6956:6959   */\n      dup3\n        /* \"#utility.yul\":6952:6964   */\n      add\n        /* \"#utility.yul\":6945:6964   */\n      swap1\n      pop\n        /* \"#utility.yul\":6604:6970   */\n      swap2\n      swap1\n      pop\n      jump\t// out\n        /* \"#utility.yul\":6976:7395   */\n    tag_102:\n        /* \"#utility.yul\":7142:7146   */\n      0x00\n        /* \"#utility.yul\":7180:7182   */\n      0x20\n        /* \"#utility.yul\":7169:7178   */\n      dup3\n        /* \"#utility.yul\":7165:7183   */\n      add\n        /* \"#utility.yul\":7157:7183   */\n      swap1\n      pop\n        /* \"#utility.yul\":7229:7238   */\n      dup2\n        /* \"#utility.yul\":7223:7227   */\n      dup2\n        /* \"#utility.yul\":7219:7239   */\n      sub\n        /* \"#utility.yul\":7215:7216   */\n      0x00\n        /* \"#utility.yul\":7204:7213   */\n      dup4\n        /* \"#utility.yul\":7200:7217   */\n      add\n        /* \"#utility.yul\":7193:7240   */\n      mstore\n        /* \"#utility.yul\":7257:7388   */\n      tag_281\n        /* \"#utility.yul\":7383:7387   */\n      dup2\n        /* \"#utility.yul\":7257:7388   */\n      tag_202\n      jump\t// in\n    tag_281:\n        /* \"#utility.yul\":7249:7388   */\n      swap1\n      pop\n        /* \"#utility.yul\":6976:7395   */\n      swap2\n      swap1\n      pop\n      jump\t// out\n        /* \"#utility.yul\":7401:7843   */\n    tag_142:\n        /* \"#utility.yul\":7550:7554   */\n      0x00\n        /* \"#utility.yul\":7588:7590   */\n      0x60\n        /* \"#utility.yul\":7577:7586   */\n      dup3\n        /* \"#utility.yul\":7573:7591   */\n      add\n        /* \"#utility.yul\":7565:7591   */\n      swap1\n      pop\n        /* \"#utility.yul\":7601:7672   */\n      tag_283\n        /* \"#utility.yul\":7669:7670   */\n      0x00\n        /* \"#utility.yul\":7658:7667   */\n      dup4\n        /* \"#utility.yul\":7654:7671   */\n      add\n        /* \"#utility.yul\":7645:7651   */\n      dup7\n        /* \"#utility.yul\":7601:7672   */\n      tag_186\n      jump\t// in\n    tag_283:\n        /* \"#utility.yul\":7682:7754   */\n      tag_284\n        /* \"#utility.yul\":7750:7752   */\n      0x20\n        /* \"#utility.yul\":7739:7748   */\n      dup4\n        /* \"#utility.yul\":7735:7753   */\n      add\n        /* \"#utility.yul\":7726:7732   */\n      dup6\n        /* \"#utility.yul\":7682:7754   */\n      tag_197\n      jump\t// in\n    tag_284:\n        /* \"#utility.yul\":7764:7836   */\n      tag_285\n        /* \"#utility.yul\":7832:7834   */\n      0x40\n        /* \"#utility.yul\":7821:7830   */\n      dup4\n        /* \"#utility.yul\":7817:7835   */\n      add\n        /* \"#utility.yul\":7808:7814   */\n      dup5\n        /* \"#utility.yul\":7764:7836   */\n      tag_197\n      jump\t// in\n    tag_285:\n        /* \"#utility.yul\":7401:7843   */\n      swap5\n      swap4\n      pop\n      pop\n      pop\n      pop\n      jump\t// out\n        /* \"#utility.yul\":7849:8029   */\n    tag_203:\n        /* \"#utility.yul\":7897:7974   */\n      0x4e487b7100000000000000000000000000000000000000000000000000000000\n        /* \"#utility.yul\":7894:7895   */\n      0x00\n        /* \"#utility.yul\":7887:7975   */\n      mstore\n        /* \"#utility.yul\":7994:7998   */\n      0x11\n        /* \"#utility.yul\":7991:7992   */\n      0x04\n        /* \"#utility.yul\":7984:7999   */\n      mstore\n        /* \"#utility.yul\":8018:8022   */\n      0x24\n        /* \"#utility.yul\":8015:8016   */\n      0x00\n        /* \"#utility.yul\":8008:8023   */\n      revert\n        /* \"#utility.yul\":8035:8226   */\n    tag_172:\n        /* \"#utility.yul\":8075:8078   */\n      0x00\n        /* \"#utility.yul\":8094:8114   */\n      tag_288\n        /* \"#utility.yul\":8112:8113   */\n      dup3\n        /* \"#utility.yul\":8094:8114   */\n      tag_192\n      jump\t// in\n    tag_288:\n        /* \"#utility.yul\":8089:8114   */\n      swap2\n      pop\n        /* \"#utility.yul\":8128:8148   */\n      tag_289\n        /* \"#utility.yul\":8146:8147   */\n      dup4\n        /* \"#utility.yul\":8128:8148   */\n      tag_192\n      jump\t// in\n    tag_289:\n        /* \"#utility.yul\":8123:8148   */\n      swap3\n      pop\n        /* \"#utility.yul\":8171:8172   */\n      dup3\n        /* \"#utility.yul\":8168:8169   */\n      dup3\n        /* \"#utility.yul\":8164:8173   */\n      add\n        /* \"#utility.yul\":8157:8173   */\n      swap1\n      pop\n        /* \"#utility.yul\":8192:8195   */\n      dup1\n        /* \"#utility.yul\":8189:8190   */\n      dup3\n        /* \"#utility.yul\":8186:8196   */\n      gt\n        /* \"#utility.yul\":8183:8219   */\n      iszero\n      tag_290\n      jumpi\n        /* \"#utility.yul\":8199:8217   */\n      tag_291\n      tag_203\n      jump\t// in\n    tag_291:\n        /* \"#utility.yul\":8183:8219   */\n    tag_290:\n        /* \"#utility.yul\":8035:8226   */\n      swap3\n      swap2\n      pop\n      pop\n      jump\t// out\n\n    auxdata: 0xa2646970667358221220e15f7e7b964c376bbf53235ef5e2bed025be2eb990ff22395523da128496d74764736f6c634300081a0033\n}\n",
				"bytecode": {
					"linkReferences": {},
					"object": "608060405234801561000f575f80fd5b50336040518060400160405280600b81526020017f467275697420546f6b656e0000000000000000000000000000000000000000008152506040518060400160405280600581526020017f4652554954000000000000000000000000000000000000000000000000000000815250816003908161008c9190610421565b50806004908161009c9190610421565b5050505f73ffffffffffffffffffffffffffffffffffffffff168173ffffffffffffffffffffffffffffffffffffffff160361010f575f6040517f1e4fbdf7000000000000000000000000000000000000000000000000000000008152600401610106919061052f565b60405180910390fd5b61011e8161012460201b60201c565b50610548565b5f60055f9054906101000a900473ffffffffffffffffffffffffffffffffffffffff1690508160055f6101000a81548173ffffffffffffffffffffffffffffffffffffffff021916908373ffffffffffffffffffffffffffffffffffffffff1602179055508173ffffffffffffffffffffffffffffffffffffffff168173ffffffffffffffffffffffffffffffffffffffff167f8be0079c531659141344cd1fd0a4f28419497f9722a3daafe3b4186f6b6457e060405160405180910390a35050565b5f81519050919050565b7f4e487b71000000000000000000000000000000000000000000000000000000005f52604160045260245ffd5b7f4e487b71000000000000000000000000000000000000000000000000000000005f52602260045260245ffd5b5f600282049050600182168061026257607f821691505b6020821081036102755761027461021e565b5b50919050565b5f819050815f5260205f209050919050565b5f6020601f8301049050919050565b5f82821b905092915050565b5f600883026102d77fffffffffffffffffffffffffffffffffffffffffffffffffffffffffffffffff8261029c565b6102e1868361029c565b95508019841693508086168417925050509392505050565b5f819050919050565b5f819050919050565b5f61032561032061031b846102f9565b610302565b6102f9565b9050919050565b5f819050919050565b61033e8361030b565b61035261034a8261032c565b8484546102a8565b825550505050565b5f90565b61036661035a565b610371818484610335565b505050565b5b81811015610394576103895f8261035e565b600181019050610377565b5050565b601f8211156103d9576103aa8161027b565b6103b38461028d565b810160208510156103c2578190505b6103d66103ce8561028d565b830182610376565b50505b505050565b5f82821c905092915050565b5f6103f95f19846008026103de565b1980831691505092915050565b5f61041183836103ea565b9150826002028217905092915050565b61042a826101e7565b67ffffffffffffffff811115610443576104426101f1565b5b61044d825461024b565b610458828285610398565b5f60209050601f831160018114610489575f8415610477578287015190505b6104818582610406565b8655506104e8565b601f1984166104978661027b565b5f5b828110156104be57848901518255600182019150602085019450602081019050610499565b868310156104db57848901516104d7601f8916826103ea565b8355505b6001600288020188555050505b505050505050565b5f73ffffffffffffffffffffffffffffffffffffffff82169050919050565b5f610519826104f0565b9050919050565b6105298161050f565b82525050565b5f6020820190506105425f830184610520565b92915050565b6112db806105555f395ff3fe608060405234801561000f575f80fd5b50600436106100f3575f3560e01c806370a08231116100955780639742ca46116100645780639742ca4614610261578063a9059cbb1461027d578063dd62ed3e146102ad578063f2fde38b146102dd576100f3565b806370a08231146101eb578063715018a61461021b5780638da5cb5b1461022557806395d89b4114610243576100f3565b806318160ddd116100d157806318160ddd1461016357806323b872dd14610181578063313ce567146101b157806340c10f19146101cf576100f3565b806306fdde03146100f75780630754617214610115578063095ea7b314610133575b5f80fd5b6100ff6102f9565b60405161010c9190610eec565b60405180910390f35b61011d610389565b60405161012a9190610f4b565b60405180910390f35b61014d60048036038101906101489190610fc5565b6103ae565b60405161015a919061101d565b60405180910390f35b61016b6103d0565b6040516101789190611045565b60405180910390f35b61019b6004803603810190610196919061105e565b6103d9565b6040516101a8919061101d565b60405180910390f35b6101b9610407565b6040516101c691906110c9565b60405180910390f35b6101e960048036038101906101e49190610fc5565b61040f565b005b610205600480360381019061020091906110e2565b6104ac565b6040516102129190611045565b60405180910390f35b6102236104f1565b005b61022d610504565b60405161023a9190610f4b565b60405180910390f35b61024b61052c565b6040516102589190610eec565b60405180910390f35b61027b600480360381019061027691906110e2565b6105bc565b005b61029760048036038101906102929190610fc5565b610607565b6040516102a4919061101d565b60405180910390f35b6102c760048036038101906102c2919061110d565b610629565b6040516102d49190611045565b60405180910390f35b6102f760048036038101906102f291906110e2565b6106ab565b005b60606003805461030890611178565b80601f016020809104026020016040519081016040528092919081815260200182805461033490611178565b801561037f5780601f106103565761010080835404028352916020019161037f565b820191905f5260205f20905b81548152906001019060200180831161036257829003601f168201915b5050505050905090565b60065f9054906101000a900473ffffffffffffffffffffffffffffffffffffffff1681565b5f806103b861072f565b90506103c5818585610736565b600191505092915050565b5f600254905090565b5f806103e361072f565b90506103f0858285610748565b6103fb8585856107db565b60019150509392505050565b5f6012905090565b60065f9054906101000a900473ffffffffffffffffffffffffffffffffffffffff1673ffffffffffffffffffffffffffffffffffffffff163373ffffffffffffffffffffffffffffffffffffffff161461049e576040517f08c379a0000000000000000000000000000000000000000000000000000000008152600401610495906111f2565b60405180910390fd5b6104a882826108cb565b5050565b5f805f8373ffffffffffffffffffffffffffffffffffffffff1673ffffffffffffffffffffffffffffffffffffffff1681526020019081526020015f20549050919050565b6104f961094a565b6105025f6109d1565b565b5f60055f9054906101000a900473ffffffffffffffffffffffffffffffffffffffff16905090565b60606004805461053b90611178565b80601f016020809104026020016040519081016040528092919081815260200182805461056790611178565b80156105b25780601f10610589576101008083540402835291602001916105b2565b820191905f5260205f20905b81548152906001019060200180831161059557829003601f168201915b5050505050905090565b6105c461094a565b8060065f6101000a81548173ffffffffffffffffffffffffffffffffffffffff021916908373ffffffffffffffffffffffffffffffffffffffff16021790555050565b5f8061061161072f565b905061061e8185856107db565b600191505092915050565b5f60015f8473ffffffffffffffffffffffffffffffffffffffff1673ffffffffffffffffffffffffffffffffffffffff1681526020019081526020015f205f8373ffffffffffffffffffffffffffffffffffffffff1673ffffffffffffffffffffffffffffffffffffffff1681526020019081526020015f2054905092915050565b6106b361094a565b5f73ffffffffffffffffffffffffffffffffffffffff168173ffffffffffffffffffffffffffffffffffffffff1603610723575f6040517f1e4fbdf700000000000000000000000000000000000000000000000000000000815260040161071a9190610f4b565b60405180910390fd5b61072c816109d1565b50565b5f33905090565b6107438383836001610a94565b505050565b5f6107538484610629565b90507fffffffffffffffffffffffffffffffffffffffffffffffffffffffffffffffff8110156107d557818110156107c6578281836040517ffb8f41b20000000000000000000000000000000000000000000000000000000081526004016107bd93929190611210565b60405180910390fd5b6107d484848484035f610a94565b5b50505050565b5f73ffffffffffffffffffffffffffffffffffffffff168373ffffffffffffffffffffffffffffffffffffffff160361084b575f6040517f96c6fd1e0000000000000000000000000000000000000000000000000000000081526004016108429190610f4b565b60405180910390fd5b5f73ffffffffffffffffffffffffffffffffffffffff168273ffffffffffffffffffffffffffffffffffffffff16036108bb575f6040517fec442f050000000000000000000000000000000000000000000000000000000081526004016108b29190610f4b565b60405180910390fd5b6108c6838383610c63565b505050565b5f73ffffffffffffffffffffffffffffffffffffffff168273ffffffffffffffffffffffffffffffffffffffff160361093b575f6040517fec442f050000000000000000000000000000000000000000000000000000000081526004016109329190610f4b565b60405180910390fd5b6109465f8383610c63565b5050565b61095261072f565b73ffffffffffffffffffffffffffffffffffffffff16610970610504565b73ffffffffffffffffffffffffffffffffffffffff16146109cf5761099361072f565b6040517f118cdaa70000000000000000000000000000000000000000000000000000000081526004016109c69190610f4b565b60405180910390fd5b565b5f60055f9054906101000a900473ffffffffffffffffffffffffffffffffffffffff1690508160055f6101000a81548173ffffffffffffffffffffffffffffffffffffffff021916908373ffffffffffffffffffffffffffffffffffffffff1602179055508173ffffffffffffffffffffffffffffffffffffffff168173ffffffffffffffffffffffffffffffffffffffff167f8be0079c531659141344cd1fd0a4f28419497f9722a3daafe3b4186f6b6457e060405160405180910390a35050565b5f73ffffffffffffffffffffffffffffffffffffffff168473ffffffffffffffffffffffffffffffffffffffff1603610b04575f6040517fe602df05000000000000000000000000000000000000000000000000000000008152600401610afb9190610f4b565b60405180910390fd5b5f73ffffffffffffffffffffffffffffffffffffffff168373ffffffffffffffffffffffffffffffffffffffff1603610b74575f6040517f94280d62000000000000000000000000000000000000000000000000000000008152600401610b6b9190610f4b565b60405180910390fd5b8160015f8673ffffffffffffffffffffffffffffffffffffffff1673ffffffffffffffffffffffffffffffffffffffff1681526020019081526020015f205f8573ffffffffffffffffffffffffffffffffffffffff1673ffffffffffffffffffffffffffffffffffffffff1681526020019081526020015f20819055508015610c5d578273ffffffffffffffffffffffffffffffffffffffff168473ffffffffffffffffffffffffffffffffffffffff167f8c5be1e5ebec7d5bd14f71427d1e84f3dd0314c0f7b2291e5b200ac8c7c3b92584604051610c549190611045565b60405180910390a35b50505050565b5f73ffffffffffffffffffffffffffffffffffffffff168373ffffffffffffffffffffffffffffffffffffffff1603610cb3578060025f828254610ca79190611272565b92505081905550610d81565b5f805f8573ffffffffffffffffffffffffffffffffffffffff1673ffffffffffffffffffffffffffffffffffffffff1681526020019081526020015f2054905081811015610d3c578381836040517fe450d38c000000000000000000000000000000000000000000000000000000008152600401610d3393929190611210565b60405180910390fd5b8181035f808673ffffffffffffffffffffffffffffffffffffffff1673ffffffffffffffffffffffffffffffffffffffff1681526020019081526020015f2081905550505b5f73ffffffffffffffffffffffffffffffffffffffff168273ffffffffffffffffffffffffffffffffffffffff1603610dc8578060025f8282540392505081905550610e12565b805f808473ffffffffffffffffffffffffffffffffffffffff1673ffffffffffffffffffffffffffffffffffffffff1681526020019081526020015f205f82825401925050819055505b8173ffffffffffffffffffffffffffffffffffffffff168373ffffffffffffffffffffffffffffffffffffffff167fddf252ad1be2c89b69c2b068fc378daa952ba7f163c4a11628f55a4df523b3ef83604051610e6f9190611045565b60405180910390a3505050565b5f81519050919050565b5f82825260208201905092915050565b8281835e5f83830152505050565b5f601f19601f8301169050919050565b5f610ebe82610e7c565b610ec88185610e86565b9350610ed8818560208601610e96565b610ee181610ea4565b840191505092915050565b5f6020820190508181035f830152610f048184610eb4565b905092915050565b5f73ffffffffffffffffffffffffffffffffffffffff82169050919050565b5f610f3582610f0c565b9050919050565b610f4581610f2b565b82525050565b5f602082019050610f5e5f830184610f3c565b92915050565b5f80fd5b610f7181610f2b565b8114610f7b575f80fd5b50565b5f81359050610f8c81610f68565b92915050565b5f819050919050565b610fa481610f92565b8114610fae575f80fd5b50565b5f81359050610fbf81610f9b565b92915050565b5f8060408385031215610fdb57610fda610f64565b5b5f610fe885828601610f7e565b9250506020610ff985828601610fb1565b9150509250929050565b5f8115159050919050565b61101781611003565b82525050565b5f6020820190506110305f83018461100e565b92915050565b61103f81610f92565b82525050565b5f6020820190506110585f830184611036565b92915050565b5f805f6060848603121561107557611074610f64565b5b5f61108286828701610f7e565b935050602061109386828701610f7e565b92505060406110a486828701610fb1565b9150509250925092565b5f60ff82169050919050565b6110c3816110ae565b82525050565b5f6020820190506110dc5f8301846110ba565b92915050565b5f602082840312156110f7576110f6610f64565b5b5f61110484828501610f7e565b91505092915050565b5f806040838503121561112357611122610f64565b5b5f61113085828601610f7e565b925050602061114185828601610f7e565b9150509250929050565b7f4e487b71000000000000000000000000000000000000000000000000000000005f52602260045260245ffd5b5f600282049050600182168061118f57607f821691505b6020821081036111a2576111a161114b565b5b50919050565b7f4f6e6c79206d696e7465722063616e20646f20746869730000000000000000005f82015250565b5f6111dc601783610e86565b91506111e7826111a8565b602082019050919050565b5f6020820190508181035f830152611209816111d0565b9050919050565b5f6060820190506112235f830186610f3c565b6112306020830185611036565b61123d6040830184611036565b949350505050565b7f4e487b71000000000000000000000000000000000000000000000000000000005f52601160045260245ffd5b5f61127c82610f92565b915061128783610f92565b925082820190508082111561129f5761129e611245565b5b9291505056fea2646970667358221220e15f7e7b964c376bbf53235ef5e2bed025be2eb990ff22395523da128496d74764736f6c634300081a0033",
					"opcodes": "PUSH1 0x80 PUSH1 0x40 MSTORE CALLVALUE DUP1 ISZERO PUSH2 0xF JUMPI PUSH0 DUP1 REVERT JUMPDEST POP CALLER PUSH1 0x40 MLOAD DUP1 PUSH1 0x40 ADD PUSH1 0x40 MSTORE DUP1 PUSH1 0xB DUP2 MSTORE PUSH1 0x20 ADD PUSH32 0x467275697420546F6B656E000000000000000000000000000000000000000000 DUP2 MSTORE POP PUSH1 0x40 MLOAD DUP1 PUSH1 0x40 ADD PUSH1 0x40 MSTORE DUP1 PUSH1 0x5 DUP2 MSTORE PUSH1 0x20 ADD PUSH32 0x4652554954000000000000000000000000000000000000000000000000000000 DUP2 MSTORE POP DUP2 PUSH1 0x3 SWAP1 DUP2 PUSH2 0x8C SWAP2 SWAP1 PUSH2 0x421 JUMP JUMPDEST POP DUP1 PUSH1 0x4 SWAP1 DUP2 PUSH2 0x9C SWAP2 SWAP1 PUSH2 0x421 JUMP JUMPDEST POP POP POP PUSH0 PUSH20 0xFFFFFFFFFFFFFFFFFFFFFFFFFFFFFFFFFFFFFFFF AND DUP2 PUSH20 0xFFFFFFFFFFFFFFFFFFFFFFFFFFFFFFFFFFFFFFFF AND SUB PUSH2 0x10F JUMPI PUSH0 PUSH1 0x40 MLOAD PUSH32 0x1E4FBDF700000000000000000000000000000000000000000000000000000000 DUP2 MSTORE PUSH1 0x4 ADD PUSH2 0x106 SWAP2 SWAP1 PUSH2 0x52F JUMP JUMPDEST PUSH1 0x40 MLOAD DUP1 SWAP2 SUB SWAP1 REVERT JUMPDEST PUSH2 0x11E DUP2 PUSH2 0x124 PUSH1 0x20 SHL PUSH1 0x20 SHR JUMP JUMPDEST POP PUSH2 0x548 JUMP JUMPDEST PUSH0 PUSH1 0x5 PUSH0 SWAP1 SLOAD SWAP1 PUSH2 0x100 EXP SWAP1 DIV PUSH20 0xFFFFFFFFFFFFFFFFFFFFFFFFFFFFFFFFFFFFFFFF AND SWAP1 POP DUP2 PUSH1 0x5 PUSH0 PUSH2 0x100 EXP DUP2 SLOAD DUP2 PUSH20 0xFFFFFFFFFFFFFFFFFFFFFFFFFFFFFFFFFFFFFFFF MUL NOT AND SWAP1 DUP4 PUSH20 0xFFFFFFFFFFFFFFFFFFFFFFFFFFFFFFFFFFFFFFFF AND MUL OR SWAP1 SSTORE POP DUP2 PUSH20 0xFFFFFFFFFFFFFFFFFFFFFFFFFFFFFFFFFFFFFFFF AND DUP2 PUSH20 0xFFFFFFFFFFFFFFFFFFFFFFFFFFFFFFFFFFFFFFFF AND PUSH32 0x8BE0079C531659141344CD1FD0A4F28419497F9722A3DAAFE3B4186F6B6457E0 PUSH1 0x40 MLOAD PUSH1 0x40 MLOAD DUP1 SWAP2 SUB SWAP1 LOG3 POP POP JUMP JUMPDEST PUSH0 DUP2 MLOAD SWAP1 POP SWAP2 SWAP1 POP JUMP JUMPDEST PUSH32 0x4E487B7100000000000000000000000000000000000000000000000000000000 PUSH0 MSTORE PUSH1 0x41 PUSH1 0x4 MSTORE PUSH1 0x24 PUSH0 REVERT JUMPDEST PUSH32 0x4E487B7100000000000000000000000000000000000000000000000000000000 PUSH0 MSTORE PUSH1 0x22 PUSH1 0x4 MSTORE PUSH1 0x24 PUSH0 REVERT JUMPDEST PUSH0 PUSH1 0x2 DUP3 DIV SWAP1 POP PUSH1 0x1 DUP3 AND DUP1 PUSH2 0x262 JUMPI PUSH1 0x7F DUP3 AND SWAP2 POP JUMPDEST PUSH1 0x20 DUP3 LT DUP2 SUB PUSH2 0x275 JUMPI PUSH2 0x274 PUSH2 0x21E JUMP JUMPDEST JUMPDEST POP SWAP2 SWAP1 POP JUMP JUMPDEST PUSH0 DUP2 SWAP1 POP DUP2 PUSH0 MSTORE PUSH1 0x20 PUSH0 KECCAK256 SWAP1 POP SWAP2 SWAP1 POP JUMP JUMPDEST PUSH0 PUSH1 0x20 PUSH1 0x1F DUP4 ADD DIV SWAP1 POP SWAP2 SWAP1 POP JUMP JUMPDEST PUSH0 DUP3 DUP3 SHL SWAP1 POP SWAP3 SWAP2 POP POP JUMP JUMPDEST PUSH0 PUSH1 0x8 DUP4 MUL PUSH2 0x2D7 PUSH32 0xFFFFFFFFFFFFFFFFFFFFFFFFFFFFFFFFFFFFFFFFFFFFFFFFFFFFFFFFFFFFFFFF DUP3 PUSH2 0x29C JUMP JUMPDEST PUSH2 0x2E1 DUP7 DUP4 PUSH2 0x29C JUMP JUMPDEST SWAP6 POP DUP1 NOT DUP5 AND SWAP4 POP DUP1 DUP7 AND DUP5 OR SWAP3 POP POP POP SWAP4 SWAP3 POP POP POP JUMP JUMPDEST PUSH0 DUP2 SWAP1 POP SWAP2 SWAP1 POP JUMP JUMPDEST PUSH0 DUP2 SWAP1 POP SWAP2 SWAP1 POP JUMP JUMPDEST PUSH0 PUSH2 0x325 PUSH2 0x320 PUSH2 0x31B DUP5 PUSH2 0x2F9 JUMP JUMPDEST PUSH2 0x302 JUMP JUMPDEST PUSH2 0x2F9 JUMP JUMPDEST SWAP1 POP SWAP2 SWAP1 POP JUMP JUMPDEST PUSH0 DUP2 SWAP1 POP SWAP2 SWAP1 POP JUMP JUMPDEST PUSH2 0x33E DUP4 PUSH2 0x30B JUMP JUMPDEST PUSH2 0x352 PUSH2 0x34A DUP3 PUSH2 0x32C JUMP JUMPDEST DUP5 DUP5 SLOAD PUSH2 0x2A8 JUMP JUMPDEST DUP3 SSTORE POP POP POP POP JUMP JUMPDEST PUSH0 SWAP1 JUMP JUMPDEST PUSH2 0x366 PUSH2 0x35A JUMP JUMPDEST PUSH2 0x371 DUP2 DUP5 DUP5 PUSH2 0x335 JUMP JUMPDEST POP POP POP JUMP JUMPDEST JUMPDEST DUP2 DUP2 LT ISZERO PUSH2 0x394 JUMPI PUSH2 0x389 PUSH0 DUP3 PUSH2 0x35E JUMP JUMPDEST PUSH1 0x1 DUP2 ADD SWAP1 POP PUSH2 0x377 JUMP JUMPDEST POP POP JUMP JUMPDEST PUSH1 0x1F DUP3 GT ISZERO PUSH2 0x3D9 JUMPI PUSH2 0x3AA DUP2 PUSH2 0x27B JUMP JUMPDEST PUSH2 0x3B3 DUP5 PUSH2 0x28D JUMP JUMPDEST DUP2 ADD PUSH1 0x20 DUP6 LT ISZERO PUSH2 0x3C2 JUMPI DUP2 SWAP1 POP JUMPDEST PUSH2 0x3D6 PUSH2 0x3CE DUP6 PUSH2 0x28D JUMP JUMPDEST DUP4 ADD DUP3 PUSH2 0x376 JUMP JUMPDEST POP POP JUMPDEST POP POP POP JUMP JUMPDEST PUSH0 DUP3 DUP3 SHR SWAP1 POP SWAP3 SWAP2 POP POP JUMP JUMPDEST PUSH0 PUSH2 0x3F9 PUSH0 NOT DUP5 PUSH1 0x8 MUL PUSH2 0x3DE JUMP JUMPDEST NOT DUP1 DUP4 AND SWAP2 POP POP SWAP3 SWAP2 POP POP JUMP JUMPDEST PUSH0 PUSH2 0x411 DUP4 DUP4 PUSH2 0x3EA JUMP JUMPDEST SWAP2 POP DUP3 PUSH1 0x2 MUL DUP3 OR SWAP1 POP SWAP3 SWAP2 POP POP JUMP JUMPDEST PUSH2 0x42A DUP3 PUSH2 0x1E7 JUMP JUMPDEST PUSH8 0xFFFFFFFFFFFFFFFF DUP2 GT ISZERO PUSH2 0x443 JUMPI PUSH2 0x442 PUSH2 0x1F1 JUMP JUMPDEST JUMPDEST PUSH2 0x44D DUP3 SLOAD PUSH2 0x24B JUMP JUMPDEST PUSH2 0x458 DUP3 DUP3 DUP6 PUSH2 0x398 JUMP JUMPDEST PUSH0 PUSH1 0x20 SWAP1 POP PUSH1 0x1F DUP4 GT PUSH1 0x1 DUP2 EQ PUSH2 0x489 JUMPI PUSH0 DUP5 ISZERO PUSH2 0x477 JUMPI DUP3 DUP8 ADD MLOAD SWAP1 POP JUMPDEST PUSH2 0x481 DUP6 DUP3 PUSH2 0x406 JUMP JUMPDEST DUP7 SSTORE POP PUSH2 0x4E8 JUMP JUMPDEST PUSH1 0x1F NOT DUP5 AND PUSH2 0x497 DUP7 PUSH2 0x27B JUMP JUMPDEST PUSH0 JUMPDEST DUP3 DUP2 LT ISZERO PUSH2 0x4BE JUMPI DUP5 DUP10 ADD MLOAD DUP3 SSTORE PUSH1 0x1 DUP3 ADD SWAP2 POP PUSH1 0x20 DUP6 ADD SWAP5 POP PUSH1 0x20 DUP2 ADD SWAP1 POP PUSH2 0x499 JUMP JUMPDEST DUP7 DUP4 LT ISZERO PUSH2 0x4DB JUMPI DUP5 DUP10 ADD MLOAD PUSH2 0x4D7 PUSH1 0x1F DUP10 AND DUP3 PUSH2 0x3EA JUMP JUMPDEST DUP4 SSTORE POP JUMPDEST PUSH1 0x1 PUSH1 0x2 DUP9 MUL ADD DUP9 SSTORE POP POP POP JUMPDEST POP POP POP POP POP POP JUMP JUMPDEST PUSH0 PUSH20 0xFFFFFFFFFFFFFFFFFFFFFFFFFFFFFFFFFFFFFFFF DUP3 AND SWAP1 POP SWAP2 SWAP1 POP JUMP JUMPDEST PUSH0 PUSH2 0x519 DUP3 PUSH2 0x4F0 JUMP JUMPDEST SWAP1 POP SWAP2 SWAP1 POP JUMP JUMPDEST PUSH2 0x529 DUP2 PUSH2 0x50F JUMP JUMPDEST DUP3 MSTORE POP POP JUMP JUMPDEST PUSH0 PUSH1 0x20 DUP3 ADD SWAP1 POP PUSH2 0x542 PUSH0 DUP4 ADD DUP5 PUSH2 0x520 JUMP JUMPDEST SWAP3 SWAP2 POP POP JUMP JUMPDEST PUSH2 0x12DB DUP1 PUSH2 0x555 PUSH0 CODECOPY PUSH0 RETURN INVALID PUSH1 0x80 PUSH1 0x40 MSTORE CALLVALUE DUP1 ISZERO PUSH2 0xF JUMPI PUSH0 DUP1 REVERT JUMPDEST POP PUSH1 0x4 CALLDATASIZE LT PUSH2 0xF3 JUMPI PUSH0 CALLDATALOAD PUSH1 0xE0 SHR DUP1 PUSH4 0x70A08231 GT PUSH2 0x95 JUMPI DUP1 PUSH4 0x9742CA46 GT PUSH2 0x64 JUMPI DUP1 PUSH4 0x9742CA46 EQ PUSH2 0x261 JUMPI DUP1 PUSH4 0xA9059CBB EQ PUSH2 0x27D JUMPI DUP1 PUSH4 0xDD62ED3E EQ PUSH2 0x2AD JUMPI DUP1 PUSH4 0xF2FDE38B EQ PUSH2 0x2DD JUMPI PUSH2 0xF3 JUMP JUMPDEST DUP1 PUSH4 0x70A08231 EQ PUSH2 0x1EB JUMPI DUP1 PUSH4 0x715018A6 EQ PUSH2 0x21B JUMPI DUP1 PUSH4 0x8DA5CB5B EQ PUSH2 0x225 JUMPI DUP1 PUSH4 0x95D89B41 EQ PUSH2 0x243 JUMPI PUSH2 0xF3 JUMP JUMPDEST DUP1 PUSH4 0x18160DDD GT PUSH2 0xD1 JUMPI DUP1 PUSH4 0x18160DDD EQ PUSH2 0x163 JUMPI DUP1 PUSH4 0x23B872DD EQ PUSH2 0x181 JUMPI DUP1 PUSH4 0x313CE567 EQ PUSH2 0x1B1 JUMPI DUP1 PUSH4 0x40C10F19 EQ PUSH2 0x1CF JUMPI PUSH2 0xF3 JUMP JUMPDEST DUP1 PUSH4 0x6FDDE03 EQ PUSH2 0xF7 JUMPI DUP1 PUSH4 0x7546172 EQ PUSH2 0x115 JUMPI DUP1 PUSH4 0x95EA7B3 EQ PUSH2 0x133 JUMPI JUMPDEST PUSH0 DUP1 REVERT JUMPDEST PUSH2 0xFF PUSH2 0x2F9 JUMP JUMPDEST PUSH1 0x40 MLOAD PUSH2 0x10C SWAP2 SWAP1 PUSH2 0xEEC JUMP JUMPDEST PUSH1 0x40 MLOAD DUP1 SWAP2 SUB SWAP1 RETURN JUMPDEST PUSH2 0x11D PUSH2 0x389 JUMP JUMPDEST PUSH1 0x40 MLOAD PUSH2 0x12A SWAP2 SWAP1 PUSH2 0xF4B JUMP JUMPDEST PUSH1 0x40 MLOAD DUP1 SWAP2 SUB SWAP1 RETURN JUMPDEST PUSH2 0x14D PUSH1 0x4 DUP1 CALLDATASIZE SUB DUP2 ADD SWAP1 PUSH2 0x148 SWAP2 SWAP1 PUSH2 0xFC5 JUMP JUMPDEST PUSH2 0x3AE JUMP JUMPDEST PUSH1 0x40 MLOAD PUSH2 0x15A SWAP2 SWAP1 PUSH2 0x101D JUMP JUMPDEST PUSH1 0x40 MLOAD DUP1 SWAP2 SUB SWAP1 RETURN JUMPDEST PUSH2 0x16B PUSH2 0x3D0 JUMP JUMPDEST PUSH1 0x40 MLOAD PUSH2 0x178 SWAP2 SWAP1 PUSH2 0x1045 JUMP JUMPDEST PUSH1 0x40 MLOAD DUP1 SWAP2 SUB SWAP1 RETURN JUMPDEST PUSH2 0x19B PUSH1 0x4 DUP1 CALLDATASIZE SUB DUP2 ADD SWAP1 PUSH2 0x196 SWAP2 SWAP1 PUSH2 0x105E JUMP JUMPDEST PUSH2 0x3D9 JUMP JUMPDEST PUSH1 0x40 MLOAD PUSH2 0x1A8 SWAP2 SWAP1 PUSH2 0x101D JUMP JUMPDEST PUSH1 0x40 MLOAD DUP1 SWAP2 SUB SWAP1 RETURN JUMPDEST PUSH2 0x1B9 PUSH2 0x407 JUMP JUMPDEST PUSH1 0x40 MLOAD PUSH2 0x1C6 SWAP2 SWAP1 PUSH2 0x10C9 JUMP JUMPDEST PUSH1 0x40 MLOAD DUP1 SWAP2 SUB SWAP1 RETURN JUMPDEST PUSH2 0x1E9 PUSH1 0x4 DUP1 CALLDATASIZE SUB DUP2 ADD SWAP1 PUSH2 0x1E4 SWAP2 SWAP1 PUSH2 0xFC5 JUMP JUMPDEST PUSH2 0x40F JUMP JUMPDEST STOP JUMPDEST PUSH2 0x205 PUSH1 0x4 DUP1 CALLDATASIZE SUB DUP2 ADD SWAP1 PUSH2 0x200 SWAP2 SWAP1 PUSH2 0x10E2 JUMP JUMPDEST PUSH2 0x4AC JUMP JUMPDEST PUSH1 0x40 MLOAD PUSH2 0x212 SWAP2 SWAP1 PUSH2 0x1045 JUMP JUMPDEST PUSH1 0x40 MLOAD DUP1 SWAP2 SUB SWAP1 RETURN JUMPDEST PUSH2 0x223 PUSH2 0x4F1 JUMP JUMPDEST STOP JUMPDEST PUSH2 0x22D PUSH2 0x504 JUMP JUMPDEST PUSH1 0x40 MLOAD PUSH2 0x23A SWAP2 SWAP1 PUSH2 0xF4B JUMP JUMPDEST PUSH1 0x40 MLOAD DUP1 SWAP2 SUB SWAP1 RETURN JUMPDEST PUSH2 0x24B PUSH2 0x52C JUMP JUMPDEST PUSH1 0x40 MLOAD PUSH2 0x258 SWAP2 SWAP1 PUSH2 0xEEC JUMP JUMPDEST PUSH1 0x40 MLOAD DUP1 SWAP2 SUB SWAP1 RETURN JUMPDEST PUSH2 0x27B PUSH1 0x4 DUP1 CALLDATASIZE SUB DUP2 ADD SWAP1 PUSH2 0x276 SWAP2 SWAP1 PUSH2 0x10E2 JUMP JUMPDEST PUSH2 0x5BC JUMP JUMPDEST STOP JUMPDEST PUSH2 0x297 PUSH1 0x4 DUP1 CALLDATASIZE SUB DUP2 ADD SWAP1 PUSH2 0x292 SWAP2 SWAP1 PUSH2 0xFC5 JUMP JUMPDEST PUSH2 0x607 JUMP JUMPDEST PUSH1 0x40 MLOAD PUSH2 0x2A4 SWAP2 SWAP1 PUSH2 0x101D JUMP JUMPDEST PUSH1 0x40 MLOAD DUP1 SWAP2 SUB SWAP1 RETURN JUMPDEST PUSH2 0x2C7 PUSH1 0x4 DUP1 CALLDATASIZE SUB DUP2 ADD SWAP1 PUSH2 0x2C2 SWAP2 SWAP1 PUSH2 0x110D JUMP JUMPDEST PUSH2 0x629 JUMP JUMPDEST PUSH1 0x40 MLOAD PUSH2 0x2D4 SWAP2 SWAP1 PUSH2 0x1045 JUMP JUMPDEST PUSH1 0x40 MLOAD DUP1 SWAP2 SUB SWAP1 RETURN JUMPDEST PUSH2 0x2F7 PUSH1 0x4 DUP1 CALLDATASIZE SUB DUP2 ADD SWAP1 PUSH2 0x2F2 SWAP2 SWAP1 PUSH2 0x10E2 JUMP JUMPDEST PUSH2 0x6AB JUMP JUMPDEST STOP JUMPDEST PUSH1 0x60 PUSH1 0x3 DUP1 SLOAD PUSH2 0x308 SWAP1 PUSH2 0x1178 JUMP JUMPDEST DUP1 PUSH1 0x1F ADD PUSH1 0x20 DUP1 SWAP2 DIV MUL PUSH1 0x20 ADD PUSH1 0x40 MLOAD SWAP1 DUP2 ADD PUSH1 0x40 MSTORE DUP1 SWAP3 SWAP2 SWAP1 DUP2 DUP2 MSTORE PUSH1 0x20 ADD DUP3 DUP1 SLOAD PUSH2 0x334 SWAP1 PUSH2 0x1178 JUMP JUMPDEST DUP1 ISZERO PUSH2 0x37F JUMPI DUP1 PUSH1 0x1F LT PUSH2 0x356 JUMPI PUSH2 0x100 DUP1 DUP4 SLOAD DIV MUL DUP4 MSTORE SWAP2 PUSH1 0x20 ADD SWAP2 PUSH2 0x37F JUMP JUMPDEST DUP3 ADD SWAP2 SWAP1 PUSH0 MSTORE PUSH1 0x20 PUSH0 KECCAK256 SWAP1 JUMPDEST DUP2 SLOAD DUP2 MSTORE SWAP1 PUSH1 0x1 ADD SWAP1 PUSH1 0x20 ADD DUP1 DUP4 GT PUSH2 0x362 JUMPI DUP3 SWAP1 SUB PUSH1 0x1F AND DUP3 ADD SWAP2 JUMPDEST POP POP POP POP POP SWAP1 POP SWAP1 JUMP JUMPDEST PUSH1 0x6 PUSH0 SWAP1 SLOAD SWAP1 PUSH2 0x100 EXP SWAP1 DIV PUSH20 0xFFFFFFFFFFFFFFFFFFFFFFFFFFFFFFFFFFFFFFFF AND DUP2 JUMP JUMPDEST PUSH0 DUP1 PUSH2 0x3B8 PUSH2 0x72F JUMP JUMPDEST SWAP1 POP PUSH2 0x3C5 DUP2 DUP6 DUP6 PUSH2 0x736 JUMP JUMPDEST PUSH1 0x1 SWAP2 POP POP SWAP3 SWAP2 POP POP JUMP JUMPDEST PUSH0 PUSH1 0x2 SLOAD SWAP1 POP SWAP1 JUMP JUMPDEST PUSH0 DUP1 PUSH2 0x3E3 PUSH2 0x72F JUMP JUMPDEST SWAP1 POP PUSH2 0x3F0 DUP6 DUP3 DUP6 PUSH2 0x748 JUMP JUMPDEST PUSH2 0x3FB DUP6 DUP6 DUP6 PUSH2 0x7DB JUMP JUMPDEST PUSH1 0x1 SWAP2 POP POP SWAP4 SWAP3 POP POP POP JUMP JUMPDEST PUSH0 PUSH1 0x12 SWAP1 POP SWAP1 JUMP JUMPDEST PUSH1 0x6 PUSH0 SWAP1 SLOAD SWAP1 PUSH2 0x100 EXP SWAP1 DIV PUSH20 0xFFFFFFFFFFFFFFFFFFFFFFFFFFFFFFFFFFFFFFFF AND PUSH20 0xFFFFFFFFFFFFFFFFFFFFFFFFFFFFFFFFFFFFFFFF AND CALLER PUSH20 0xFFFFFFFFFFFFFFFFFFFFFFFFFFFFFFFFFFFFFFFF AND EQ PUSH2 0x49E JUMPI PUSH1 0x40 MLOAD PUSH32 0x8C379A000000000000000000000000000000000000000000000000000000000 DUP2 MSTORE PUSH1 0x4 ADD PUSH2 0x495 SWAP1 PUSH2 0x11F2 JUMP JUMPDEST PUSH1 0x40 MLOAD DUP1 SWAP2 SUB SWAP1 REVERT JUMPDEST PUSH2 0x4A8 DUP3 DUP3 PUSH2 0x8CB JUMP JUMPDEST POP POP JUMP JUMPDEST PUSH0 DUP1 PUSH0 DUP4 PUSH20 0xFFFFFFFFFFFFFFFFFFFFFFFFFFFFFFFFFFFFFFFF AND PUSH20 0xFFFFFFFFFFFFFFFFFFFFFFFFFFFFFFFFFFFFFFFF AND DUP2 MSTORE PUSH1 0x20 ADD SWAP1 DUP2 MSTORE PUSH1 0x20 ADD PUSH0 KECCAK256 SLOAD SWAP1 POP SWAP2 SWAP1 POP JUMP JUMPDEST PUSH2 0x4F9 PUSH2 0x94A JUMP JUMPDEST PUSH2 0x502 PUSH0 PUSH2 0x9D1 JUMP JUMPDEST JUMP JUMPDEST PUSH0 PUSH1 0x5 PUSH0 SWAP1 SLOAD SWAP1 PUSH2 0x100 EXP SWAP1 DIV PUSH20 0xFFFFFFFFFFFFFFFFFFFFFFFFFFFFFFFFFFFFFFFF AND SWAP1 POP SWAP1 JUMP JUMPDEST PUSH1 0x60 PUSH1 0x4 DUP1 SLOAD PUSH2 0x53B SWAP1 PUSH2 0x1178 JUMP JUMPDEST DUP1 PUSH1 0x1F ADD PUSH1 0x20 DUP1 SWAP2 DIV MUL PUSH1 0x20 ADD PUSH1 0x40 MLOAD SWAP1 DUP2 ADD PUSH1 0x40 MSTORE DUP1 SWAP3 SWAP2 SWAP1 DUP2 DUP2 MSTORE PUSH1 0x20 ADD DUP3 DUP1 SLOAD PUSH2 0x567 SWAP1 PUSH2 0x1178 JUMP JUMPDEST DUP1 ISZERO PUSH2 0x5B2 JUMPI DUP1 PUSH1 0x1F LT PUSH2 0x589 JUMPI PUSH2 0x100 DUP1 DUP4 SLOAD DIV MUL DUP4 MSTORE SWAP2 PUSH1 0x20 ADD SWAP2 PUSH2 0x5B2 JUMP JUMPDEST DUP3 ADD SWAP2 SWAP1 PUSH0 MSTORE PUSH1 0x20 PUSH0 KECCAK256 SWAP1 JUMPDEST DUP2 SLOAD DUP2 MSTORE SWAP1 PUSH1 0x1 ADD SWAP1 PUSH1 0x20 ADD DUP1 DUP4 GT PUSH2 0x595 JUMPI DUP3 SWAP1 SUB PUSH1 0x1F AND DUP3 ADD SWAP2 JUMPDEST POP POP POP POP POP SWAP1 POP SWAP1 JUMP JUMPDEST PUSH2 0x5C4 PUSH2 0x94A JUMP JUMPDEST DUP1 PUSH1 0x6 PUSH0 PUSH2 0x100 EXP DUP2 SLOAD DUP2 PUSH20 0xFFFFFFFFFFFFFFFFFFFFFFFFFFFFFFFFFFFFFFFF MUL NOT AND SWAP1 DUP4 PUSH20 0xFFFFFFFFFFFFFFFFFFFFFFFFFFFFFFFFFFFFFFFF AND MUL OR SWAP1 SSTORE POP POP JUMP JUMPDEST PUSH0 DUP1 PUSH2 0x611 PUSH2 0x72F JUMP JUMPDEST SWAP1 POP PUSH2 0x61E DUP2 DUP6 DUP6 PUSH2 0x7DB JUMP JUMPDEST PUSH1 0x1 SWAP2 POP POP SWAP3 SWAP2 POP POP JUMP JUMPDEST PUSH0 PUSH1 0x1 PUSH0 DUP5 PUSH20 0xFFFFFFFFFFFFFFFFFFFFFFFFFFFFFFFFFFFFFFFF AND PUSH20 0xFFFFFFFFFFFFFFFFFFFFFFFFFFFFFFFFFFFFFFFF AND DUP2 MSTORE PUSH1 0x20 ADD SWAP1 DUP2 MSTORE PUSH1 0x20 ADD PUSH0 KECCAK256 PUSH0 DUP4 PUSH20 0xFFFFFFFFFFFFFFFFFFFFFFFFFFFFFFFFFFFFFFFF AND PUSH20 0xFFFFFFFFFFFFFFFFFFFFFFFFFFFFFFFFFFFFFFFF AND DUP2 MSTORE PUSH1 0x20 ADD SWAP1 DUP2 MSTORE PUSH1 0x20 ADD PUSH0 KECCAK256 SLOAD SWAP1 POP SWAP3 SWAP2 POP POP JUMP JUMPDEST PUSH2 0x6B3 PUSH2 0x94A JUMP JUMPDEST PUSH0 PUSH20 0xFFFFFFFFFFFFFFFFFFFFFFFFFFFFFFFFFFFFFFFF AND DUP2 PUSH20 0xFFFFFFFFFFFFFFFFFFFFFFFFFFFFFFFFFFFFFFFF AND SUB PUSH2 0x723 JUMPI PUSH0 PUSH1 0x40 MLOAD PUSH32 0x1E4FBDF700000000000000000000000000000000000000000000000000000000 DUP2 MSTORE PUSH1 0x4 ADD PUSH2 0x71A SWAP2 SWAP1 PUSH2 0xF4B JUMP JUMPDEST PUSH1 0x40 MLOAD DUP1 SWAP2 SUB SWAP1 REVERT JUMPDEST PUSH2 0x72C DUP2 PUSH2 0x9D1 JUMP JUMPDEST POP JUMP JUMPDEST PUSH0 CALLER SWAP1 POP SWAP1 JUMP JUMPDEST PUSH2 0x743 DUP4 DUP4 DUP4 PUSH1 0x1 PUSH2 0xA94 JUMP JUMPDEST POP POP POP JUMP JUMPDEST PUSH0 PUSH2 0x753 DUP5 DUP5 PUSH2 0x629 JUMP JUMPDEST SWAP1 POP PUSH32 0xFFFFFFFFFFFFFFFFFFFFFFFFFFFFFFFFFFFFFFFFFFFFFFFFFFFFFFFFFFFFFFFF DUP2 LT ISZERO PUSH2 0x7D5 JUMPI DUP2 DUP2 LT ISZERO PUSH2 0x7C6 JUMPI DUP3 DUP2 DUP4 PUSH1 0x40 MLOAD PUSH32 0xFB8F41B200000000000000000000000000000000000000000000000000000000 DUP2 MSTORE PUSH1 0x4 ADD PUSH2 0x7BD SWAP4 SWAP3 SWAP2 SWAP1 PUSH2 0x1210 JUMP JUMPDEST PUSH1 0x40 MLOAD DUP1 SWAP2 SUB SWAP1 REVERT JUMPDEST PUSH2 0x7D4 DUP5 DUP5 DUP5 DUP5 SUB PUSH0 PUSH2 0xA94 JUMP JUMPDEST JUMPDEST POP POP POP POP JUMP JUMPDEST PUSH0 PUSH20 0xFFFFFFFFFFFFFFFFFFFFFFFFFFFFFFFFFFFFFFFF AND DUP4 PUSH20 0xFFFFFFFFFFFFFFFFFFFFFFFFFFFFFFFFFFFFFFFF AND SUB PUSH2 0x84B JUMPI PUSH0 PUSH1 0x40 MLOAD PUSH32 0x96C6FD1E00000000000000000000000000000000000000000000000000000000 DUP2 MSTORE PUSH1 0x4 ADD PUSH2 0x842 SWAP2 SWAP1 PUSH2 0xF4B JUMP JUMPDEST PUSH1 0x40 MLOAD DUP1 SWAP2 SUB SWAP1 REVERT JUMPDEST PUSH0 PUSH20 0xFFFFFFFFFFFFFFFFFFFFFFFFFFFFFFFFFFFFFFFF AND DUP3 PUSH20 0xFFFFFFFFFFFFFFFFFFFFFFFFFFFFFFFFFFFFFFFF AND SUB PUSH2 0x8BB JUMPI PUSH0 PUSH1 0x40 MLOAD PUSH32 0xEC442F0500000000000000000000000000000000000000000000000000000000 DUP2 MSTORE PUSH1 0x4 ADD PUSH2 0x8B2 SWAP2 SWAP1 PUSH2 0xF4B JUMP JUMPDEST PUSH1 0x40 MLOAD DUP1 SWAP2 SUB SWAP1 REVERT JUMPDEST PUSH2 0x8C6 DUP4 DUP4 DUP4 PUSH2 0xC63 JUMP JUMPDEST POP POP POP JUMP JUMPDEST PUSH0 PUSH20 0xFFFFFFFFFFFFFFFFFFFFFFFFFFFFFFFFFFFFFFFF AND DUP3 PUSH20 0xFFFFFFFFFFFFFFFFFFFFFFFFFFFFFFFFFFFFFFFF AND SUB PUSH2 0x93B JUMPI PUSH0 PUSH1 0x40 MLOAD PUSH32 0xEC442F0500000000000000000000000000000000000000000000000000000000 DUP2 MSTORE PUSH1 0x4 ADD PUSH2 0x932 SWAP2 SWAP1 PUSH2 0xF4B JUMP JUMPDEST PUSH1 0x40 MLOAD DUP1 SWAP2 SUB SWAP1 REVERT JUMPDEST PUSH2 0x946 PUSH0 DUP4 DUP4 PUSH2 0xC63 JUMP JUMPDEST POP POP JUMP JUMPDEST PUSH2 0x952 PUSH2 0x72F JUMP JUMPDEST PUSH20 0xFFFFFFFFFFFFFFFFFFFFFFFFFFFFFFFFFFFFFFFF AND PUSH2 0x970 PUSH2 0x504 JUMP JUMPDEST PUSH20 0xFFFFFFFFFFFFFFFFFFFFFFFFFFFFFFFFFFFFFFFF AND EQ PUSH2 0x9CF JUMPI PUSH2 0x993 PUSH2 0x72F JUMP JUMPDEST PUSH1 0x40 MLOAD PUSH32 0x118CDAA700000000000000000000000000000000000000000000000000000000 DUP2 MSTORE PUSH1 0x4 ADD PUSH2 0x9C6 SWAP2 SWAP1 PUSH2 0xF4B JUMP JUMPDEST PUSH1 0x40 MLOAD DUP1 SWAP2 SUB SWAP1 REVERT JUMPDEST JUMP JUMPDEST PUSH0 PUSH1 0x5 PUSH0 SWAP1 SLOAD SWAP1 PUSH2 0x100 EXP SWAP1 DIV PUSH20 0xFFFFFFFFFFFFFFFFFFFFFFFFFFFFFFFFFFFFFFFF AND SWAP1 POP DUP2 PUSH1 0x5 PUSH0 PUSH2 0x100 EXP DUP2 SLOAD DUP2 PUSH20 0xFFFFFFFFFFFFFFFFFFFFFFFFFFFFFFFFFFFFFFFF MUL NOT AND SWAP1 DUP4 PUSH20 0xFFFFFFFFFFFFFFFFFFFFFFFFFFFFFFFFFFFFFFFF AND MUL OR SWAP1 SSTORE POP DUP2 PUSH20 0xFFFFFFFFFFFFFFFFFFFFFFFFFFFFFFFFFFFFFFFF AND DUP2 PUSH20 0xFFFFFFFFFFFFFFFFFFFFFFFFFFFFFFFFFFFFFFFF AND PUSH32 0x8BE0079C531659141344CD1FD0A4F28419497F9722A3DAAFE3B4186F6B6457E0 PUSH1 0x40 MLOAD PUSH1 0x40 MLOAD DUP1 SWAP2 SUB SWAP1 LOG3 POP POP JUMP JUMPDEST PUSH0 PUSH20 0xFFFFFFFFFFFFFFFFFFFFFFFFFFFFFFFFFFFFFFFF AND DUP5 PUSH20 0xFFFFFFFFFFFFFFFFFFFFFFFFFFFFFFFFFFFFFFFF AND SUB PUSH2 0xB04 JUMPI PUSH0 PUSH1 0x40 MLOAD PUSH32 0xE602DF0500000000000000000000000000000000000000000000000000000000 DUP2 MSTORE PUSH1 0x4 ADD PUSH2 0xAFB SWAP2 SWAP1 PUSH2 0xF4B JUMP JUMPDEST PUSH1 0x40 MLOAD DUP1 SWAP2 SUB SWAP1 REVERT JUMPDEST PUSH0 PUSH20 0xFFFFFFFFFFFFFFFFFFFFFFFFFFFFFFFFFFFFFFFF AND DUP4 PUSH20 0xFFFFFFFFFFFFFFFFFFFFFFFFFFFFFFFFFFFFFFFF AND SUB PUSH2 0xB74 JUMPI PUSH0 PUSH1 0x40 MLOAD PUSH32 0x94280D6200000000000000000000000000000000000000000000000000000000 DUP2 MSTORE PUSH1 0x4 ADD PUSH2 0xB6B SWAP2 SWAP1 PUSH2 0xF4B JUMP JUMPDEST PUSH1 0x40 MLOAD DUP1 SWAP2 SUB SWAP1 REVERT JUMPDEST DUP2 PUSH1 0x1 PUSH0 DUP7 PUSH20 0xFFFFFFFFFFFFFFFFFFFFFFFFFFFFFFFFFFFFFFFF AND PUSH20 0xFFFFFFFFFFFFFFFFFFFFFFFFFFFFFFFFFFFFFFFF AND DUP2 MSTORE PUSH1 0x20 ADD SWAP1 DUP2 MSTORE PUSH1 0x20 ADD PUSH0 KECCAK256 PUSH0 DUP6 PUSH20 0xFFFFFFFFFFFFFFFFFFFFFFFFFFFFFFFFFFFFFFFF AND PUSH20 0xFFFFFFFFFFFFFFFFFFFFFFFFFFFFFFFFFFFFFFFF AND DUP2 MSTORE PUSH1 0x20 ADD SWAP1 DUP2 MSTORE PUSH1 0x20 ADD PUSH0 KECCAK256 DUP2 SWAP1 SSTORE POP DUP1 ISZERO PUSH2 0xC5D JUMPI DUP3 PUSH20 0xFFFFFFFFFFFFFFFFFFFFFFFFFFFFFFFFFFFFFFFF AND DUP5 PUSH20 0xFFFFFFFFFFFFFFFFFFFFFFFFFFFFFFFFFFFFFFFF AND PUSH32 0x8C5BE1E5EBEC7D5BD14F71427D1E84F3DD0314C0F7B2291E5B200AC8C7C3B925 DUP5 PUSH1 0x40 MLOAD PUSH2 0xC54 SWAP2 SWAP1 PUSH2 0x1045 JUMP JUMPDEST PUSH1 0x40 MLOAD DUP1 SWAP2 SUB SWAP1 LOG3 JUMPDEST POP POP POP POP JUMP JUMPDEST PUSH0 PUSH20 0xFFFFFFFFFFFFFFFFFFFFFFFFFFFFFFFFFFFFFFFF AND DUP4 PUSH20 0xFFFFFFFFFFFFFFFFFFFFFFFFFFFFFFFFFFFFFFFF AND SUB PUSH2 0xCB3 JUMPI DUP1 PUSH1 0x2 PUSH0 DUP3 DUP3 SLOAD PUSH2 0xCA7 SWAP2 SWAP1 PUSH2 0x1272 JUMP JUMPDEST SWAP3 POP POP DUP2 SWAP1 SSTORE POP PUSH2 0xD81 JUMP JUMPDEST PUSH0 DUP1 PUSH0 DUP6 PUSH20 0xFFFFFFFFFFFFFFFFFFFFFFFFFFFFFFFFFFFFFFFF AND PUSH20 0xFFFFFFFFFFFFFFFFFFFFFFFFFFFFFFFFFFFFFFFF AND DUP2 MSTORE PUSH1 0x20 ADD SWAP1 DUP2 MSTORE PUSH1 0x20 ADD PUSH0 KECCAK256 SLOAD SWAP1 POP DUP2 DUP2 LT ISZERO PUSH2 0xD3C JUMPI DUP4 DUP2 DUP4 PUSH1 0x40 MLOAD PUSH32 0xE450D38C00000000000000000000000000000000000000000000000000000000 DUP2 MSTORE PUSH1 0x4 ADD PUSH2 0xD33 SWAP4 SWAP3 SWAP2 SWAP1 PUSH2 0x1210 JUMP JUMPDEST PUSH1 0x40 MLOAD DUP1 SWAP2 SUB SWAP1 REVERT JUMPDEST DUP2 DUP2 SUB PUSH0 DUP1 DUP7 PUSH20 0xFFFFFFFFFFFFFFFFFFFFFFFFFFFFFFFFFFFFFFFF AND PUSH20 0xFFFFFFFFFFFFFFFFFFFFFFFFFFFFFFFFFFFFFFFF AND DUP2 MSTORE PUSH1 0x20 ADD SWAP1 DUP2 MSTORE PUSH1 0x20 ADD PUSH0 KECCAK256 DUP2 SWAP1 SSTORE POP POP JUMPDEST PUSH0 PUSH20 0xFFFFFFFFFFFFFFFFFFFFFFFFFFFFFFFFFFFFFFFF AND DUP3 PUSH20 0xFFFFFFFFFFFFFFFFFFFFFFFFFFFFFFFFFFFFFFFF AND SUB PUSH2 0xDC8 JUMPI DUP1 PUSH1 0x2 PUSH0 DUP3 DUP3 SLOAD SUB SWAP3 POP POP DUP2 SWAP1 SSTORE POP PUSH2 0xE12 JUMP JUMPDEST DUP1 PUSH0 DUP1 DUP5 PUSH20 0xFFFFFFFFFFFFFFFFFFFFFFFFFFFFFFFFFFFFFFFF AND PUSH20 0xFFFFFFFFFFFFFFFFFFFFFFFFFFFFFFFFFFFFFFFF AND DUP2 MSTORE PUSH1 0x20 ADD SWAP1 DUP2 MSTORE PUSH1 0x20 ADD PUSH0 KECCAK256 PUSH0 DUP3 DUP3 SLOAD ADD SWAP3 POP POP DUP2 SWAP1 SSTORE POP JUMPDEST DUP2 PUSH20 0xFFFFFFFFFFFFFFFFFFFFFFFFFFFFFFFFFFFFFFFF AND DUP4 PUSH20 0xFFFFFFFFFFFFFFFFFFFFFFFFFFFFFFFFFFFFFFFF AND PUSH32 0xDDF252AD1BE2C89B69C2B068FC378DAA952BA7F163C4A11628F55A4DF523B3EF DUP4 PUSH1 0x40 MLOAD PUSH2 0xE6F SWAP2 SWAP1 PUSH2 0x1045 JUMP JUMPDEST PUSH1 0x40 MLOAD DUP1 SWAP2 SUB SWAP1 LOG3 POP POP POP JUMP JUMPDEST PUSH0 DUP2 MLOAD SWAP1 POP SWAP2 SWAP1 POP JUMP JUMPDEST PUSH0 DUP3 DUP3 MSTORE PUSH1 0x20 DUP3 ADD SWAP1 POP SWAP3 SWAP2 POP POP JUMP JUMPDEST DUP3 DUP2 DUP4 MCOPY PUSH0 DUP4 DUP4 ADD MSTORE POP POP POP JUMP JUMPDEST PUSH0 PUSH1 0x1F NOT PUSH1 0x1F DUP4 ADD AND SWAP1 POP SWAP2 SWAP1 POP JUMP JUMPDEST PUSH0 PUSH2 0xEBE DUP3 PUSH2 0xE7C JUMP JUMPDEST PUSH2 0xEC8 DUP2 DUP6 PUSH2 0xE86 JUMP JUMPDEST SWAP4 POP PUSH2 0xED8 DUP2 DUP6 PUSH1 0x20 DUP7 ADD PUSH2 0xE96 JUMP JUMPDEST PUSH2 0xEE1 DUP2 PUSH2 0xEA4 JUMP JUMPDEST DUP5 ADD SWAP2 POP POP SWAP3 SWAP2 POP POP JUMP JUMPDEST PUSH0 PUSH1 0x20 DUP3 ADD SWAP1 POP DUP2 DUP2 SUB PUSH0 DUP4 ADD MSTORE PUSH2 0xF04 DUP2 DUP5 PUSH2 0xEB4 JUMP JUMPDEST SWAP1 POP SWAP3 SWAP2 POP POP JUMP JUMPDEST PUSH0 PUSH20 0xFFFFFFFFFFFFFFFFFFFFFFFFFFFFFFFFFFFFFFFF DUP3 AND SWAP1 POP SWAP2 SWAP1 POP JUMP JUMPDEST PUSH0 PUSH2 0xF35 DUP3 PUSH2 0xF0C JUMP JUMPDEST SWAP1 POP SWAP2 SWAP1 POP JUMP JUMPDEST PUSH2 0xF45 DUP2 PUSH2 0xF2B JUMP JUMPDEST DUP3 MSTORE POP POP JUMP JUMPDEST PUSH0 PUSH1 0x20 DUP3 ADD SWAP1 POP PUSH2 0xF5E PUSH0 DUP4 ADD DUP5 PUSH2 0xF3C JUMP JUMPDEST SWAP3 SWAP2 POP POP JUMP JUMPDEST PUSH0 DUP1 REVERT JUMPDEST PUSH2 0xF71 DUP2 PUSH2 0xF2B JUMP JUMPDEST DUP2 EQ PUSH2 0xF7B JUMPI PUSH0 DUP1 REVERT JUMPDEST POP JUMP JUMPDEST PUSH0 DUP2 CALLDATALOAD SWAP1 POP PUSH2 0xF8C DUP2 PUSH2 0xF68 JUMP JUMPDEST SWAP3 SWAP2 POP POP JUMP JUMPDEST PUSH0 DUP2 SWAP1 POP SWAP2 SWAP1 POP JUMP JUMPDEST PUSH2 0xFA4 DUP2 PUSH2 0xF92 JUMP JUMPDEST DUP2 EQ PUSH2 0xFAE JUMPI PUSH0 DUP1 REVERT JUMPDEST POP JUMP JUMPDEST PUSH0 DUP2 CALLDATALOAD SWAP1 POP PUSH2 0xFBF DUP2 PUSH2 0xF9B JUMP JUMPDEST SWAP3 SWAP2 POP POP JUMP JUMPDEST PUSH0 DUP1 PUSH1 0x40 DUP4 DUP6 SUB SLT ISZERO PUSH2 0xFDB JUMPI PUSH2 0xFDA PUSH2 0xF64 JUMP JUMPDEST JUMPDEST PUSH0 PUSH2 0xFE8 DUP6 DUP3 DUP7 ADD PUSH2 0xF7E JUMP JUMPDEST SWAP3 POP POP PUSH1 0x20 PUSH2 0xFF9 DUP6 DUP3 DUP7 ADD PUSH2 0xFB1 JUMP JUMPDEST SWAP2 POP POP SWAP3 POP SWAP3 SWAP1 POP JUMP JUMPDEST PUSH0 DUP2 ISZERO ISZERO SWAP1 POP SWAP2 SWAP1 POP JUMP JUMPDEST PUSH2 0x1017 DUP2 PUSH2 0x1003 JUMP JUMPDEST DUP3 MSTORE POP POP JUMP JUMPDEST PUSH0 PUSH1 0x20 DUP3 ADD SWAP1 POP PUSH2 0x1030 PUSH0 DUP4 ADD DUP5 PUSH2 0x100E JUMP JUMPDEST SWAP3 SWAP2 POP POP JUMP JUMPDEST PUSH2 0x103F DUP2 PUSH2 0xF92 JUMP JUMPDEST DUP3 MSTORE POP POP JUMP JUMPDEST PUSH0 PUSH1 0x20 DUP3 ADD SWAP1 POP PUSH2 0x1058 PUSH0 DUP4 ADD DUP5 PUSH2 0x1036 JUMP JUMPDEST SWAP3 SWAP2 POP POP JUMP JUMPDEST PUSH0 DUP1 PUSH0 PUSH1 0x60 DUP5 DUP7 SUB SLT ISZERO PUSH2 0x1075 JUMPI PUSH2 0x1074 PUSH2 0xF64 JUMP JUMPDEST JUMPDEST PUSH0 PUSH2 0x1082 DUP7 DUP3 DUP8 ADD PUSH2 0xF7E JUMP JUMPDEST SWAP4 POP POP PUSH1 0x20 PUSH2 0x1093 DUP7 DUP3 DUP8 ADD PUSH2 0xF7E JUMP JUMPDEST SWAP3 POP POP PUSH1 0x40 PUSH2 0x10A4 DUP7 DUP3 DUP8 ADD PUSH2 0xFB1 JUMP JUMPDEST SWAP2 POP POP SWAP3 POP SWAP3 POP SWAP3 JUMP JUMPDEST PUSH0 PUSH1 0xFF DUP3 AND SWAP1 POP SWAP2 SWAP1 POP JUMP JUMPDEST PUSH2 0x10C3 DUP2 PUSH2 0x10AE JUMP JUMPDEST DUP3 MSTORE POP POP JUMP JUMPDEST PUSH0 PUSH1 0x20 DUP3 ADD SWAP1 POP PUSH2 0x10DC PUSH0 DUP4 ADD DUP5 PUSH2 0x10BA JUMP JUMPDEST SWAP3 SWAP2 POP POP JUMP JUMPDEST PUSH0 PUSH1 0x20 DUP3 DUP5 SUB SLT ISZERO PUSH2 0x10F7 JUMPI PUSH2 0x10F6 PUSH2 0xF64 JUMP JUMPDEST JUMPDEST PUSH0 PUSH2 0x1104 DUP5 DUP3 DUP6 ADD PUSH2 0xF7E JUMP JUMPDEST SWAP2 POP POP SWAP3 SWAP2 POP POP JUMP JUMPDEST PUSH0 DUP1 PUSH1 0x40 DUP4 DUP6 SUB SLT ISZERO PUSH2 0x1123 JUMPI PUSH2 0x1122 PUSH2 0xF64 JUMP JUMPDEST JUMPDEST PUSH0 PUSH2 0x1130 DUP6 DUP3 DUP7 ADD PUSH2 0xF7E JUMP JUMPDEST SWAP3 POP POP PUSH1 0x20 PUSH2 0x1141 DUP6 DUP3 DUP7 ADD PUSH2 0xF7E JUMP JUMPDEST SWAP2 POP POP SWAP3 POP SWAP3 SWAP1 POP JUMP JUMPDEST PUSH32 0x4E487B7100000000000000000000000000000000000000000000000000000000 PUSH0 MSTORE PUSH1 0x22 PUSH1 0x4 MSTORE PUSH1 0x24 PUSH0 REVERT JUMPDEST PUSH0 PUSH1 0x2 DUP3 DIV SWAP1 POP PUSH1 0x1 DUP3 AND DUP1 PUSH2 0x118F JUMPI PUSH1 0x7F DUP3 AND SWAP2 POP JUMPDEST PUSH1 0x20 DUP3 LT DUP2 SUB PUSH2 0x11A2 JUMPI PUSH2 0x11A1 PUSH2 0x114B JUMP JUMPDEST JUMPDEST POP SWAP2 SWAP1 POP JUMP JUMPDEST PUSH32 0x4F6E6C79206D696E7465722063616E20646F2074686973000000000000000000 PUSH0 DUP3 ADD MSTORE POP JUMP JUMPDEST PUSH0 PUSH2 0x11DC PUSH1 0x17 DUP4 PUSH2 0xE86 JUMP JUMPDEST SWAP2 POP PUSH2 0x11E7 DUP3 PUSH2 0x11A8 JUMP JUMPDEST PUSH1 0x20 DUP3 ADD SWAP1 POP SWAP2 SWAP1 POP JUMP JUMPDEST PUSH0 PUSH1 0x20 DUP3 ADD SWAP1 POP DUP2 DUP2 SUB PUSH0 DUP4 ADD MSTORE PUSH2 0x1209 DUP2 PUSH2 0x11D0 JUMP JUMPDEST SWAP1 POP SWAP2 SWAP1 POP JUMP JUMPDEST PUSH0 PUSH1 0x60 DUP3 ADD SWAP1 POP PUSH2 0x1223 PUSH0 DUP4 ADD DUP7 PUSH2 0xF3C JUMP JUMPDEST PUSH2 0x1230 PUSH1 0x20 DUP4 ADD DUP6 PUSH2 0x1036 JUMP JUMPDEST PUSH2 0x123D PUSH1 0x40 DUP4 ADD DUP5 PUSH2 0x1036 JUMP JUMPDEST SWAP5 SWAP4 POP POP POP POP JUMP JUMPDEST PUSH32 0x4E487B7100000000000000000000000000000000000000000000000000000000 PUSH0 MSTORE PUSH1 0x11 PUSH1 0x4 MSTORE PUSH1 0x24 PUSH0 REVERT JUMPDEST PUSH0 PUSH2 0x127C DUP3 PUSH2 0xF92 JUMP JUMPDEST SWAP2 POP PUSH2 0x1287 DUP4 PUSH2 0xF92 JUMP JUMPDEST SWAP3 POP DUP3 DUP3 ADD SWAP1 POP DUP1 DUP3 GT ISZERO PUSH2 0x129F JUMPI PUSH2 0x129E PUSH2 0x1245 JUMP JUMPDEST JUMPDEST SWAP3 SWAP2 POP POP JUMP INVALID LOG2 PUSH5 0x6970667358 0x22 SLT KECCAK256 0xE1 PUSH0 PUSH31 0x7B964C376BBF53235EF5E2BED025BE2EB990FF22395523DA128496D7476473 PUSH16 0x6C634300081A00330000000000000000 "
				},
				"gasEstimates": {
					"creation": {
						"codeDepositCost": "965400",
						"executionCost": "infinite",
						"totalCost": "infinite"
					},
					"external": {
						"allowance(address,address)": "infinite",
						"approve(address,uint256)": "infinite",
						"balanceOf(address)": "2852",
						"decimals()": "405",
						"mint(address,uint256)": "infinite",
						"minter()": "2554",
						"name()": "infinite",
						"owner()": "2582",
						"renounceOwnership()": "infinite",
						"setMiner(address)": "infinite",
						"symbol()": "infinite",
						"totalSupply()": "2455",
						"transfer(address,uint256)": "infinite",
						"transferFrom(address,address,uint256)": "infinite",
						"transferOwnership(address)": "infinite"
					}
				},
				"methodIdentifiers": {
					"allowance(address,address)": "dd62ed3e",
					"approve(address,uint256)": "095ea7b3",
					"balanceOf(address)": "70a08231",
					"decimals()": "313ce567",
					"mint(address,uint256)": "40c10f19",
					"minter()": "07546172",
					"name()": "06fdde03",
					"owner()": "8da5cb5b",
					"renounceOwnership()": "715018a6",
					"setMiner(address)": "9742ca46",
					"symbol()": "95d89b41",
					"totalSupply()": "18160ddd",
					"transfer(address,uint256)": "a9059cbb",
					"transferFrom(address,address,uint256)": "23b872dd",
					"transferOwnership(address)": "f2fde38b"
				}
			},
			"storageLayout": {
				"storage": [
					{
						"astId": 307,
						"contract": "FruitToken.sol:FruitToken",
						"label": "_balances",
						"offset": 0,
						"slot": "0",
						"type": "t_mapping(t_address,t_uint256)"
					},
					{
						"astId": 313,
						"contract": "FruitToken.sol:FruitToken",
						"label": "_allowances",
						"offset": 0,
						"slot": "1",
						"type": "t_mapping(t_address,t_mapping(t_address,t_uint256))"
					},
					{
						"astId": 315,
						"contract": "FruitToken.sol:FruitToken",
						"label": "_totalSupply",
						"offset": 0,
						"slot": "2",
						"type": "t_uint256"
					},
					{
						"astId": 317,
						"contract": "FruitToken.sol:FruitToken",
						"label": "_name",
						"offset": 0,
						"slot": "3",
						"type": "t_string_storage"
					},
					{
						"astId": 319,
						"contract": "FruitToken.sol:FruitToken",
						"label": "_symbol",
						"offset": 0,
						"slot": "4",
						"type": "t_string_storage"
					},
					{
						"astId": 8,
						"contract": "FruitToken.sol:FruitToken",
						"label": "_owner",
						"offset": 0,
						"slot": "5",
						"type": "t_address"
					},
					{
						"astId": 943,
						"contract": "FruitToken.sol:FruitToken",
						"label": "minter",
						"offset": 0,
						"slot": "6",
						"type": "t_address"
					}
				],
				"types": {
					"t_address": {
						"encoding": "inplace",
						"label": "address",
						"numberOfBytes": "20"
					},
					"t_mapping(t_address,t_mapping(t_address,t_uint256))": {
						"encoding": "mapping",
						"key": "t_address",
						"label": "mapping(address => mapping(address => uint256))",
						"numberOfBytes": "32",
						"value": "t_mapping(t_address,t_uint256)"
					},
					"t_mapping(t_address,t_uint256)": {
						"encoding": "mapping",
						"key": "t_address",
						"label": "mapping(address => uint256)",
						"numberOfBytes": "32",
						"value": "t_uint256"
					},
					"t_string_storage": {
						"encoding": "bytes",
						"label": "string",
						"numberOfBytes": "32"
					},
					"t_uint256": {
						"encoding": "inplace",
						"label": "uint256",
						"numberOfBytes": "32"
					}
				}
			},
			"userdoc": {
				"kind": "user",
				"methods": {},
				"version": 1
			}
		}
	}
}